:020000040020DA
:100000008C4A0020A12D2000852D2000912D20005C
:10001000992D2000992D2000992D2000000000002E
:10002000000000000000000000000000992D2000EA
:10003000992D200000000000992D2000992D20000E
:10004000992D2000992D2000992D2000992D200018
:1000500000000000992D2000992D2000992D2000EE
:10006000992D2000000000000000000000000000AA
:100070000000000000000000992D2000000000009A
:100080000000000000000000992D2000992D2000A4
:10009000992D2000992D2000992D2000992D2000C8
:1000A000992D2000992D2000992D2000992D2000B8
:1000B000992D2000992D2000992D2000992D2000A8
:1000C000992D2000992D2000992D2000992D200098
:1000D000992D20000000000000000000000000003A
:1000E0000000000000000000000000000000000010
:1000F000992D200000000000992D2000992D20004E
:1001000000000000000000000000000000000000EF
:1001100000000000000000000000000000000000DF
:1001200000000000000000000000000000000000CF
:1001300000000000000000000000000000000000BF
:1001400000000000000000000000000000000000AF
:10015000000000000000000000000000000000009F
:10016000000000000000000000000000000000008F
:10017000000000000000000000000000000000007F
:10018000000000000000000000000000000000006F
:10019000000000000000000000000000000000005F
:1001A000000000000000000000000000000000004F
:1001B000000000000000000000000000000000003F
:1001C000000000000000000000000000000000002F
:1001D000000000000000000000000000000000001F
:1001E000000000000000000000000000000000000F
:1001F00000000000000000000000000000000000FF
:1002000000000000000000000000000000000000EE
:1002100000000000000000000000000000000000DE
:1002200000000000000000000000000000000000CE
:1002300000000000000000000000000000000000BE
:1002400000000000000000000000000000000000AE
:10025000000000000000000000000000000000009E
:10026000000000000000000000000000000000008E
:10027000992D2000992D2000992D2000992D2000E6
:10028000992D2000992D2000992D200080B500AFD8
:10029000114800214FF4BC7207F06AF80E4B01229E
:1002A0005A7001F073F900F015FC00F0C7FC01F082
:1002B00073FF01F03FFE094801F0C6FC084802F058
:1002C00031F80848084902F0EDFD00F00FF800F0A1
:1002D00013FC0023184680BD904A0020704B00207C
:1002E000FD08200051062000F507200080B500AF72
:1002F00002F008FE02F0FCFD02F0E6FD80BD00BF4A
:1003000080B500AF02F0EAFD80BD00BF80B500AF50
:10031000104B93F82330002B00D11AE00D4BB3F8AB
:10032000543001339AB20B4BA3F85420094B4FF6CB
:10033000FF72DA84074B002283F82220054B00224B
:1003400083F82820034B002283F829207E2002F026
:10035000E3FD80BD904A002080B500AF1D4B93F8AF
:100360004830002B08D11B4BB3F8583001339AB2F8
:10037000184BA3F858202AE0164B93F82A30013B7B
:10038000052B1BD801A252F823F000BFA5032000C3
:10039000BD032000AB032000B1032000BD032000FB
:1003A000B703200000F018F811E000F059F80EE053
:1003B00000F07EF80BE000F0F5F808E0054BB3F82C
:1003C0005A3001339AB2034BA3F85A2000BFFFF70B
:1003D0008DFF80BD904A002080B500AF094B93F897
:1003E0004830012B08D0074BB3F8583001339AB28C
:1003F000044BA3F8582003E003480C2100F0A8FBAD
:1004000080BD00BF904A00200D04200080B582B05E
:1004100000AF114B7B607B6802221A700F4B5A7839
:100420007B685A700D4B5B88184600F0FBF803465A
:100430001A467B685A807B681A1D084BE03319689E
:100440005B6811605360054B0C2283F82320FFF793
:100450005DFF0837BD4680BD944A0020904A0020C9
:1004600080B500AF114B93F84830012B08D00F4BEB
:10047000B3F8583001339AB20C4BA3F8582014E06B
:100480000A4B5B78022B05D1084B1B78184600F00D
:10049000B5FD05E0054B5B78042B01D101F0AAFD09
:1004A00001F0C2FF014B01225A7080BD904A00202A
:1004B00080B582B000AF364B93F848300A2B08D095
:1004C000334BB3F8583001339AB2314BA3F858206C
:1004D0005BE02F4B02225A702D4B00225A802D4B8D
:1004E0007B602B4B0022A3F8DC207B681A7A284B18
:1004F00083F8DE207B689B889BB2184600F092F858
:100500000346DAB2224B83F8DF20214B204A5C33CA
:10051000E0321168526819605A607B68DA781C4BC7
:1005200083F864201A4BB3F8DC30184600F07AF8F0
:1005300003467B80BB1C18481946022206F0A2FE27
:100540007B685B7A1A46124B93F8DE300B3B1348FC
:1005500011461A4606F00CFF01F060FF7B685B78DD
:10056000184601F037FF7B68DB889BB2184600F025
:1005700059F80346184600210022094B00F0B2FB4F
:1005800003461A46024B1A7000BF0837BD4680BDAD
:10059000904A0020BA4A0020F54A0020F74A00207D
:1005A000210A200080B582B000AF1C4B93F8483080
:1005B0000D2B08D0194BB3F8583001339AB2174BB2
:1005C000A3F8582026E0164B7B607B689A7A134B81
:1005D00083F876217B681A7B104B83F86D210F4BD3
:1005E0007A6803F5B77302321168526819605A606D
:1005F0000A4B00225A8001F0F7FC01F00FFF7B68E4
:100600005B78184601F0E6FE01F096FF034B0422EA
:100610005A7000BF0837BD4680BD00BF904A002019
:10062000BA4A002080B483B000AF0346FB80FB8849
:100630001B029AB2FB881B0A9BB29BB213439BB26C
:100640009BB218460C37BD465DF8047B704700BF6F
:1006500080B582B000AF01F0A1FC464B93F8233087
:10066000002B76D0434B93F822301A46414B13446B
:100670001B79FB713F4B93F82430002B0DD1FB7994
:100680007E2B02D0FB797D2B07D17D2002F044FC2C
:10069000384B012283F824202BE0364BDA8CFB798F
:1006A0001046194600F0AEFA03461A46314BDA847A
:1006B000304B93F82430012B07D1FB7983F02003D2
:1006C000FB712C4B002283F824202A4B93F8223014
:1006D0000133DAB2274B83F82220264B93F82330DC
:1006E000013BDAB2234B83F82320FB79184602F052
:1006F00013FC204B93F82330002B36D11D4B93F87D
:100700002830002B31D11B4BDB8CDB43BB80194BDA
:1007100093F822301946BB88DAB2164B0B441A7193
:10072000144B93F822300133BA88120A92B2D1B234
:10073000104A13440A461A710E4B93F823300233C1
:10074000DAB20C4B83F823200A4B012283F82820CD
:100750000BE0084B93F82930002B06D1054B012202
:1007600083F829207E2002F0D7FB01F01DFC08371A
:10077000BD4680BD904A002080B582B000AF0346E0
:10078000FB71FB797D2B04D1194B012283F84A20A0
:100790002AE0174B93F84A30012B07D1FB7983F0FD
:1007A0002003FB71124B002283F84A20104B93F870
:1007B00048301A460E4B1344FA7983F82A200C4B22
:1007C00093F848300133DAB2094B83F84820084BDC
:1007D000B3F84C20FB791046194600F013FA034693
:1007E0001A46034BA3F84C200837BD4680BD00BF16
:1007F000904A002080B582B000AF01F0CFFB02F03C
:100800009BFB0346FB713B4B93F84E30002B19D1F9
:10081000384B93F849307E2B14D1FB797E2B11D0C5
:10082000344B012283F84E20324B002283F84820BB
:10083000304B4FF6FF72A3F84C20FB791846FFF7B8
:100840009BFF4DE02B4B93F84E30012B16D1FB79DB
:100850007E2B13D0FB791846FFF78EFF254B93F8BC
:10086000483001331E2B08DD224B002283F848203C
:10087000204B002283F84E2032E031E01D4B93F8EC
:100880004E30012B2CD1FB797E2B29D1194BB3F89B
:100890004C304FF2B802934216D1164BB3F8503099
:1008A00001339AB2134BA3F85020124B93F84830FF
:1008B000023BDAB20F4B83F84820FFF721FD0E48C8
:1008C0000C2100F045F907E00A4BB3F85230013330
:1008D0009AB2084BA3F85220064B002283F84E2010
:1008E000044AFB7982F8493001F05EFB0837BD46C7
:1008F00080BD00BF904A00205903200080B58AB017
:1009000002AF0346FB800123FB773C4B5B78042B53
:1009100071D13B4B00933B4B01933B483B498022B9
:100920003B4B01F033FE354A07F11003E832106803
:10093000516803C3314B93F8F030FB7307F10C039C
:1009400018463449022206F09DFCBB891846FFF781
:1009500069FE0346BB81294B93F8F330FB7207F124
:10096000100318462C49082206F05AFC0346002BB7
:1009700001D00023FB77214B93F87621FB7B9A4231
:1009800001D00023FB771D4B93F86D21FB7A9A422F
:1009900001D00023FB77214BBB61BB6907221A7092
:1009A000164B93F86821BB695A70144B93F86A216F
:1009B000BB699A70114B93F86C31DB01DAB2FB7FA3
:1009C0009B01DBB21343DBB2DAB2BB69DA70BB89DD
:1009D0001846FFF727FE03461A46BB699A80074B65
:1009E000062283F82320FFF791FC044B5B88013338
:1009F0009AB2024B5A802037BD4680BD904A0020F3
:100A0000FB4B0020FC4B0020784B0020F84B0020D3
:100A1000FA4B0020814B0020FE4B0020944A00201E
:100A200080B582B000AF01F093FA264B93F8DE3028
:100A30002548194601F00CFD01F046FD01F054FD7A
:100A400001F08CFA1F4BB3F8DC201E4B93F8DF301B
:100A50009BB29A421BD11B4B1B78184600F0CEFA72
:100A600001F0E2FC174B03225A70184B7B607B6845
:100A700005221A70134B012283F82320FFF746FC4E
:100A8000104B5B8801339AB20E4B5A8016E00D4B27
:100A9000B3F8DC3001339AB20A4BA3F8DC20094BDF
:100AA000B3F8DC301846FFF7BDFD03467B80BB1C66
:100AB00007481946022206F0E5FB00BF0837BD468D
:100AC00080BD00BF904A0020EC4A0020944A0020DC
:100AD000F54A002080B500AF05480021802206F0CD
:100AE00047FC04480021022206F042FC80BD00BF02
:100AF000084C0020884C002080B582B000AF18E080
:100B0000114B9B6F7B607B689B680F4A93677B6888
:100B10001B6898477B6800221A607B6800221A7164
:100B20007B6800229A60094B1B78013BDAB2074BC5
:100B30001A70054B9B6F002BE2D101F019F800F001
:100B400045FD01F01FF8DAE7084C0020884C002032
:100B500080B584B000AF78600B46FB7003F086FC74
:100B6000244BFB6002E0FB680C33FB60FB681B68F6
:100B7000002B03D0FB68204A9342F4D9FB681E4A3D
:100B8000934203D901F08CFA00F064FDFB687A68A7
:100B90001A60FB68FA781A71184BBB6003E0BB68F7
:100BA0001B680833BB60BB681B68002B06D0BB68A2
:100BB0001B681A79FB681B799A42F0D3BB681A68E4
:100BC000FB689A60BB68FA681A600D4B1B780133AA
:100BD000DAB20B4B1A700A4B1A78094B5B789A42BF
:100BE00003D9074B1A78064B5A7003F033FC1037C1
:100BF000BD4680BD084C0020744C0020804C002075
:100C0000884C002080B483B000AF03460A46FB80C6
:100C100013467B71FB881B0A9AB2F9887B794B409B
:100C2000DBB2054931F8133053409BB218460C37FC
:100C3000BD465DF8047B70479C76200080B582B08D
:100C400000AF264B002283F8C8200023FB713CE054
:100C5000FA79224913469B0013449B000B4400225F
:100C60001A60FA791D4913469B0013449B000B44FC
:100C700000225A60FA79194913469B0013449B00DD
:100C80000B44083301229A70FA79144913469B00E9
:100C900013449B000B4408330022DA70FA790F49A1
:100CA00013469B0013449B000B44083300225A60F8
:100CB000FA790A4913469B0013449B000B441033F6
:100CC00000221A70FB790133FB71FB79092BBFD924
:100CD000034800F04BFE0837BD4680BD8C4C002019
:100CE0005510200080B586B000AFF8607B600B46E1
:100CF000FB721346BB720023FB7502E0FB7D0133E0
:100D0000FB75FB7D092B0AD8FA7D784913469B00B9
:100D100013449B000B440833DB78002BEED1FB7DA2
:100D2000092B00F2DD80BB7A002B20D1FA7DF96817
:100D30000B465B0119446D4813469B0013449B000E
:100D400003441960FA7DF9680B465B010B44B3F16B
:100D5000FF3F2CBF0123002398B2644913469B0038
:100D600013449B000B44083302461A801EE0BB7AF2
:100D7000012B1AD1FA7D5D4913469B0013449B0059
:100D80000B44FA681A60FA7DFB68B3F1FF3F2CBF91
:100D90000123002398B2554913469B0013449B003E
:100DA0000B44083302461A8000E0FEE7FA7D4F4903
:100DB00013469B0013449B000B4408331B88002BF5
:100DC00021D1BB7A002B0CD1FA7DF9680B465B016F
:100DD0001944464813469B0013449B000344596042
:100DE0001BE0BB7A012B09D1FA7D404913469B00D9
:100DF00013449B000B44FA685A600EE001F050F96E
:100E000000F028FC09E0FA7D384913469B001344A2
:100E10009B000B444FF0FF325A60FA7D3349134672
:100E20009B0013449B000B440833FA7A9A70FA7DB6
:100E30002E4913469B0013449B000B4408330122A8
:100E4000DA70FA7D294913469B0013449B000B443A
:100E500008337A685A60FA7D244913469B0013448C
:100E60009B000B44103300221A70204B93F8C830BB
:100E700083F00103DBB2002B0CD1FA7D1B49134632
:100E80009B0013449B000B445A68184BD3F8CC309A
:100E90009A421FD2FA7D154913469B0013449B00CA
:100EA0000B445B68114AC2F8CC30104B93F8C83041
:100EB00083F00103DBB2002B01D000F065FDFA7D69
:100EC0000A4913469B0013449B000B445B68184679
:100ED00000F068FD054B012283F8C820FB7D00E08F
:100EE000FF2318461837BD4680BD00BF8C4C00203C
:100EF00080B582B000AF03463A60FB710B46BB7110
:100F0000BB79002B20D1FA7939680B465B01194473
:100F1000394813469B0013449B0003441960FA7937
:100F200039680B465B010B44B3F1FF3F2CBF012333
:100F3000002398B2304913469B0013449B000B4496
:100F4000083302461A8021E0BB79012B1AD1FA79C5
:100F5000294913469B0013449B000B443A681A60CE
:100F6000FA793B68B3F1FF3F2CBF0123002398B20D
:100F7000214913469B0013449B000B44083302464F
:100F80001A8003E001F08CF800F064FBFA791A494A
:100F900013469B0013449B000B4408331B88002B13
:100FA0001CD1BB79002B0CD1FA7939680B465B0157
:100FB0001944114813469B0013449B000344596095
:100FC00016E0BB79012B13D1FA790B4913469B002C
:100FD00013449B000B443A685A6009E0FA790649C9
:100FE00013469B0013449B000B444FF0FF325A60A2
:100FF0000837BD4680BD00BF8C4C002080B483B054
:1010000000AF0346FB71FA79064913469B0013446F
:101010009B000B4408330022DA700C37BD465DF8A4
:10102000047B70478C4C002080B483B000AF034633
:10103000FB71FA79064913469B0013449B000B444D
:1010400008330122DA700C37BD465DF8047B704727
:101050008C4C002080B584B000AF0023FB7386E089
:10106000FA7BA74913469B0013449B000B440833AB
:10107000DB78002B78D0A24BD3F8CC10FA7BA048B9
:1010800013469B0013449B0003445B68994257D36B
:10109000FA7B9B4913469B0013449B000B44083387
:1010A0001B88002B0AD1FA7B954913469B001344F9
:1010B0009B000B44103301221A7055E0FA7B9049D3
:1010C00013469B0013449B000B4408331B88013BD1
:1010D00098B28B4913469B0013449B000B44083382
:1010E00002461A80FA7B864913469B0013449B00F4
:1010F0000B4408331B88002B17D1F97BFA7B8048FF
:1011000013469B0013449B0003441B68B3F1FF3F4D
:101110002CBF0122002252429A1A79480B469B00AA
:101120000B449B0003445A601EE0FA7B744913464B
:101130009B0013449B000B444FF0FF325A6013E0B6
:10114000FA7BF97B6E480B469B000B449B000344E3
:1011500059686B4BD3F8CC30C91A694813469B00C9
:1011600013449B0003445960FB7B0133FB73FB7BFF
:10117000092B7FF675AF0023FB7377E0FA7B60499C
:1011800013469B0013449B000B4410331B78002B29
:1011900069D0FA7B5A4913469B0013449B000B44C9
:1011A00008335B68FA7B10469847FA7B544913462C
:1011B0009B0013449B000B44103300221A70FA7BEF
:1011C0004F4913469B0013449B000B4408339B7804
:1011D000002B3ED1FA7BF97B49480B469B000B4420
:1011E0009B0003441B68B3F1FF3F2CBF0123002386
:1011F00098B2434913469B0013449B000B440833A9
:1012000002461A80FA7B3E4913469B0013449B001A
:101210000B4408331B88002B10D1FA7BF97B38482C
:101220000B469B000B449B0003441968344813464B
:101230009B0013449B000344596014E0FA7B30493F
:1012400013469B0013449B000B444FF0FF325A603F
:1012500009E0FA7B2A4913469B0013449B000B4488
:1012600008330022DA70FB7B0133FB73FB7B092B15
:1012700084D90023FB710023FB7329E0FA7B20490A
:1012800013469B0013449B000B440833DB78002B70
:101290001BD0FB7983F00103DBB2002B0AD1FA7B70
:1012A000174913469B0013449B000B445A68BB68C4
:1012B0009A420AD2FA7B124913469B0013449B00C0
:1012C0000B445B68BB600123FB71FB7B0133FB7349
:1012D000FB7B092BD2D9FB79002B0AD0084ABB68CB
:1012E000C2F8CC30064BD3F8CC30184600F05AFB8D
:1012F00003E0034B002283F8C8201037BD4680BDB1
:101300008C4C002080B586B000AF0346FB800023E4
:10131000FB7568E0FA7D984913469B0013449B00D7
:101320000B440833DB78002B5AD0FA7D92491346E0
:101330009B0013449B000B445A68FB889A4212D9C5
:10134000FA7DF97D8C480B469B000B449B000344BF
:101350005968FB88C91A884813469B0013449B00B0
:10136000034459603CE0FA7D834913469B001344D3
:101370009B000B4408331B88002B27D0FA7D7E4945
:1013800013469B0013449B000B4408331B88013B0E
:1013900098B2794913469B0013449B000B440833D1
:1013A00002461A80FA7DF97D73480B469B000B4478
:1013B0009B0003445968FB88CB1A591E6E4813469C
:1013C0009B0013449B000344596009E0FA7D6A497D
:1013D00013469B0013449B000B44103301221A70E8
:1013E000FB7D0133FB75FB7D092B93D90023FB7536
:1013F00077E0FA7D604913469B0013449B000B4441
:1014000010331B78002B69D0FA7D5B4913469B0093
:1014100013449B000B4408335B68FA7D10469847E1
:10142000FA7D554913469B0013449B000B4410332F
:1014300000221A70FA7D504913469B0013449B000A
:101440000B4408339B78002B3ED1FA7DF97D4A4846
:101450000B469B000B449B0003441B68B3F1FF3F0A
:101460002CBF0123002398B2434913469B00134429
:101470009B000B44083302461A80FA7D3E4913460E
:101480009B0013449B000B4408331B88002B10D196
:10149000FA7DF97D38480B469B000B449B000344C2
:1014A0001968354813469B0013449B000344596058
:1014B00014E0FA7D304913469B0013449B000B4413
:1014C0004FF0FF325A6009E0FA7D2B4913469B002A
:1014D00013449B000B4408330022DA70FB7D013378
:1014E000FB75FB7D092B84D90023FB730023FB755F
:1014F00029E0FA7D204913469B0013449B000B44CE
:101500000833DB78002B1BD0FB7B83F00103DBB2BD
:10151000002B0AD1FA7D184913469B0013449B0007
:101520000B445A683B699A420AD2FA7D1249134623
:101530009B0013449B000B445B683B610123FB73DE
:10154000FB7D0133FB75FB7D092BD2D9FB7B002B87
:101550000AD0094A3B69C2F8CC30074BD3F8CC30EB
:10156000184600F01FFA03E0034B002283F8C8205E
:101570001837BD4680BD00BF8C4C002080B500AF41
:10158000FEF784FE0346184680BD00BF80B500AF5D
:1015900000F09EF800F0CCF800F020F800F060F8C1
:1015A00000F076F800F0C6FC00F064FA00F002F9F2
:1015B00000F0CCF901F030F901F028FC00F0ECFD6E
:1015C00000F06EFB01F01CFB80BD00BF80B500AFDA
:1015D000002003F0F5FF03F023FE80BD80B500AFCF
:1015E0000448322102F05AFA02484FF6FF7102F025
:1015F00027FA80BD0020034080B582B000AF0648C6
:10160000FF2102F0DDFB03465B097B607B68184627
:101610000837BD4680BD00BF0020034080B584B0C0
:1016200000AF78600A48FF2102F0CAFB03465B095D
:10163000FB607A68FB68D31ABB60BB68002B01DDD6
:10164000002300E0012318461037BD4680BD00BFCF
:101650000020034080B500AF03F0DAFD80BD00BF7D
:1016600080B500AF0948202101F0B8FF07481021DC
:1016700001F0B4FF05482021202201F083FF034838
:101680001021EF2201F07EFF80BD00BF00C00D40A1
:1016900080B500AF05481021102201F073FF034808
:1016A0002021DF2201F06EFF80BD00BF00C00D4091
:1016B00080B500AF05481021EF2201F063FF034819
:1016C0002021202201F05EFF80BD00BF00C00D4040
:1016D00080B500AF1248FF2101F080FF1148FF21C3
:1016E00001F07CFF1048FF2101F078FF0F48FF2137
:1016F00001F074FF0A48FF21002201F043FF09486E
:10170000FF21002201F03EFF0748FF21002201F0E7
:1017100039FF0648FF21002201F034FF80BD00BFE1
:1017200000900D4000A00D4000B00D4000C00D40E5
:1017300080B582B000AF02F099FE0346FB711B48F2
:101740004021002201F094FD18488021002201F080
:101750008FFD16484021012203F0DEF91348802155
:10176000012203F0D9F901200021002203F02AFC14
:10177000012003F0D9FC00BF0D4B1B6803F40023CC
:10178000002BF9D000F040F800F06EF800F09CF863
:1017900000F0CAF8FB7983F00103DBB2002B01D023
:1017A00002F058FE0837BD4680BD00BF00C00D40A6
:1017B00004200D4080B582B000AF4FF6FF737B6010
:1017C00002E07B68013B7B607B68002BF9D10C4811
:1017D000082101F0EDFE0A480821002201F0B2FDC7
:1017E0000748084901F096FE0548082101F080FEEF
:1017F0000348082101F036FE0837BD4680BD00BF12
:1018000000B00D403519200080B500AF002003F076
:1018100023FE012003F020FE032003F01DFE4FF401
:10182000807003F019FE40F2011003F015FE40F243
:10183000012003F011FE4FF4407003F00DFE4FF451
:10184000806003F009FE40F2014003F005FE022033
:1018500003F0DEFD4FF4007003F0DAFD4FF4A060FA
:1018600003F0D6FD80BD00BF80B500AF002003F0BF
:101870003BFE012003F038FE032003F035FE4FF459
:10188000807003F031FE40F2011003F02DFE40F2B3
:10189000012003F029FE4FF4407003F025FE4FF4C1
:1018A000806003F021FE40F2014003F01DFE0220A3
:1018B00003F0F6FD4FF4007003F0F2FD4FF4A0606A
:1018C00003F0EEFD80BD00BF80B500AF002003F047
:1018D00053FE012003F050FE022003F04DFE0320D2
:1018E00003F04AFE4FF4807003F046FE40F2011010
:1018F00003F042FE4FF4007003F03EFE40F2012080
:1019000003F03AFE4FF4407003F036FE4FF480606F
:1019100003F032FE40F2014003F02EFE4FF4A060CF
:1019200003F02AFE80BD00BF80B500AF202002F08A
:1019300063F880BD80B500AF02F098FD024801F069
:1019400053FB03F065FC80BD00F8270080B500AFB5
:1019500004480021142205F00BFDA120024902F0E9
:1019600091FD80BD5C4D0020491A200080B483B0F9
:1019700000AF7860034A7B6813600C37BD465DF8A2
:10198000047B70475C4D002080B400AF044B002204
:101990001A72034B00225A60BD465DF8047B704703
:1019A0005C4D002080B586B000AF78601E4B1B7A7E
:1019B00083F00103DBB2002B07D003F041FA0246AB
:1019C000194B5A60184B01221A72174B5B687B61E6
:1019D000154B5A687B68134401333B61124A3B69DB
:1019E000536003F02DFAF860FA687B69D21A7B68BD
:1019F0009A4210D90C4BDB6801330B4AD360FA686A
:101A00007B69D31A084A1361074AFB685360A12017
:101A100002F096FE02E0386903F056FAA12002F0C7
:101A2000FBFD1837BD4680BD5C4D002080B500AF82
:101A3000A12002F03BFE80BD80B500AF03F000FAAC
:101A40000346184680BD00BF80B500AF00F0B8F86F
:101A5000A12002F0B3FE00F003F800F0A7F880BD6B
:101A600080B500AF024B1B6898470123184680BD24
:101A70005C4D002080B500AF0948302101F0AEFD7B
:101A800008480F2101F0AAFD05483021002201F08D
:101A900079FD04480F21002201F074FD80BD00BFD4
:101AA00000900D4000C00D4080B500AF02481021ED
:101AB00000F0AEF880BD00BF00900D4080B500AFD3
:101AC00002481021002201F05DFD80BD00900D4014
:101AD00080B500AF02481021102201F053FD80BDF7
:101AE00000900D4080B500AF0248082100F090F84A
:101AF00080BD00BF00C00D4080B500AF0248082186
:101B0000002201F03FFD80BD00C00D4080B500AF58
:101B100002480821082201F035FD80BD00C00D40BB
:101B200080B500AF0248042100F072F880BD00BF0C
:101B300000C00D4080B500AF02480421002201F032
:101B400021FD80BD00C00D4080B500AF02480421DA
:101B5000042201F017FD80BD00C00D4080B500AF2C
:101B60000248022100F054F880BD00BF00C00D40C3
:101B700080B500AF02480221002201F003FD80BDC4
:101B800000C00D4080B500AF02480221022201F0E2
:101B9000F9FC80BD00C00D4080B500AF0248202197
:101BA00000F036F880BD00BF00900D4080B500AF5A
:101BB00002482021002201F0E5FC80BD00900D408C
:101BC00080B500AF02482021202201F0DBFC80BD5F
:101BD00000900D4080B500AF0248012100F018F8D8
:101BE00080BD00BF00C00D4080B500AF024801219C
:101BF000002201F0C7FC80BD00C00D4080B500AFE1
:101C000002480121012201F0BDFC80BD00C00D4051
:101C100080B584B000AF78600B46FB70FB787868C5
:101C2000194601F09DFCF860FB68DA43FB7813402D
:101C3000FB60FB68DBB2FA78786811461A4601F05F
:101C4000A1FC1037BD4680BD80B485B000AF786080
:101C5000114BFB6007E07B685A1C7A60FA68511EE2
:101C6000F96012781A70FB68B3F1281FF3D20B4B9E
:101C7000FB6007E07B685A1C7A60FA68511EF960C5
:101C800012781A70FB68044A9342F3D81437BD46A1
:101C90005DF8047B704700BF2B0028002F00280050
:101CA00080B582B000AF4FF4407003F0B1FB4FF449
:101CB000407003F0F5FB4FF4407003F05DFC4FF40F
:101CC000407003F05FFB1548082101F09DFC1348AC
:101CD0000821134A02F04AFE104808210C2202F0A3
:101CE000E1FD0E48102101F08FFC0C4810210D4A37
:101CF00002F03CFE094810210B2202F0D3FD002324
:101D0000FB7103F0BDF90246FB791046194602F05B
:101D100079F902F0B5F90837BD4680BD00A00D4045
:101D200030410D402C410D4080B584B000AF0346DA
:101D30003960FB71144BFB60FB791846012102F0FE
:101D4000D9FA072002F010FBFFF756FC0246FB68A9
:101D50001344FB6007E0F868FFF760FC0346002BC4
:101D600001D000230BE002F0DBFA0346002BF2D196
:101D700002F038FB0346DAB23B681A7001231846BA
:101D80001037BD4680BD00BFA086010090B587B06A
:101D900000AF0346B9607A60FB731E4B7B61FB7B2F
:101DA0001846012102F0A6FA0B2002F0DDFAFFF737
:101DB00023FC02467B6913447B6122E007E07869DB
:101DC000FFF72CFC0346002B01D07B681DE002F0DE
:101DD000A7FA0346002BF2D1BC68631CBB6002F07B
:101DE00001FB0346DBB223707B68013B7B607B68B1
:101DF000012B03D1052002F0B7FA02E0092002F01E
:101E0000B3FA7B68002BD9D17B6818461C37BD46D6
:101E100090BD00BFA086010080B584B000AF03462E
:101E20000A46FB711346BB71134BFB60FB791846E6
:101E3000002102F05FFABB79184602F0C3FA0720CE
:101E400002F092FAFFF7D8FB0246FB681344FB60EE
:101E500007E0F868FFF7E2FB0346002B01D0002300
:101E600005E002F05DFA0346002BF2D1012318468B
:101E70001037BD4680BD00BFA086010080B586B08A
:101E800000AF0346B9607A60FB73294B7B61FB7B33
:101E90001846002102F02EFABB685A1CBA601B7863
:101EA000184602F08FFA7B68013B7B60032002F04A
:101EB0005BFAFFF7A1FB02467B6913447B6107E0F5
:101EC0007869FFF7ABFB0346002B01D07B682BE062
:101ED00002F026FA0346002BF2D121E0BB685A1C1F
:101EE000BA601B78184602F06DFA7B68012B03D1AB
:101EF000052002F039FA02E0012002F035FA07E08D
:101F00007869FFF78BFB0346002B01D07B680BE061
:101F100002F006FA0346002BF2D17B68013B7B609E
:101F20007B68002BDAD17B6818461837BD4680BD28
:101F3000A086010080B500AF0448F02101F04EFBFF
:101F40000248F021002201F01DFB80BD00B00D40D1
:101F500080B500AF102000F0DFF880BD80B500AF85
:101F6000102000F0EBF880BD80B500AF102000F02D
:101F7000F5F880BD80B582B000AF0748102101F0B0
:101F8000EFFA78607B68DBB203F010031B11DBB261
:101F900018460837BD4680BD00B00D4080B500AF83
:101FA000202000F0B9F880BD80B500AF202000F0FF
:101FB000C5F880BD80B500AF202000F0CFF880BD0F
:101FC00080B582B000AF0748202101F0C9FA7860DF
:101FD0007B68DBB203F020035B11DBB218460837E5
:101FE000BD4680BD00B00D4080B500AF802000F040
:101FF00093F880BD80B500AF802000F09FF880BDD1
:1020000080B500AF802000F0A9F880BD80B582B017
:1020100000AF0648802101F0A3FA78607B68DBB24C
:10202000DB09DBB218460837BD4680BD00B00D4065
:1020300080B500AF402000F06FF880BD80B500AFE4
:10204000402000F07BF880BD80B500AF402000F05C
:1020500085F880BD80B582B000AF0748402101F00F
:102060007FFA78607B68DBB203F040039B11DBB240
:1020700018460837BD4680BD00B00D4080B500AFA2
:10208000F02000F049F880BD80B500AFF02000F0EE
:1020900055F880BD80B500AFF02000F05FF880BD3E
:1020A00080B582B000AFF02000F048F80023FB714B
:1020B0001FE0102000F052F84FF6FF73BB8004E0E1
:1020C000BB889BB2013B9BB2BB80BB889BB2002B01
:1020D000F6D14FF6FF73BB8004E0BB889BB2013B97
:1020E0009BB2BB80BB889BB2002BF6D1FB7901333E
:1020F000FB71FB794F2BDCD90837BD4680BD00BF93
:1021000080B400AFBD465DF8047B704780B400AF7B
:10211000BD465DF8047B704780B582B000AF0346D2
:10212000FB71FA79FB79044811461A4601F02AFA44
:102130000837BD4680BD00BF00B00D4080B582B0FD
:1021400000AF0346FB71FB7903481946002201F0FA
:1021500019FA0837BD4680BD00B00D4080B584B087
:1021600000AF0346FB71FB790A48194601F0F8F904
:10217000F860FB68DA43FB791340FB60FB68DBB275
:10218000FA79044811461A4601F0FCF91037BD46A9
:1021900080BD00BF00B00D4080B500AF39480021C0
:1021A0000C2205F0E5F8374B00221A72364BED226F
:1021B0001A60354BED221A60334BEE221A60324B17
:1021C000EE221A6000F07AFA00F05CFA2F4B14222B
:1021D0001A602F4B3F221A602E4B55221A602E4B4D
:1021E00085221A602D4B01221A602D4B15221A6090
:1021F0002C4B10221A602C4B0E221A602B4B032200
:102200001A602B4BF8221A602A4B09221A60244BC1
:1022100015221A6004230B221A60274BFF221A6032
:10222000264B40221A60264A254B1B6823F00103E7
:102230001360244B00221A60234B7F221A60234B29
:10224000D5221A60224B0B221A609D20214902F0F0
:1022500019F99E20204902F015F99D20802102F0F5
:1022600091F99E20802102F08DF99D2002F0D4F991
:102270001A4B7F221A609E2002F0CEF9014B0122F8
:102280001A7280BD704D002038880840A48608402E
:10229000AC860840B0860840A0860840B886084052
:1022A000C8860840D4860840D8860840DC860840A6
:1022B00058860840E88708409487084024860840EC
:1022C000008608400886084050860840408608403E
:1022D0003C8608400D272000E52720009486084012
:1022E00080B582B000AF7860786800F09FFA083758
:1022F000BD4680BD80B582B000AF7860786800F0E0
:10230000A3FA0837BD4680BD80B483B000AF7860C3
:10231000034A7B6813600C37BD465DF8047B704749
:10232000704D002080B483B000AF7860034A7B68B2
:1023300053600C37BD465DF8047B7047704D00203C
:1023400080B500AF00BF0E4B1B6803F00203002BEB
:10235000F9D10C4BED221A600A4BED221A60094BA1
:10236000EE221A60074BEE221A60074B1B68002B07
:1023700002D0044BEF221A60FFF70EFF80BD00BFB2
:102380004C860840388808402C86084080B582B0CA
:1023900000AF7860786800F071FA0837BD4680BDFC
:1023A00080B500AF00F0CEFA0346184680BD00BFEE
:1023B00080B582B000AF7860786800F0E9FA08373D
:1023C000BD4680BD80B500AF00F006FB0346184651
:1023D00080BD00BF80B582B000AF0346FB710D4BDE
:1023E00002221A7200F06AF9FB790A2B02D9FB79F2
:1023F0001A2B00D9FEE70849FB79A3F10B0213461B
:102400009B0013440B330B60024B03221A720837F4
:10241000BD4680BD704D00203C86084080B400AFB2
:10242000BD465DF8047B704780B500AF074B0D22B9
:102430001A7200F043F9FFF7D7FBFFF7DBFD00F05E
:1024400021F9024B01221A7280BD00BF704D00209D
:1024500080B485B000AF78600B46FB700023FB733F
:10246000154B04221A7200BF144B1B6803F00203C1
:10247000002BF9D1124BEE221A60114BEE221A609A
:10248000104AFB7813600023FB7308E00D49FB7BC7
:102490007A6813441B780B60FB7B0133FB73FA7B78
:1024A000FB789A42F2D3044B05221A721437BD46C8
:1024B0005DF8047B704700BF704D00204C860840DB
:1024C000388808402888084080B500AF054B0622B0
:1024D0001A72FFF793FBFFF787FD024B07221A7270
:1024E00080BD00BF704D002080B582B000AF0F4BA3
:1024F00008221A7200F0B0F800BF0D4B1B6803F001
:102500000203002BF9D10B4BE9221A6000237B60F8
:1025100002E07B6801337B60054B1B6803F002031C
:10252000002BF6D00837BD4680BD00BF704D00209F
:102530004C8608403888084080B500AF054B09221A
:102540001A72FFF75BFBFFF74FFD024B0A221A726C
:1025500080BD00BF704D002080B500AF094BED225B
:102560001A60084BED221A6000F076F8054BE32262
:102570001A6000BF044B1B6803F00103002BF9D065
:1025800080BD00BF388808404C86084080B487B0C2
:1025900000AFF860B9603B601346FB710023BB7568
:1025A0002B4B1B68BB75BB7D5BB2002B06DA294B3E
:1025B000ED221A60274BED221A6044E0BB7D042B0C
:1025C00006D8244BED221A60224BED221A603AE025
:1025D000BA7DFB799A4206D91E4BED221A601D4B3B
:1025E000ED221A602FE00023FB7509E0FB7DFA68FD
:1025F0001344174A1268D2B21A70FB7D0133FB757F
:10260000FA7DBB7D023B9A42F0DB114B1B68DBB2CB
:10261000493BDBB2DAB23B681A700D4B1B687B7525
:102620007B7D03F08003002B14BF01230023DAB26B
:102630007B6A1A70BB68BA7D1A70064BED221A606D
:10264000044BED221A601C37BD465DF8047B7047D1
:10265000288808403888084080B400AF074A074BF4
:102660001B6843F007031360054A054B1B6843F0E2
:1026700002031360BD465DF8047B70478C860840FA
:102680009086084080B400AF044B00221A60044BCF
:1026900000221A60BD465DF8047B70478C860840B6
:1026A0009086084080B400AF034BE3221A60BD4619
:1026B0005DF8047B704700BF3888084080B400AFE5
:1026C00000BF0A4B1B6803F00203002BF9D1084B33
:1026D0001B68002B06D0074BEF221A60064B6FF0E9
:1026E00044021A60BD465DF8047B70474C86084082
:1026F0002C860840388808403488084080B400AFF1
:1027000000231846BD465DF8047B704780B582B053
:1027100000AF00F0E1F903463B602F4B1B68FB71F3
:102720002E4B1B68BB719D2002F048F82A4B0022FB
:102730001A602A4B00221A60FB7903F00203002B77
:102740000DD0274B0B221A72254B1B68002B05D08E
:10275000234B1B683A68104698473AE0FEE7FB793E
:1027600003F04003002B0DD01D4B0C221A721C4BA2
:102770005B68002B05D01A4B5B683A681046984797
:1027800027E0FEE7FB7903F00403002B0DD0144B88
:102790000C221A72124B5B68002B05D0104B5B6841
:1027A0003A681046984714E0FEE7BB7903F002034D
:1027B000002B0DD00A4B0C221A72094B5B68002BC0
:1027C00005D0074B5B683A681046984701E0FEE782
:1027D00000BF0837BD4680BD3488084030880840B7
:1027E000704D002080B483B000AF0A4B1B68FB71B2
:1027F000084B1A68FB79134003F00203002B03D047
:10280000044B6FF002021A600C37BD465DF8047B82
:10281000704700BF9486084080B500AF0248002191
:10282000082204F0A5FD80BD7C4D002080B483B05B
:1028300000AF7860034A7B6813600C37BD465DF8D3
:10284000047B70477C4D002080B483B000AF78607B
:10285000034A7B6853600C37BD465DF8047B7047C4
:102860007C4D002080B483B000AF7860FEE700BFED
:1028700080B483B000AF7860FEE700BF80B582B05F
:1028800000AF7860254B02221A60254BD0221A60D7
:10289000244B03221A60214B00221A60204B002295
:1028A0001A60204B00221A601C4B20221A601E4A1C
:1028B0007B68DBB213601D4A7B681B0ADBB21360C6
:1028C0001B4A7B681B0CDBB21360144B00221A609E
:1028D000154B00221A60154B00221A60144B00227F
:1028E0001A60144B08221A60A220134901F0CAFD95
:1028F000124B00221A60124A114B1B6843F003036B
:10290000136000BF0E4B1B6803F00403002BF9D0CB
:10291000A22001F081FE0837BD4680BD1088084026
:1029200014880840188808402488084020880840F7
:102930001C88084008880840652B20000C88084047
:102940000488084080B483B000AF00237B600C4B48
:1029500000221A600B4B1B687B600B4B1B681B0231
:102960007A6813447B60094B1B681B047A68134424
:102970007B607B6818460C37BD465DF8047B70476A
:102980001088084024880840208808401C88084097
:1029900080B582B000AF78600B4B20221A600B4AE2
:1029A0007B68DBB213600A4A7B681B0ADBB21360E8
:1029B000084A7B681B0CDBB21360A22001F02CFEDE
:1029C0000837BD4680BD00BF1088084024880840F5
:1029D000208808401C88084080B483B000AF0023E2
:1029E0007B600C4B20221A600B4B1B687B600B4BEF
:1029F0001B681B027A6813447B60094B1B681B042D
:102A00007A6813447B607B6818460C37BD465DF8D6
:102A1000047B7047108808402488084020880840BC
:102A20001C88084080B582B000AF7860104B30221F
:102A30001A60104A7B68DBB213600F4A7B681B0A7E
:102A4000DBB213600D4A7B681B0CDBB213600C4BCE
:102A50006FF010021A600B4A0A4B1B6843F0100318
:102A60001360A22001F0D8FD0837BD4680BD00BF2D
:102A70001088084024880840208808401C880840A6
:102A80000C8808400888084080B400AF0C4B302206
:102A90001A600C4B00221A600B4B00221A600B4B81
:102AA00000221A600A4A0A4B1B6823F010031360C5
:102AB000084B6FF010021A60BD465DF8047B70474A
:102AC0001088084024880840208808401C88084056
:102AD000088808400C88084080B483B000AF002309
:102AE0007B600C4B00221A600B4B1B687B600B4B0E
:102AF0001B681A027B6813447B60094B1B681A042D
:102B00007B6813447B607B6818460C37BD465DF8D4
:102B1000047B7047108808402488084020880840BB
:102B20001C88084080B483B000AF0023FB800A4BB0
:102B300000221A60094B1B689AB2094B1B689BB2B2
:102B40001B029BB21344FB80FB8818460C37BD4622
:102B50005DF8047B704700BF108808401488084067
:102B60001888084080B500AFFFF72AF800F004F895
:102B7000FFF71CF880BD00BF80B582B000AF1D4BD1
:102B80001B68FB711C4B1B68BB71A22001F016FE79
:102B9000BB7903F01002FB791340002B0ED0FEF737
:102BA000FBFF154B6FF010021A60144B5B68002B93
:102BB0001AD0124B5B689847012316E0BB7903F0EB
:102BC0000802FB791340002B0ED0FEF7E5FF0A4BFD
:102BD0006FF008021A60094B1B68002B04D0074BEA
:102BE0001B689847012300E0002318460837BD46BC
:102BF00080BD00BF088808400C8808407C4D00203C
:102C000080B500AF18480021092204F0B1FB03F0A1
:102C10007DFA0346012B07D103F04AFA124B012239
:102C20005A70114B01229A7003F0C6F90346012B2A
:102C300004D103F055F90C4B0122DA7003F0B2F81D
:102C40000346012B0AD103F083F8074B01221A71C6
:102C5000054B01225A71044B01229A7103F050FB7B
:102C6000014B0122DA7180BD844D002080B483B015
:102C700000AF0346FB71FB79064AD35C002B14BFFF
:102C800001230023DBB218460C37BD465DF8047BF8
:102C9000704700BF844D002080B483B000AF03466E
:102CA000FB71FB79013B062B1ED801A252F823F0E1
:102CB000CD2C2000D12C2000D52C2000D92C200098
:102CC000DD2C2000E12C2000E52C20000A4B0CE03C
:102CD0000A4B0AE00A4B08E00A4B06E00A4B04E004
:102CE0000A4B02E00A4B00E0002318460C37BD46B1
:102CF0005DF8047B704700BF51612000096220002D
:102D0000ED5F2000D15D2000195E2000615E200093
:102D10002D63200080B483B000AF0346FB71FB79C4
:102D2000013B062B1ED801A252F823F0492D2000AA
:102D30004D2D2000512D2000552D2000592D200013
:102D40005D2D2000612D20000A4B0CE00A4B0AE0AB
:102D50000A4B08E0002306E0002304E0002302E021
:102D6000074B00E0002318460C37BD465DF8047B96
:102D7000704700BF8D612000456220005160200037
:102D80006163200080B500AF00F00AF8FEE700BFE5
:102D900080B400AFFEE700BF80B400AFFEE700BF25
:102DA00080B582B000AF114BFF221A60104B114A60
:102DB0001A60114B7B60114B3B6007E03B681A1DAA
:102DC0003A607A68111D796012681A603B680C4A93
:102DD0009342F3D30B480C494FF000028842B8BF2E
:102DE00040F8042BFADBFEF7C9FBFEE7B4200D40E8
:102DF00008ED00E000002000AF7C20000040002033
:102E00008C4200208C420020984D002080B500AFFD
:102E10001F480021082204F0ABFA1E4802F0F0FC23
:102E20001C4841F6FF7102F089FE1A48012102F0A8
:102E300005FF19480221002201F034FD1648022145
:102E400000F03AFC14480121144A01F08FFD1248A9
:102E5000012100F01BFC02F081F903460D481946E0
:102E60004FF4E132602302F033FC0A4802F0AAFC7E
:102E7000084802F0FDFC0748102102F03FFD05481C
:102E8000074902F015FE152001F0C6FB80BD00BF0A
:102E9000904D002000C0004000900D4000410D40CA
:102EA000592F200080B483B000AF78603960054AA4
:102EB0007B681360034A3B6853600C37BD465DF87E
:102EC000047B7047904D002080B500AF0248702110
:102ED00002F020FE80BD00BF00C0004080B500AF02
:102EE0000248702102F02AFE80BD00BF00C00040F1
:102EF00080B500AF0248502102F04AFE80BD00BFFD
:102F000000C0004080B500AF0248202102F040FE22
:102F100080BD00BF00C0004080B582B000AF034656
:102F2000FB71FB790348194602F07AFD0837BD466C
:102F300080BD00BF00C0004080B582B000AF054832
:102F400002F040FD78607B68DBB218460837BD466A
:102F500080BD00BF00C0004080B582B000AFFEF76A
:102F60002FFE1048012102F0FDFD7860152001F0D0
:102F700025FC7B6803F02003002B01D000F014F83F
:102F80007B6803F01003002B04D17B6803F040033F
:102F9000002B01D000F018F8FEF708FE0837BD46F8
:102FA00080BD00BF00C0004080B500AFFFF7AAFFA2
:102FB000044B1B68002B02D0024B1B689847002370
:102FC000184680BD904D002080B500AFFFF790FF00
:102FD000044B5B68002B02D0024B5B6898470023D0
:102FE000184680BD904D002080B584B000AF786059
:102FF0000023FB6000F076F8B8604823DB6878684F
:103000004FF400619847F860B86800F079F8FB6801
:1030100018461037BD4680BD80B584B000AF002390
:10302000FB6000F08FF8034603F2FE739B02BB6067
:1030300000F058F878604823DB68B8684FF4006106
:103040009847F860786800F05BF8FB68184610371E
:10305000BD4680BD80B586B000AFF860B9607A60CB
:1030600000237B6100F03EF8386148231B69F86853
:10307000B9687A6898477861386900F041F87B69E7
:1030800018461837BD4680BD80B586B000AFF860E1
:10309000B9607A6000237B6100F024F8386148232E
:1030A0001B69F868B9687A6898477861064A064BE0
:1030B0001B6823F400731360386900F021F87B6902
:1030C00018461837BD4680BD08300D4080B483B027
:1030D00000AF78607B681B6818460C37BD465DF80A
:1030E000047B704780B400AF044B1B6803F00C03F3
:1030F0001846BD465DF8047B704700BF08300D40A0
:1031000080B485B000AF78600123FB6006E00C4B13
:103110001B68BB60BB6803F08003FB60FB68002B8F
:10312000F5D1BB6823F00C03BB600549BA687B6826
:1031300013430B601437BD465DF8047B704700BF36
:1031400008300D4080B483B000AF1A4B1B683B6061
:103150003B6803F070031B093B603B68042B1FD8DE
:1031600001A252F823F000BF9B31200095312000CE
:103170008D312000853120007D3120004FF4007317
:103180007B6010E04FF4C0737B600CE04FF4807301
:103190007B6008E080237B6005E040237B6002E0E9
:1031A00040237B6000BF7B6818460C37BD465DF846
:1031B000047B704714300D4080B483B000AF114BD6
:1031C0001B683B603B6803F46073DB093B603B6852
:1031D000012B06D0012B07D3042B08D120237B60C1
:1031E00008E008237B6005E010237B6002E02023D9
:1031F0007B6000BF7B6818460C37BD465DF8047BDA
:10320000704700BF14300D4080B485B000AF7860C7
:103210007B68134A934210D0114A934203D8114A53
:10322000934207D012E0104A934209D00F4A9342CA
:1032300009D00BE01023FB600AE01123FB6007E0DC
:103240001223FB6004E01323FB6001E0002300E095
:10325000FB6818461437BD465DF8047B704700BF15
:1032600000A00D4000900D4000B00D4000C00D408A
:1032700080B485B000AFF8600B467A60FB72FB68E3
:1032800003F5806319467B6803F00103002B06D029
:10329000FB6803F580631A68FB7A134306E0FB685A
:1032A00003F580631B68FA7AD24313400B60FB6816
:1032B00003F5846319467B6803F00203002B06D0F4
:1032C000FB6803F584631A68FB7A134306E0FB6826
:1032D00003F584631B68FA7AD24313400B601437FA
:1032E000BD465DF8047B704780B485B000AF786060
:1032F0000B46FB70FB78012202FA03F3FB707B683C
:1033000003F580631B68FB607B6803F584631B68BF
:10331000BB60FA78FB681340002B14BF0123002325
:10332000DBB21946FA78BB681340002B01D00223A8
:1033300000E000230B4318461437BD465DF8047BBC
:10334000704700BF80B485B000AFF8600B467A606C
:10335000FB72FB6803F5816319467B6803F0010388
:10336000002B06D0FB6803F581631A68FB7A1343D0
:1033700006E0FB6803F581631B68FA7AD2431340C9
:103380000B60FB6803F2044319467B6803F00203F9
:10339000002B06D0FB6803F204431A68FB7A134340
:1033A00006E0FB6803F204431B68FA7AD243134039
:1033B0000B60FB6803F20C4319467B6803F00403BF
:1033C000002B06D0FB6803F20C431A68FB7A134308
:1033D00006E0FB6803F20C431B68FA7AD243134001
:1033E0000B601437BD465DF8047B704780B487B02E
:1033F00000AF78600B46FB70FB78012202FA03F302
:10340000FB707B6803F581631B687B617B6803F25B
:1034100004431B683B617B6803F20C431B68FB6041
:10342000FA787B691340002B14BF01230023DBB221
:103430001946FA783B691340002B01D0022300E0C3
:10344000002341EA0302F978FB680B40002B01D00E
:10345000042300E00023134318461C37BD465DF8E3
:10346000047B704780B483B000AF78600B46FB707C
:103470007B6803F5826319467B6803F582631A68EB
:10348000FB7813430B600C37BD465DF8047B704737
:1034900080B483B000AF78600B46FB707B6803F5A7
:1034A000826319467B6803F582631B68FA78D2430E
:1034B00013400B600C37BD465DF8047B704700BFBE
:1034C00080B483B000AF78600B46FB70FB78002BB4
:1034D00004D07B6803F583631B6803E07B6803F219
:1034E00014431B6818460C37BD465DF8047B7047D3
:1034F00080B483B000AF78600B46FB707B6803F24A
:103500001C431A46FB7813600C37BD465DF8047BFC
:10351000704700BF80B582B000AF786039607868CE
:10352000FFF772FE78607868396800F0ABFF786862
:1035300001F072F80837BD4680BD00BF80B582B08B
:1035400000AF78607868FFF75FFE7860786801F018
:10355000ADF8786800F0C8FF0837BD4680BD00BFF1
:1035600080B483B000AF78600B46FB70FB789B00A3
:103570001A467B6813441B6818460C37BD465DF835
:10358000047B704780B483B000AF78600B46FB705B
:103590001346BB70FB789B001A467B6813441A469F
:1035A000BB7813600C37BD465DF8047B704700BFE5
:1035B00080B582B000AF78600B46FB70FB7878680E
:1035C00019460022FFF754FEFB787868194600225E
:1035D00001F0A2FA0837BD4680BD00BF80B582B0B9
:1035E00000AF78600B46FB70FB78786819460122C3
:1035F000FFF73EFEFB7878681946002201F08CFA4E
:103600000837BD4680BD00BF80B582B000AF78608E
:103610000B46FB70FB78786819460222FFF728FEFC
:10362000FB7878681946002201F076FA0837BD4623
:1036300080BD00BF80B582B000AF78600B46FB70E4
:10364000FB78786819460222FFF712FEFB7878684B
:103650001946002201F060FA0837BD4680BD00BF60
:1036600080B582B000AF78600B46FB70FB7878685D
:1036700019460222FFF7FCFDFB7878681946002204
:1036800001F04AFA0837BD4680BD00BF80B582B060
:1036900000AF78600B46FB70FB7878681946022211
:1036A000FFF7E6FDFB7878681946002201F034FA4E
:1036B0000837BD4680BD00BF80B582B000AF7860DE
:1036C0000B46FB70FB78786819460222FFF7D0FDA5
:1036D000FB7878681946082201F01EFA0837BD46C3
:1036E00080BD00BF80B487B000AFF8600B467A6041
:1036F000FB7200237B61FB681D4A934201D10023CA
:103700007B61FB681B4A934201D108237B61FB6804
:10371000194A934201D110237B61FB68174A9342F7
:1037200001D118237B61FA7A7B6902FA03F33B61CA
:103730007B68012B0BD1FB6803F204731946FB680D
:1037400003F204731A683B6913430B600BE0FB68D8
:1037500003F204731946FB6803F204731A683B69A9
:10376000DB4313400B601C37BD465DF8047B70479C
:1037700000900D4000A00D4000B00D4000C00D4075
:1037800080B485B000AF78600B46FB700023FB600F
:103790007B68174A934201D10023FB607B68154A7E
:1037A000934201D10823FB607B68134A934201D105
:1037B0001023FB607B68114A934201D11823FB6000
:1037C000FA78FB6813441A4601239340BB607B6878
:1037D00003F204731A68BB681340002B01D0012365
:1037E00000E0002318461437BD465DF8047B70479F
:1037F00000900D4000A00D4000B00D4000C00D40F5
:1038000080B485B000AF78600B46FB700023FB608E
:103810007B68164A934201D10023FB607B68144AFF
:10382000934201D10823FB607B68124A934201D185
:103830001023FB607B68104A934201D11823FB6080
:10384000FA78FB6802FA03F3BB607B6803F5E26376
:1038500019467B6803F5E2631A68BB6813430B6083
:103860001437BD465DF8047B704700BF00900D40E3
:1038700000A00D4000B00D4000C00D4080B485B0E8
:1038800000AF78600B46FB700023FB607B68164A34
:10389000934201D10023FB607B68144A934201D11B
:1038A0000823FB607B68124A934201D11023FB601E
:1038B0007B68104A934201D11823FB60FA78FB68B9
:1038C00002FA03F3BB607B6803F5E26319467B6889
:1038D00003F5E2631A68BB68DB4313400B601437DF
:1038E000BD465DF8047B704700900D4000A00D4080
:1038F00000B00D4000C00D4080B485B000AF7860CE
:103900000B46FB700023FB607B68184A934201D191
:103910000023FB607B68164A934201D10823FB60B9
:103920007B68144A934201D11023FB607B68124AE2
:10393000934201D11823FB60FB78002B08D07B68F1
:1039400003F5E3631A68FB6822FA03F3DBB207E0CE
:103950007B6803F5E4631A68FB6822FA03F3DBB2C1
:1039600018461437BD465DF8047B704700900D4043
:1039700000A00D4000B00D4000C00D4080B485B0E7
:1039800000AF78600B46FB700023FB607B68164A33
:10399000934201D10023FB607B68144A934201D11A
:1039A0000823FB607B68124A934201D11023FB601D
:1039B0007B68104A934201D11823FB60FA78FB68B8
:1039C00002FA03F3BB607B6803F5E36319467B6887
:1039D00003F5E3631A68BB6813430B601437BD46F5
:1039E0005DF8047B704700BF00900D4000A00D40C3
:1039F00000B00D4000C00D4080B483B000AF7860CF
:103A00000549054B1A687B6813430B600C37BD46AC
:103A10005DF8047B704700BF94200D4080B483B0F4
:103A200000AF78600549054B1A687B68DB4313409B
:103A30000B600C37BD465DF8047B704794200D4049
:103A400080B483B000AF786039607B680C3318466F
:103A50007B680C331A68396840F201130B4013433A
:103A600003600C37BD465DF8047B704780B483B0BB
:103A700000AF786039607B680C3318467B680C3384
:103A80001A68396840F201130B40DB4313400360AE
:103A90000C37BD465DF8047B704700BF80B483B02F
:103AA00000AF786039607B680C331A467B680C3352
:103AB0001B6823F4807323F0010313607B683A686A
:103AC000120E1A607B6804331A463B68DBB243F47B
:103AD000007313607B6808331A463B681B0ADBB22D
:103AE00043F4007313600C37BD465DF8047B7047E8
:103AF00080B485B000AFF860B9601346FB71BA6856
:103B000044F240031340BB60FB680C331946FB7959
:103B1000002B05D0FB680C331A68BB68134305E023
:103B2000FB680C331A68BB68DB4313400B60143727
:103B3000BD465DF8047B704780B485B000AFF86087
:103B4000B9601346FB71BA6842F220031340BB60B0
:103B5000FB680C331946FB79002B05D0FB680C334E
:103B60001A68BB68134305E0FB680C331A68BB682E
:103B7000DB4313400B601437BD465DF8047B704790
:103B800080B485B000AFF860B9607A60BA6840F67A
:103B90000C431340BB60FB680C331846FB680C33C6
:103BA0001A68BB68DB431A407968BB680B40134353
:103BB00003601437BD465DF8047B704780B485B060
:103BC00000AFF860B9601346FB71BA6840F2022397
:103BD0001340BB60FB680C331946FB79002B05D002
:103BE000FB680C331A68BB68134305E0FB680C33B1
:103BF0001A68BB68DB4313400B601437BD465DF8A1
:103C0000047B704780B485B000AFF860B96013469C
:103C1000FB71BB68DBB2002B15D0FB79002B09D000
:103C2000FB6804331A46FB6804331B6843F0400307
:103C3000136008E0FB6804331A46FB6804331B6812
:103C400023F040031360BB6803F47F43002B15D0BF
:103C5000FB79002B09D0FB6808331A46FB68083350
:103C60001B6843F04003136008E0FB6808331A4602
:103C7000FB6808331B6823F0400313601437BD460C
:103C80005DF8047B704700BF80B485B000AFF8607A
:103C9000B9607A60BB68DBB2002B04D0FB683833B4
:103CA0001A467B681360BB6803F47F43002B04D083
:103CB000FB683C331A467B6813601437BD465DF8D9
:103CC000047B704780B483B000AF786039603B6894
:103CD000FF2B03D17B6838331B6802E07B683C33E1
:103CE0001B6818460C37BD465DF8047B704700BF63
:103CF00080B485B000AFF860B9607A60BB68DBB2B1
:103D0000002B04D0FB6840331A467B681360BB6805
:103D100003F47F43002B04D0FB6844331A467B68CE
:103D200013601437BD465DF8047B704780B483B0E0
:103D300000AF786039603B68FF2B03D17B6840336C
:103D40001B6802E07B6844331B6818460C37BD468D
:103D50005DF8047B704700BF80B485B000AFF860A9
:103D6000B9607A60BB68DBB2002B04D0FB682833F3
:103D70001A467B681360BB6803F47F43002B04D0B2
:103D8000FB682C331A467B6813601437BD465DF818
:103D9000047B704780B483B000AF786039603B68C3
:103DA000FF2B03D17B6828331B6802E07B682C3330
:103DB0001B6818460C37BD465DF8047B704700BF92
:103DC00080B483B000AF786039603B68FF2B03D1CB
:103DD0007B6848331B6802E07B684C331B681846DD
:103DE0000C37BD465DF8047B704700BF80B485B0DA
:103DF00000AFF860B9607A60BB68DBB2002B04D01A
:103E0000FB6830331A467B681360BB6803F47F435A
:103E1000002B04D0FB6834331A467B6813601437D8
:103E2000BD465DF8047B704780B483B000AF786016
:103E300039603B68FF2B03D17B6830331B6802E09D
:103E40007B6834331B6818460C37BD465DF8047B2D
:103E5000704700BF80B584B000AFF860B9607A6089
:103E6000FB68184A93420DD0FB68174A934207D06B
:103E7000FB68164A934201D1272304E0332302E072
:103E8000252300E02323FB60BB68DBB2002B06D0B8
:103E9000F868796800F0F6FAF86800F0BDFBBB68D6
:103EA00003F47F43002B0AD0FB680133184679687E
:103EB00000F0E8FAFB680133184600F0ADFB10375C
:103EC000BD4680BD000003400010034000200340B9
:103ED00080B582B000AF786039607B68174A934242
:103EE0000DD07B68164A934207D07B68154A9342EF
:103EF00001D1272304E0332302E0252300E023231C
:103F00007B603B68DBB2002B05D0786800F0CEFB0D
:103F1000786800F0E9FA3B6803F47F43002B09D08E
:103F20007B680133184600F0C1FB7B6801331846FB
:103F300000F0DAFA0837BD4680BD00BF000003403C
:103F4000001003400020034080B483B000AF7860CD
:103F500039607B68183319467B6818331A683B68E8
:103F600013430B600C37BD465DF8047B704700BF00
:103F700080B483B000AF786039607B68183319462D
:103F80007B6818331A683B68DB4313400B600C37BF
:103F9000BD465DF8047B704780B483B000AF7860A5
:103FA0000B46FB70FB78002B03D07B6820331B682B
:103FB00002E07B681C331B6818460C37BD465DF871
:103FC000047B704780B483B000AF786039607B6851
:103FD00024331A463B6813600C37BD465DF8047BFA
:103FE000704700BF80B483B000AF786039607B68F1
:103FF00010331A463B6813600C37BD465DF8047BEE
:10400000704700BF80B584B000AF78600B46FB708E
:1040100000F036F8FB78002B02D00E4BFB6001E07D
:104020000D4BFB60FA6813469B0013449B001A4635
:104030007B681344591EFA6813469B0013449B0087
:10404000B1FBF3F3013BBB60044ABB68136010375C
:10405000BD4680BD801A0600A08601000C0002400B
:1040600080B582B000AF0346FB7100F017F8034A39
:10407000FB7913600837BD4680BD00BF00080240D1
:1040800080B400AF044A044B1B6843F01003136074
:10409000BD465DF8047B70472000024080B400AF4D
:1040A000064A064B1B6843F020031360044B0122B1
:1040B0001A60BD465DF8047B704700BF20000240D7
:1040C0000408024080B400AF044A044B1B6823F08C
:1040D00010031360BD465DF8047B7047200002406A
:1040E00080B400AF064B00221A60064A054B1B68DD
:1040F00023F020031360BD465DF8047B704700BFCA
:10410000040802402000024080B582B000AF786011
:104110001820796800F0B6F9182000F07DFA083709
:10412000BD4680BD80B500AF182000F0BFFA182052
:1041300000F0DAF980BD00BF80B400AF034B01226C
:104140001A60BD465DF8047B704700BF1000024056
:1041500080B400AF044A044B1B6843F001031360B2
:10416000BD465DF8047B70470C08024080B483B004
:1041700000AF78600549054B1A687B6813430B60F4
:104180000C37BD465DF8047B704700BF0C08024049
:1041900080B400AF034B00221A60BD465DF8047B7B
:1041A000704700BF1000024080B400AF044A044BC7
:1041B0001B6823F001031360BD465DF8047B704764
:1041C0000C08024080B483B000AF78600549054B0D
:1041D0001A687B68DB4313400B600C37BD465DF803
:1041E000047B70470C08024080B483B000AF0346E4
:1041F000FB71FB79002B07D00A4B1B68002B14BF07
:1042000001230023DBB206E0074B1B68002B14BF21
:1042100001230023DBB218460C37BD465DF8047B52
:10422000704700BF180002401400024080B483B001
:1042300000AF0346FB71FB79002B07D00A4B1B68CC
:10424000002B14BF01230023DBB206E0074B1B68E1
:10425000002B14BF01230023DBB218460C37BD46E8
:104260005DF8047B704700BF14080240100802404C
:1042700080B483B000AF0346FB71FB79002B02D002
:10428000054B1B6801E0054B1B6818460C37BD4603
:104290005DF8047B704700BF14080240100802401C
:1042A00080B400AF044B01221A60044B01221A6053
:1042B000BD465DF8047B70471C00024018000240B8
:1042C00080B400AF034B01221A60BD465DF8047B49
:1042D000704700BF1808024080B483B000AF786018
:1042E000034A7B6813600C37BD465DF8047B70475A
:1042F0001808024080B483B000AF03460A46FB7141
:104300001346BB710549FB795A00BB7913430B6017
:104310000C37BD465DF8047B704700BF00000240CB
:1043200080B400AF064B1B6803F00103002B01D0E3
:10433000012300E000231846BD465DF8047B70476A
:104340000400024080B400AF064B1B6803F040033A
:10435000002B01D0012300E000231846BD465DF884
:10436000047B70470400024080B483B000AF7860E3
:10437000034A7B6813600C37BD465DF8047B7047C9
:104380000400024080B483B000AF0D4B1B687B601B
:104390007B6803F00103002B01D0002309E07B6858
:1043A00003F01203002B03D07B6803F01C0300E032
:1043B000002318460C37BD465DF8047B704700BFEC
:1043C0000400024080B483B000AF0346FB71044A8E
:1043D000FB7913600C37BD465DF8047B704700BF66
:1043E0000800024080B400AF034B1B681846BD466E
:1043F0005DF8047B704700BF0800024080B400AF46
:10440000034B1B681846BD465DF8047B704700BF30
:104410000408024080B483B000AF0346FB71044A35
:10442000FB7913600C37BD465DF8047B704700BF15
:104430000808024080B400AF034B1B681846BD4615
:104440005DF8047B704700BF0808024080B400AFED
:10445000FEE700BF80B500AF02F052F80346002B24
:1044600014BF01230023DBB2184680BD80B500AF26
:1044700002F038F80346002B14BF01230023DBB2FF
:10448000184680BD80B485B000AF78603960144BA9
:104490001B68144A934218D0114B1B68BB60002361
:1044A000FB600CE0FB689A00BB6813441B6819466C
:1044B0000C4AFB6842F82310FB680133FB60FB6881
:1044C000A22BEFD9064B074A1A6006497B683A6867
:1044D00041F823201437BD465DF8047B704700BFC8
:1044E00008ED00E00040002080B483B000AF7860A9
:1044F000044A7B68044942F823100C37BD465DF836
:10450000047B7047004000204D44200080B483B0FD
:1045100000AF7860074A08497B6851F8233043F0C0
:10452000BF6343F4003313600C37BD465DF8047B72
:10453000704700BF0CED00E0EC79200080B483B040
:1045400000AF0E4B1B6803F4E0633B6000237B600D
:104550000AE00B4A7B6852F823203B689A4200D15C
:1045600005E07B6801337B607B68072BF1D97B68B2
:1045700018460C37BD465DF8047B70470CED00E033
:10458000EC79200080B485B000AF78600B46FB70FA
:104590007B689B08134A52F823301B68FB607B68DA
:1045A00003F00303DB001A46FF239340DB431A4664
:1045B000FB681340FB60FB787A6802F00302D200CC
:1045C00093401A46FB681343FB607B689B08054ACF
:1045D00052F823301A46FB6813601437BD465DF865
:1045E000047B70470C7A200080B483B000AF786001
:1045F0007B689B08074A52F823301B687A6802F0F0
:104600000302D200D340DBB218460C37BD465DF83A
:10461000047B70470C7A200080B483B000AF7860D0
:104620007B68042B06D11E4A1D4B1B6843F4803364
:1046300013602FE07B68052B06D1194A184B1B68C5
:1046400043F40033136025E07B68062B06D1144A3F
:10465000134B1B6843F4802313601BE07B680F2B14
:1046600006D1104A0F4B1B6843F00203136011E0A0
:104670007B680F2B0ED97B68103B5B090A4A52F806
:10468000233019467B68103B03F01F03012202FA16
:1046900003F30B600C37BD465DF8047B704700BF29
:1046A00024ED00E010E000E0B07A200080B483B098
:1046B00000AF78607B68042B06D11E4A1D4B1B6837
:1046C00023F4803313602FE07B68052B06D1194A51
:1046D000184B1B6823F40033136025E07B68062B1E
:1046E00006D1144A134B1B6823F4802313601BE08C
:1046F0007B680F2B06D1104A0F4B1B6823F0020377
:10470000136011E07B680F2B0ED97B68103B5B09AF
:104710000A4A52F8233019467B68103B03F01F0306
:10472000012202FA03F30B600C37BD465DF8047BEF
:10473000704700BF24ED00E010E000E0C47A2000E4
:1047400080B483B000AF78607B68022B06D1194A31
:10475000184B1B6843F00043136025E07B680E2B69
:1047600006D1144A134B1B6843F0805313601BE0BF
:104770007B680F2B06D10F4A0E4B1B6843F08063FA
:10478000136011E07B680F2B0ED97B68103B5B092F
:10479000094A52F8233019467B68103B03F01F0387
:1047A000012202FA03F30B600C37BD465DF8047B6F
:1047B000704700BF04ED00E0D87A200080B483B0D9
:1047C00000AF78607B680E2B06D1144A134B1B6830
:1047D00043F0006313601BE07B680F2B06D10F4A88
:1047E0000E4B1B6843F00073136011E07B680F2BC6
:1047F0000ED97B68103B5B09094A52F823301946F1
:104800007B68103B03F01F03012202FA03F30B60E5
:104810000C37BD465DF8047B704700BF04ED00E037
:10482000EC7A200080B582B000AF7860786801F043
:1048300075FE0837BD4680BD80B500AF01F072FE41
:104840000346184680BD00BF80B400AF044A044B45
:104850001B6843F001031360BD465DF8047B70479D
:1048600098200D4080B400AF044A044B1B6823F02D
:1048700001031360BD465DF8047B704798200D402E
:1048800080B400AF064B1B6803F00103002B01D07E
:10489000012300E000231846BD465DF8047B704705
:1048A00098200D4080B489B000AFF8600B467A6064
:1048B000FB72254BFB610023BB613CE0FA7ABB69CC
:1048C00042FA03F303F001037B617B69002B2FD0D5
:1048D000FB681E4A934213D01C4A934203D81C4AD9
:1048E000934207D01EE01B4A93420FD01A4A9342CC
:1048F00012D017E0194ABB6952F82330FB6114E06B
:10490000174ABB6952F82330FB610EE0154ABB69B8
:1049100052F82330FB6108E0134ABB6952F8233098
:10492000FB6102E0084BFB6100BFFB697A681A601B
:10493000BB690133BB61BB69072BBFD92437BD46B7
:104940005DF8047B704700BF00400D4000A00D40A3
:1049500000900D4000B00D4000C00D40807B200055
:10496000A07B2000C07B2000E07B200080B487B0CB
:1049700000AFF8600B467A60FB7200237B61FB6836
:10498000614A934237D0604A934203D85F4A9342C8
:1049900007D0AEE05E4A934257D05E4A93427ED043
:1049A000A7E0FB7A012B01D100237B61FB7A022B6C
:1049B00001D101237B61FB7A042B01D102237B61AE
:1049C000FB7A082B01D103237B61FB7A102B01D1E9
:1049D00004237B61FB7A202B01D105237B61FB7AC9
:1049E000402B01D106237B61FB7A802B02D1072368
:1049F0007B6181E080E0FB7A012B01D108237B61A0
:104A0000FB7A022B01D109237B61FB7A042B01D1B4
:104A10000A237B61FB7A082B01D10B237B61FB7A94
:104A2000102B01D10C237B61FB7A202B01D10D23AC
:104A30007B61FB7A402B01D10E237B61FB7A802BBB
:104A400002D10F237B6157E056E0FB7A012B01D1A5
:104A500010237B61FB7A022B01D111237B61FB7A4E
:104A6000042B01D112237B61FB7A082B01D1132384
:104A70007B61FB7A102B01D114237B61FB7A202B05
:104A800001D115237B61FB7A402B01D116237B6179
:104A9000FB7A802B02D117237B612DE02CE0FB7A7F
:104AA000012B01D118237B61FB7A022B01D1192341
:104AB0007B61FB7A042B01D11A237B61FB7A082BE3
:104AC00001D11B237B61FB7A102B01D11C237B615D
:104AD000FB7A202B01D11D237B61FB7A402B01D176
:104AE0001E237B61FB7A802B02D11F237B6103E0B5
:104AF00002E000237B6100BF7B687A691A601C3783
:104B0000BD465DF8047B704700A00D4000900D404D
:104B100000B00D4000C00D4080B489B000AFF86017
:104B20000B467A60FB72254BFB610023BB613CE0C6
:104B3000FA7ABB6942FA03F303F001037B617B69F4
:104B4000002B2FD0FB681E4A934213D01C4A93427D
:104B500003D81C4A934207D01EE01B4A93420FD051
:104B60001A4A934212D017E0194ABB6952F823300F
:104B7000FB6114E0174ABB6952F82330FB610EE079
:104B8000154ABB6952F82330FB6108E0134ABB6940
:104B900052F82330FB6102E0114BFB6100BFFB695F
:104BA0007A681A60BB690133BB61BB69072BBFD947
:104BB0002437BD465DF8047B704700BF00400D40C0
:104BC00000A00D4000900D4000B00D4000C00D4011
:104BD000007B2000207B2000407B2000607B2000A9
:104BE00080400D4080B485B000AF78600B46FB700C
:104BF000634BFB607B68634A934237D0614A9342C0
:104C000003D8614A934207D0AEE0604A934257D03E
:104C10005F4A93427ED0A7E0FB78012B01D1584B2D
:104C2000FB60FB78022B01D15A4BFB60FB78042B15
:104C300001D1594BFB60FB78082B01D1574BFB602E
:104C4000FB78102B01D1564BFB60FB78202B01D158
:104C5000544BFB60FB78402B01D1534BFB60FB783E
:104C6000802B02D1514BFB6081E080E0FB78012B6F
:104C700001D14F4BFB60FB78022B01D14D4BFB6008
:104C8000FB78042B01D14C4BFB60FB78082B01D146
:104C90004A4BFB60FB78102B01D1494BFB60FB7842
:104CA000202B01D1474BFB60FB78402B01D1464BB9
:104CB000FB60FB78802B02D1444BFB6057E056E051
:104CC000FB78012B01D1424BFB60FB78022B01D119
:104CD000404BFB60FB78042B01D13F4BFB60FB7822
:104CE000082B01D13D4BFB60FB78102B01D13C4BD5
:104CF000FB60FB78202B01D13A4BFB60FB78402B0B
:104D000001D1394BFB60FB78802B02D1374BFB6024
:104D10002DE02CE0FB78012B01D1354BFB60FB78BB
:104D2000022B01D1334BFB60FB78042B01D1324BBA
:104D3000FB60FB78082B01D1304BFB60FB78102B1C
:104D400001D12F4BFB60FB78202B01D12D4BFB6059
:104D5000FB78402B01D12C4BFB60FB78802B02D1E0
:104D60002A4BFB6003E002E0054BFB6000BFFB68E1
:104D70001B6818461437BD465DF8047B704700BFBA
:104D800080400D4000A00D4000900D4000B00D404F
:104D900000C00D4084400D4088400D408C400D40C7
:104DA00090400D4094400D4098400D409C400D4077
:104DB000A0400D40A4400D40A8400D40AC400D4027
:104DC000B0400D40B4400D40B8400D40BC400D40D7
:104DD000C0400D40C4400D40C8400D40CC400D4087
:104DE000D0400D40D4400D40D8400D40DC400D4037
:104DF000E0400D40E4400D40E8400D40EC400D40E7
:104E0000F0400D40F4400D40F8400D40FC400D4096
:104E100080B582B000AF7860A1207968FFF732FBDF
:104E2000A120FFF7F9FB0837BD4680BD80B500AF74
:104E3000A120FFF73BFCA120FFF756FB80BD00BF80
:104E400080B483B000AF0E4B1B687B600D4B1B68BA
:104E50001B027A6813437B600B4B1B681B047A6848
:104E600013437B60094B1B681B067A6813437B6006
:104E70007B6818460C37BD465DF8047B704700BF61
:104E800040500D4044500D4048500D404C500D4096
:104E900080B485B000AF786039600A4B1B68FB6056
:104EA000FB6823F03F03FB607A683B681343FA68B2
:104EB0001343FB60034AFB6813601437BD465DF87B
:104EC000047B704754500D4080B483B000AF7860CD
:104ED00000BF0E4B1B6803F00103002BF9D00C4AF6
:104EE0007B681B0E13600B4A7B681B0CDBB21360E4
:104EF000094A7B681B0ADBB21360084A7B68DBB295
:104F000013600C37BD465DF8047B704750500D4070
:104F10004C500D4048500D4044500D4040500D4005
:104F200080B483B000AF0E4B1B687B600D4B1B68D9
:104F30001B027A6813437B600B4B1B681B047A6867
:104F400013437B60094B1B681B067A6813437B6025
:104F50007B6818460C37BD465DF8047B704700BF80
:104F60005C500D4060500D4064500D4068500D4045
:104F700080B483B000AF084B1B6803F00103002B23
:104F800014BF01230023FB71FB7918460C37BD4683
:104F90005DF8047B704700BF58500D4080B483B06B
:104FA00000AF074B1B687B607B6823F001037B60CD
:104FB000034A7B6813600C37BD465DF8047B70477D
:104FC00058500D4080B586B000AF03463A60FB7183
:104FD0000B46BB71BB7983F00103DBB2002B07D01A
:104FE000244B1B6843F400133B61224A3B69136066
:104FF000204B1B683B613A691F4B13403B61FB79B7
:1050000083F00103DBB2002B03D03B6943F08073D4
:105010003B61BB79002B02D04FF4803300E00023CA
:10502000BB603A69BB6813433B613A693B68134311
:105030003B61104A3B691360104B1B687B61002386
:10504000FB6008E0102000F0DFF80C4B1B687B6170
:10505000FB680133FB607B6903F48032BB689A42D2
:1050600004D0FB684FF6FE729342EBD91837BD4669
:1050700080BD00BF00200D40F8FFFEFE04200D4063
:1050800080B485B000AF1F4B1B68BB60BB6803F0EA
:1050900007037B600023FB607B68072B2AD801A2F3
:1050A00052F823F0C5502000CB502000D1502000F2
:1050B000D7502000DD502000E3502000E9502000B0
:1050C000EF502000104BFB6014E0104BFB6011E030
:1050D0000F4BFB600EE00F4BFB600BE00E4BFB60D9
:1050E00008E00E4BFB6005E00D4BFB6002E00D4B52
:1050F000FB6000BFFB6818461437BD465DF8047BB3
:10510000704700BF04200D400048E8010024F4006F
:1051100000127A0000093D0080841E0040420F000A
:1051200020A1070090D0030080B485B000AF786064
:10513000094B1B68FB60FB6823F4E063FB607B6842
:105140001B02FA681343FB60034AFB6813601437C1
:10515000BD465DF8047B704700200D4080B485B0EB
:1051600000AF204B1B68BB60BB6803F4E0631B0A05
:105170007B600023FB607B68072B2BD801A252F8D1
:1051800023F000BFA5512000AB512000B1512000F9
:10519000B7512000BD512000C3512000C95120004B
:1051A000CF512000104BFB6014E0104BFB6011E06E
:1051B0000F4BFB600EE00F4BFB600BE00E4BFB60F8
:1051C00008E00E4BFB6005E00D4BFB6002E00D4B71
:1051D000FB6000BFFB6818461437BD465DF8047BD2
:1051E000704700BF04200D400048E8010024F4008F
:1051F00000127A0000093D0080841E0040420F002A
:1052000020A1070090D0030001387FF4FDAF704764
:1052100080B400AF014B08221A60FEE774200D40F5
:1052200080B500AF01F074F980BD00BF80B582B0D9
:1052300000AF324B1B687B607B6803F00703002BD9
:105240000CBF01230023FB707B6803F4E063002B99
:105250000CBF01230023BB70FB78002B02D1BB786D
:10526000002B18D0264B1B687B60FB78002B01D0ED
:10527000012300E000237A6813437B60BB78002B96
:1052800002D04FF4807300E000237A6813437B6000
:105290001B4A7B6813601B4A1A4B1B6843F00403CC
:1052A000136001F035F9174A164B1B6823F004030D
:1052B0001360FB78002B02D1BB78002B1BD0104B66
:1052C0001B687B60FB78002B02D06FF0070301E0C6
:1052D0004FF0FF337A6813407B60BB78002B02D01D
:1052E0006FF4E06301E04FF0FF337A6813407B60B6
:1052F000034A7B6813600837BD4680BD04200D401B
:1053000000200D4010ED00E080B485B000AF786063
:105310007B681B0A03F00F03042B0BD07B681B0A6E
:1053200003F00F03042B05D07B681B0A03F00F0367
:10533000052B03D1104B1B68FB6002E00F4B1B6871
:10534000FB607B681B0A03F00F030D4A52F8232011
:105350007B6803F00F0302FA03F3BB60FA68BB68D3
:105360001340002B01D0012300E00023184614371E
:10537000BD465DF8047B70471C300D4018300D4071
:105380005C7C200080B485B000AF78607B681B0A2D
:1053900003F00F031D4A52F8233018467B681B0A9E
:1053A00003F00F03194A52F823301B687A6802F0A1
:1053B0000F02012101FA02F2134303600023FB6094
:1053C00002E0FB680133FB60FB680F2BF9D97B68B7
:1053D0001B0A03F00F030D4A52F8233018467B686E
:1053E0001B0A03F00F03094A52F823301B687A683E
:1053F00002F00F02012101FA02F2D24313400360CE
:105400001437BD465DF8047B704700BF487C200020
:1054100080B483B000AF78607B681B0A03F00F0391
:105420000C4A52F8233018467B681B0A03F00F031E
:10543000084A52F823301B687A6802F00F020121F3
:1054400001FA02F2134303600C37BD465DF8047B9A
:10545000704700BF007C200080B483B000AF78604C
:105460007B681B0A03F00F030C4A52F823301846DE
:105470007B681B0A03F00F03084A52F823301B68AD
:105480007A6802F00F02012101FA02F2D2431340BE
:1054900003600C37BD465DF8047B7047007C20003C
:1054A00080B483B000AF78607B681B0A03F00F0301
:1054B0000C4A52F8233018467B681B0A03F00F038E
:1054C000084A52F823301B687A6802F00F02012163
:1054D00001FA02F2134303600C37BD465DF8047B0A
:1054E000704700BF187C200080B483B000AF7860A4
:1054F0007B681B0A03F00F030C4A52F8233018464E
:105500007B681B0A03F00F03084A52F823301B681C
:105510007A6802F00F02012101FA02F2D24313402D
:1055200003600C37BD465DF8047B7047187C200093
:1055300080B483B000AF78607B681B0A03F00F0370
:105540000C4A52F8233018467B681B0A03F00F03FD
:10555000084A52F823301B687A6802F00F020121D2
:1055600001FA02F2134303600C37BD465DF8047B79
:10557000704700BF307C200080B483B000AF7860FB
:105580007B681B0A03F00F030C4A52F823301846BD
:105590007B681B0A03F00F03084A52F823301B688C
:1055A0007A6802F00F02012101FA02F2D24313409D
:1055B00003600C37BD465DF8047B7047307C2000EB
:1055C00080B483B000AF7860034A7B6813600C3707
:1055D000BD465DF8047B704758200D4080B483B011
:1055E00000AF074B1B687B607B6803F003037B60A5
:1055F0007B6818460C37BD465DF8047B704700BFDA
:1056000058200D4080B483B000AF074B1B687B600F
:105610007B6843F001037B60034A7B6813600C37AF
:10562000BD465DF8047B704780200D4080B483B098
:1056300000AF786039607B682C3319467B682C3367
:105640001B6823F086023B6813430B600C37BD4692
:105650005DF8047B704700BF80B483B000AF786012
:105660007B682C331B6803F0860318460C37BD4655
:105670005DF8047B704700BF80B485B000AFF86070
:10568000B9607A60FB6834331946BA687B681343A3
:105690000B601437BD465DF8047B704780B487B05B
:1056A00000AFF860B9607A60FB6834331B687B61D7
:1056B0007B6903F00702BB681A607B6903F038025C
:1056C0007B681A601C37BD465DF8047B704700BFDD
:1056D00080B586B000AFF860B9607A603B60F8686A
:1056E00000F08EF87B681A01BB689A420CD9FB68FF
:1056F00030331A46FB6830331B6843F020031360D5
:105700007B685B087B6008E0FB6830331A46FB6807
:1057100030331B6823F020031360BB68DA007B681A
:10572000B2FBF3F301335B087B61FB6824331A4659
:105730007B699B091360FB6828331A467B6903F079
:105740003F031360FB682C331A463B681360FB6809
:1057500018331A46002313601837BD4680BD00BFBA
:1057600080B487B000AFF860B9607A603B60FB68D6
:1057700024331B687B61FB6828331B683B61BB6873
:105780009A007B6999013B690B44B2FBF3F27B6899
:105790001A60FB6830331B6803F02003002B04D031
:1057A0007B681B685A007B681A60FB682C331B6897
:1057B00003F0EE023B681A601C37BD465DF8047BBF
:1057C000704700BF80B483B000AF78607B682C3333
:1057D0001A467B682C331B6843F0100313607B6808
:1057E00030331A467B6830331B6843F4407343F010
:1057F000010313600C37BD465DF8047B704700BFA2
:1058000080B483B000AF786000BF7B6818331B683A
:1058100003F00803002BF8D17B682C331A467B6811
:105820002C331B6823F0100313607B6830331A4657
:105830007B6830331B6823F4407323F0010313604B
:105840000C37BD465DF8047B704700BF80B483B061
:1058500000AF78607B682C331A467B682C331B685A
:1058600043F0100313600C37BD465DF8047B7047AE
:1058700080B483B000AF78607B682C331A467B68B5
:105880002C331B6823F0100313600C37BD465DF802
:10589000047B704780B483B000AF78600B46FB7028
:1058A000FB78002B09D07B6830331A467B68303395
:1058B0001B6843F00603136008E07B6830331A4628
:1058C0007B6830331B6843F0020313600C37BD461E
:1058D0005DF8047B704700BF80B483B000AF786090
:1058E0007B6830331A467B6830331B6823F006032D
:1058F00013600C37BD465DF8047B704780B483B0FD
:1059000000AF786039607B68303319467B6830338C
:105910001B6823F010023B6813430B600C37BD4635
:105920005DF8047B704700BF80B483B000AF78603F
:105930007B6830331B6803F0100318460C37BD46F4
:105940005DF8047B704700BF80B483B000AF78601F
:105950007B6818331B6803F01003002B0CBF012376
:105960000023DBB218460C37BD465DF8047B704758
:1059700080B483B000AF78607B6818331B6803F095
:105980002003002B0CBF01230023DBB218460C3789
:10599000BD465DF8047B704780B483B000AF78608B
:1059A0007B6818331B6803F01003002B02D17B685F
:1059B0001B6801E04FF0FF3318460C37BD465DF819
:1059C000047B704780B483B000AF786000BF7B6811
:1059D00018331B6803F01003002BF8D17B681B6899
:1059E00018460C37BD465DF8047B704780B483B021
:1059F00000AF78600B46FB707B6818331B6803F0C0
:105A00002003002B04D17B68FA781A60012300E0A0
:105A1000002318460C37BD465DF8047B704700BF75
:105A200080B483B000AF78600B46FB7000BF7B682A
:105A300018331B6803F02003002BF8D17B68FA7839
:105A40001A600C37BD465DF8047B704780B483B0A4
:105A500000AF78600B46FB707B682C331A46FB78EE
:105A6000002B05D07B682C331B6843F0010304E056
:105A70007B682C331B6823F0010313600C37BD4691
:105A80005DF8047B704700BF80B483B000AF7860DE
:105A90007B6818331B6803F00803002B14BF012335
:105AA0000023DBB218460C37BD465DF8047B704717
:105AB00080B584B000AF786039607B68084A934253
:105AC00001D1152300E01623FB60F8683968FEF762
:105AD000D9FCF868FEF7A0FD1037BD4680BD00BFB9
