:020000040800F2
:1000000000000120997C0008D97C0008D97C0008F8
:10001000D97C0008D97C0008D97C000800000000C9
:10002000000000000000000000000000D97C000873
:10003000D97C000800000000D97C0008D97C0008A9
:1000400055020008610200086D02000879020008EC
:1000500095020008A1020008AD020008B9020008DC
:10006000C5020008D1020008DD02000801030008F3
:100070000D030008190300082503000831030008D8
:100080003D0300084903000855030008D97C000817
:10009000D97C0008D97C0008D97C000891030008AD
:1000A0009D030008A9030008B5030008C103000868
:1000B000CD030008F903000819040008250400080E
:1000C000310400083D0400084904000855040008F4
:1000D0007904000885040008C5040008D10400085C
:1000E000DD040008E9040008110500081D050008EA
:1000F0002905000835050008410500084D050008E0
:100100005905000865050008710500087D0500080F
:100110008905000895050008A1050008AD0500083F
:10012000B9050008C5050008D1050008DD0500086F
:1001300000000000000000000000000000000000BF
:1001400000000000000000000000000000000000AF
:10015000000000000000000000000000000000009F
:10016000000000000000000000000000000000008F
:10017000000000000000000000000000000000007F
:10018000000000000000000000000000000000006F
:10019000000000000000000000000000000000005F
:1001A000000000000000000000000000000000004F
:1001B000000000000000000000000000000000003F
:1001C000000000000000000000000000000000002F
:1001D000000000000000000000000000000000001F
:0401E0005FF8E0F1F3
:1001E400F3890008000000201C0000201C000020EF
:1001F4001C03002080B400AFBD465DF8047B70474B
:1002040080B400AFFEE700BF80B400AFFEE700BFDC
:1002140080B400AFFEE700BF80B400AFFEE700BFCC
:1002240080B400AFBD465DF8047B704780B400AF76
:10023400BD465DF8047B704780B400AFBD465DF8F1
:10024400047B704780B400AFBD465DF8047B704703
:1002540080B400AFBD465DF8047B704780B400AF46
:10026400BD465DF8047B704780B400AFBD465DF8C1
:10027400047B704780B500AF022004F075FA034692
:10028400002B04D0022004F0CBFA04F045FA80BD20
:1002940080B400AFBD465DF8047B704780B400AF06
:1002A400BD465DF8047B704780B400AFBD465DF881
:1002B400047B704780B400AFBD465DF8047B704793
:1002C40080B400AFBD465DF8047B704780B400AFD6
:1002D400BD465DF8047B704780B500AF102002F086
:1002E400A7FC0346002B08D001F096FC102002F076
:1002F400C3FC07F01DFC01F089FC80BD80B400AF95
:10030400BD465DF8047B704780B400AFBD465DF820
:10031400047B704780B400AFBD465DF8047B704732
:1003240080B400AFBD465DF8047B704780B400AF75
:10033400BD465DF8047B704780B400AFBD465DF8F0
:10034400047B704780B400AFBD465DF8047B704702
:1003540080B400AFBD465DF8047B704780B400AF45
:10036400BD465DF8047B704780B400AFBD465DF8C0
:10037400047B704780B400AFBD465DF8047B7047D2
:1003840080B400AFBD465DF8047B704780B400AF15
:10039400BD465DF8047B704780B400AFBD465DF890
:1003A400047B704780B400AFBD465DF8047B7047A2
:1003B40080B400AFBD465DF8047B704780B400AFE5
:1003C400BD465DF8047B704780B500AF01F024FCA6
:1003D4004FF08040022106F08FFA0346002B06D02E
:1003E4004FF08040022106F0A3FA01F0B1FB01F0C6
:1003F4000DFC80BD80B500AF0548022106F07CFAF3
:100404000346002B03D00248022106F091FA80BD76
:100414000004004080B400AFBD465DF8047B704723
:1004240080B400AFBD465DF8047B704780B400AF74
:10043400BD465DF8047B704780B400AFBD465DF8EF
:10044400047B704780B400AFBD465DF8047B704701
:1004540080B500AF01F0E0FB0548012104F004FD84
:100464000346002B01D002F06DF901F0CFFB80BDF3
:100474000030014080B400AFBD465DF8047B704796
:1004840080B500AF01F0C8FB0C48202107F056F8F6
:100494000346002B05D00948202107F06BF802F031
:1004A40019FA0648802107F049F80346002B01D0C9
:1004B40002F004FA01F0AAFB80BD00BF003801403D
:1004C40080B400AFBD465DF8047B704780B400AFD4
:1004D400BD465DF8047B704780B400AFBD465DF84F
:1004E400047B704780B500AF01F096FB4FF40030F9
:1004F40002F09EFB0346002B05D04FF4003002F0BF
:10050400BBFB01F03DFF01F081FB80BD80B400AF77
:10051400BD465DF8047B704780B400AFBD465DF80E
:10052400047B704780B400AFBD465DF8047B704720
:1005340080B400AFBD465DF8047B704780B400AF63
:10054400BD465DF8047B704780B400AFBD465DF8DE
:10055400047B704780B400AFBD465DF8047B7047F0
:1005640080B400AFBD465DF8047B704780B400AF33
:10057400BD465DF8047B704780B400AFBD465DF8AE
:10058400047B704780B400AFBD465DF8047B7047C0
:1005940080B400AFBD465DF8047B704780B400AF03
:1005A400BD465DF8047B704780B400AFBD465DF87E
:1005B400047B704780B400AFBD465DF8047B704790
:1005C40080B400AFBD465DF8047B704780B400AFD3
:1005D400BD465DF8047B704780B400AFBD465DF84E
:1005E400047B704780B500AF114800214FF4BC7202
:1005F40007F0A4FB0E4B01225A7001F07DF900F0C4
:100604002DFC00F0DFFC07F03DF801F0A5FB0948E4
:1006140001F01AFB084807F083F80848084902F07B
:10062400E3F800F00FF800F02BFC0023184680BD1F
:100634001C000020FC000020690C0008AD09000823
:10064400510B000880B500AF02F00EF902F002F978
:1006540002F0DCF880BD00BF80B500AF02F0E8F81E
:1006640080BD00BF80B500AF104B93F82330002B42
:1006740000D11AE00D4BB3F8543001339AB20B4B4E
:10068400A3F85420094B4FF6FF72DA84074B00227B
:1006940083F82220054B002283F82820034B0022F4
:1006A40083F829207E2002F0E9F880BD1C00002098
:1006B40080B500AF1D4B93F84830002B08D11B4B7D
:1006C400B3F8583001339AB2184BA3F858202AE0F3
:1006D400164B93F82A30013B052B1BD801A252F884
:1006E40023F000BF010700081907000807070008E6
:1006F4000D070008190700081307000800F018F890
:1007040011E000F059F80EE000F07EF80BE000F084
:10071400F5F808E0054BB3F85A3001339AB2034BAD
:10072400A3F85A2000BFFFF78DFF80BD1C000020F6
:1007340080B500AF094B93F84830012B08D0074B24
:10074400B3F8583001339AB2044BA3F8582003E0AD
:1007540003480C2100F0C0FB80BD00BF1C0000203A
:100764006907000880B582B000AF114B7B607B68DD
:1007740002221A700F4B5A787B685A700D4B5B88B3
:10078400184600F0FBF803461A467B685A807B68DB
:100794001A1D084BE03319685B6811605360054B00
:1007A4000C2283F82320FFF75DFF0837BD4680BD88
:1007B400200000201C00002080B500AF114B93F8EE
:1007C4004830012B08D00F4BB3F8583001339AB29C
:1007D4000C4BA3F8582014E00A4B5B78022B05D18C
:1007E400084B1B78184600F0BFFD05E0054B5B780D
:1007F400042B01D101F086FB06F0ECFF014B012232
:100804005A7080BD1C00002080B582B000AF364B0A
:1008140093F848300A2B08D0334BB3F858300133DF
:100824009AB2314BA3F858205BE02F4B02225A7046
:100834002D4B00225A802D4B7B602B4B0022A3F8BA
:10084400DC207B681A7A284B83F8DE207B689B883F
:100854009BB2184600F092F80346DAB2224B83F8B2
:10086400DF20214B204A5C33E03211685268196062
:100874005A607B68DA781C4B83F864201A4BB3F80F
:10088400DC30184600F07AF803467B80BB1C18481D
:100894001946022207F088F97B685B7A1A46124BE4
:1008A40093F8DE300B3B134811461A4607F046FA1C
:1008B40006F08AFF7B685B78184606F06DFF7B685C
:1008C400DB889BB2184600F059F80346184600210D
:1008D4000022094B00F0CAFB03461A46024B1A7069
:1008E40000BF0837BD4680BD1C0000204600002024
:1008F40081000020830000208D0D000880B582B0A7
:1009040000AF1C4B93F848300D2B08D0194BB3F8AB
:10091400583001339AB2174BA3F8582026E0164BEF
:100924007B607B689A7A134B83F876217B681A7B09
:10093400104B83F86D210F4B7A6803F5B7730232BD
:100944001168526819605A600A4B00225A8001F0FB
:10095400CBFA06F039FF7B685B78184606F01CFF7B
:1009640006F0B0FF034B04225A7000BF0837BD469F
:1009740080BD00BF1C0000204600002080B483B06E
:1009840000AF0346FB80FB881B029AB2FB881B0A5C
:100994009BB29BB213439BB29BB218460C37BD4625
:1009A4005DF8047B704700BF80B582B000AF01F0F2
:1009B40057FA464B93F82330002B76D0434B93F8E9
:1009C40022301A46414B13441B79FB713F4B93F879
:1009D4002430002B0DD1FB797E2B02D0FB797D2BAB
:1009E40007D17D2001F04AFF384B012283F82420EF
:1009F4002BE0364BDA8CFB791046194600F0C6FA28
:100A040003461A46314BDA84304B93F82430012BD9
:100A140007D1FB7983F02003FB712C4B002283F870
:100A240024202A4B93F822300133DAB2274B83F87F
:100A34002220264B93F82330013BDAB2234B83F870
:100A44002320FB79184601F019FF204B93F823303B
:100A5400002B36D11D4B93F82830002B31D11B4B82
:100A6400DB8CDB43BB80194B93F822301946BB88DF
:100A7400DAB2164B0B441A71144B93F8223001333B
:100A8400BA88120A92B2D1B2104A13440A461A71B1
:100A94000E4B93F823300233DAB20C4B83F8232045
:100AA4000A4B012283F828200BE0084B93F82930E5
:100AB400002B06D1054B012283F829207E2001F06A
:100AC400DDFE01F0DBF90837BD4680BD1C000020C7
:100AD40080B582B000AF0346FB71FB797D2B04D156
:100AE400194B012283F84A202AE0174B93F84A3025
:100AF400012B07D1FB7983F02003FB71124B0022F9
:100B040083F84A20104B93F848301A460E4B13448E
:100B1400FA7983F82A200C4B93F848300133DAB27F
:100B2400094B83F84820084BB3F84C20FB79104656
:100B3400194600F02BFA03461A46034BA3F84C203F
:100B44000837BD4680BD00BF1C00002080B582B0C0
:100B540000AF01F085F901F0A1FE0346FB713E4BA5
:100B640093F84E30002B19D13B4B93F849307E2B30
:100B740014D1FB797E2B11D0374B012283F84E2000
:100B8400354B002283F84820334B4FF6FF72A3F80D
:100B94004C20FB791846FFF79BFF53E02E4B93F84C
:100BA4004E30012B16D1FB797E2B13D0FB791846DE
:100BB400FFF78EFF284B93F8483001331E2B08DDD6
:100BC400254B002283F84820234B002283F84E2033
:100BD40038E037E0204B93F84E30012B32D1FB79CB
:100BE4007E2B2FD11C4BB3F84C304FF2B8029342FA
:100BF4001CD1194BB3F8503001339AB2164BA3F8F9
:100C04005020154B93F84830023BDAB2124B83F86C
:100C14004820FFF721FD11480C2100F05DF9104A2E
:100C24000F4B1B6943F00203136107E00A4BB3F84F
:100C3400523001339AB2084BA3F85220064B0022DB
:100C440083F84E20044AFB7982F8493001F016F902
:100C54000837BD4680BD00BF1C000020B506000853
:100C64000004014080B58AB002AF0346FB80012333
:100C7400FB773C4B5B78042B71D13B4B00933B4B94
:100C840001933B483B4980223B4B06F03DFE354AED
:100C940007F11003E8321068516803C3314B93F82D
:100CA400F030FB7307F10C0318463449022206F0B6
:100CB4007BFFBB891846FFF761FE0346BB81294BC6
:100CC40093F8F330FB7207F1100318462C490822FD
:100CD40007F002F80346002B01D00023FB77214BD9
:100CE40093F87621FB7B9A4201D00023FB771D4BBE
:100CF40093F86D21FB7A9A4201D00023FB77214BB4
:100D0400BB61BB6907221A70164B93F86821BB6953
:100D14005A70144B93F86A21BB699A70114B93F87B
:100D24006C31DB01DAB2FB7F9B01DBB21343DBB234
:100D3400DAB2BB69DA70BB891846FFF71FFE0346B7
:100D44001A46BB699A80074B062283F82320FFF7D3
:100D540089FC044B5B8801339AB2024B5A802037DA
:100D6400BD4680BD1C0000208701002088010020B2
:100D74000401002084010020860100200D010020D0
:100D84008A0100202000002080B582B000AF01F06D
:100D94001DF8264B93F8DE302548194606F03AFD37
:100DA40006F04EFD06F068FD01F01EF81F4BB3F887
:100DB400DC201E4B93F8DF309BB29A421BD11B4BB5
:100DC4001B78184600F0D0FA06F004FD174B0322F6
:100DD4005A70184B7B607B6805221A70134B0122F2
:100DE40083F82320FFF73EFC104B5B8801339AB253
:100DF4000E4B5A8016E00D4BB3F8DC3001339AB237
:100E04000A4BA3F8DC20094BB3F8DC301846FFF793
:100E1400B5FD03467B80BB1C07481946022206F039
:100E2400C3FE00BF0837BD4680BD00BF1C000020C4
:100E340078000020200000208100002080B400AF52
:100E440062B6BD465DF8047B704700BF80B400AF56
:100E540072B6BD465DF8047B704700BF80B500AF35
:100E640005480021802206F069FF0448002102227F
:100E740006F064FF80BD00BF94010020140200202E
:100E840080B582B000AF18E0114B9B6F7B607B682C
:100E94009B680F4A93677B681B6898477B680022AE
:100EA4001A607B6800221A717B6800229A60094BE1
:100EB4001B78013BDAB2074B1A70054B9B6F002B72
:100EC400E2D100F091FE00F07BFD00F093FEDAE742
:100ED400940100201402002080B584B000AF786033
:100EE4000B46FB70FFF7B2FF244BFB6002E0FB688C
:100EF4000C33FB60FB681B68002B03D0FB68204AA3
:100F04009342F4D9FB681E4A934203D900F0A2FF2E
:100F140000F05CFDFB687A681A60FB68FA781A7165
:100F2400184BBB6003E0BB681B680833BB60BB683D
:100F34001B68002B06D0BB681B681A79FB681B79F9
:100F44009A42F0D3BB681A68FB689A60BB68FA6877
:100F54001A600D4B1B780133DAB20B4B1A700A4B33
:100F64001A78094B5B789A4203D9074B1A78064BD7
:100F74005A70FFF763FF1037BD4680BD940100200F
:100F8400000200200C0200201402002080B483B070
:100F940000AF03460A46FB8013467B71FB881B0A9D
:100FA4009AB2F9887B794B40DBB2054931F81330AA
:100FB40053409BB218460C37BD465DF8047B70471E
:100FC400B080000880B582B000AF264B002283F8C1
:100FD400C8200023FB713CE0FA79224913469B00A8
:100FE40013449B000B4400221A60FA791D491346EE
:100FF4009B0013449B000B4400229A80FA79194900
:1010040013469B0013449B000B44083301221A70BF
:10101400FA79144913469B0013449B000B4408338C
:1010240000225A70FA790F4913469B0013449B001F
:101034000B44083300225A60FA790A4913469B008C
:1010440013449B000B44103300221A70FB790133C4
:10105400FB71FB79092BBFD9034800F0F3FC083777
:10106400BD4680BD18020020C513000880B586B0B7
:1010740000AFF8607B600B46FB721346BB72002323
:10108400FB7502E0FB7D0133FB75FB7D092B0AD860
:10109400FA7D724913469B0013449B000B440833AA
:1010A4005B78012BEED0FB7D092B00F2D180BB7A5B
:1010B400002B1AD1FA7DFB685901684813469B003E
:1010C40013449B0003441960FA7DFB685B01644987
:1010D400A1FB0313DB0B98B2604913469B00134436
:1010E4009B000B440246DA801CE0BB7A012B18D12A
:1010F400FA7D5A4913469B0013449B000B44FA683B
:101104001A60FA7DFB685649A1FB0313DB0B98B206
:10111400524913469B0013449B000B440246DA8059
:1011240000E0FEE7FA7D4D4913469B0013449B0003
:101134000B44DB88002B24D1BB7A002B0DD1FA7D24
:10114400FB689BB25B0198B2444913469B0013446D
:101154009B000B4402469A801DE0BB7A012B0BD105
:10116400FA7DFB6898B23D4913469B0013449B00EB
:101174000B4402469A800EE000F06CFE00F026FC60
:1011840009E0FA7D354913469B0013449B000B4448
:101194004FF6FF729A80FA7D304913469B00134440
:1011A4009B000B440833FA7A1A70FA7D2B491346D4
:1011B4009B0013449B000B44083301225A70FA7DB0
:1011C400264913469B0013449B000B4408337A685A
:1011D4005A60FA7D214913469B0013449B000B443B
:1011E400103300221A701D4B93F8C830002B0CD01A
:1011F400FA7D1A4913469B0013449B000B449A88BA
:10120400164BB3F8CA309A421CD2FA7D13491346DE
:101214009B0013449B000B449A88104BA3F8CA20EC
:101224000E4B93F8C830002B01D100F019FCFA7D65
:101234000A4913469B0013449B000B449B881846A1
:1012440000F02CFC054B012283F8C820FB7D00E054
:10125400FF2318461837BD4680BD00BF1802002082
:101264000180008080B582B000AF03463A60FB7114
:101274000B46BB71BB79002B1AD1FA793B68590133
:10128400374813469B0013449B0003441960FA79C2
:101294003B685B013349A1FB0313DB0B98B2304974
:1012A40013469B0013449B000B440246DA801FE064
:1012B400BB79012B18D1FA79294913469B001344B1
:1012C4009B000B443A681A60FA793B682549A1FBF4
:1012D4000313DB0B98B2224913469B0013449B0073
:1012E4000B440246DA8003E000F0B4FD00F06EFB2C
:1012F400FA791B4913469B0013449B000B44DB887B
:10130400002B1FD1BB79002B0DD1FA793B689BB21E
:101314005B0198B2124913469B0013449B000B4493
:1013240002469A8018E0BB79012B15D1FA793B6803
:1013340098B20B4913469B0013449B000B4402468E
:101344009A8009E0FA79064913469B0013449B00EE
:101354000B444FF6FF729A800837BD4680BD00BF2C
:10136400180200200180008080B483B000AF0346DF
:10137400FB71FA79064913469B0013449B000B4406
:10138400083300225A700C37BD465DF8047B704761
:101394001802002080B483B000AF0346FB71FA79D1
:1013A400064913469B0013449B000B440833012257
:1013B4005A700C37BD465DF8047B70471802002054
:1013C40080B582B000AF0023FB7187E0FA79A649AB
:1013D40013469B0013449B000B4408335B78012B9A
:1013E40079D1A14BB3F8CA10FA799F4813469B00F0
:1013F40013449B0003449B88994256D3FA799A4933
:1014040013469B0013449B000B44DB88002B0AD13A
:10141400FA79954913469B0013449B000B441033FF
:1014240001221A7057E0FA798F4913469B0013443E
:101434009B000B44DB88013B98B28B4913469B000D
:1014440013449B000B440246DA80FA79864913461A
:101454009B0013449B000B44DB88002B1AD1F879C2
:10146400FA79814913469B0013449B000B44196885
:101474007E4BA3FB0123DA0B13461B049B1ACA1AE7
:1014840091B2794A03469B0003449B0013440A46E5
:101494009A8020E0FA79744913469B0013449B0018
:1014A4000B444FF6FF729A8015E0FA79F9796E4889
:1014B4000B469B000B449B00034499886A4BB3F88A
:1014C400CA30CB1A98B2684913469B0013449B0058
:1014D4000B4402469A80FB790133FB71FB79092B9B
:1014E4007FF674AF0023FB7176E0FA795E49134608
:1014F4009B0013449B000B4410331B78012B68D1D1
:10150400FA79594913469B0013449B000B44083352
:101514005B68FA7910469847FA79534913469B0059
:1015240013449B000B44103300221A70FA794E497D
:1015340013469B0013449B000B4408331B78002B79
:101544003DD1FA79F97948480B469B000B449B003E
:1015540003441B684549A1FB0313DB0B98B24249C2
:1015640013469B0013449B000B440246DA80FA792D
:101574003D4913469B0013449B000B44DB88002B1E
:1015840012D1FA79F97938480B469B000B449B0039
:1015940003441B6898B2344913469B0013449B00D0
:1015A4000B4402469A8014E0FA792F4913469B00B3
:1015B40013449B000B444FF6FF729A8009E0FA79BA
:1015C400294913469B0013449B000B440833002213
:1015D4005A70FB790133FB71FB79092B85D9002300
:1015E400FB700023FB7126E0FA791F4913469B0028
:1015F40013449B000B4408335B78012B18D1FB7810
:10160400002B0AD0FA79184913469B0013449B0017
:101614000B449B88BA889A420AD9FA79124913462C
:101624009B0013449B000B449B88BB800123FB70ED
:10163400FB790133FB71FB79092BD5D9FB78012B9D
:101644000AD1094ABB88A2F8CA30074BB3F8CA309A
:10165400184600F023FA03E0034B002283F8C82065
:101664000837BD4680BD00BF1802002001800080FD
:1016740080B584B000AF0346FB800023FB736AE0AF
:10168400FA7B974913469B0013449B000B44083391
:101694005B78012B5CD1FA7B914913469B00134480
:1016A4009B000B449B88FA889A4214D2FA7BF97BFC
:1016B4008B480B469B000B449B0003449988FB8892
:1016C400CB1A98B2864913469B0013449B000B44E3
:1016D40002469A803CE0FA7B814913469B001344FE
:1016E4009B000B44DB88002B28D0FA7B7C491346F3
:1016F4009B0013449B000B44DB88013B98B2784960
:1017040013469B0013449B000B440246DA80FA7B89
:10171400F97B73480B469B000B449B000344998858
:10172400FB88CB1A9BB2013B98B26D4913469B00D0
:1017340013449B000B4402469A8009E0FA7B6849F3
:1017440013469B0013449B000B44103301221A7070
:10175400FB7B0133FB73FB7B092B91D90023FB73C8
:1017640076E0FA7B5E4913469B0013449B000B44CE
:1017740010331B78012B68D1FA7B594913469B001F
:1017840013449B000B4408335B68FA7B104698476C
:10179400FA7B534913469B0013449B000B441033BC
:1017A40000221A70FA7B4E4913469B0013449B0097
:1017B4000B4408331B78002B3DD1FA7BF97B484856
:1017C4000B469B000B449B0003441B684549A1FB4B
:1017D4000313DB0B98B2424913469B0013449B004E
:1017E4000B440246DA80FA7B3D4913469B001344BE
:1017F4009B000B44DB88002B12D1FA7BF97B384821
:101804000B469B000B449B0003441B6898B234496D
:1018140013469B0013449B000B4402469A8014E039
:10182400FA7B2F4913469B0013449B000B444FF64D
:10183400FF729A8009E0FA7B294913469B001344FE
:101844009B000B44083300225A70FB7B0133FB736B
:10185400FB7B092B85D90023FB720023FB7326E055
:10186400FA7B1F4913469B0013449B000B44083327
:101874005B78012B18D1FB7A002B0AD0FA7B18492C
:1018840013469B0013449B000B449B88BA899A42DD
:101894000AD9FA7B124913469B0013449B000B445C
:1018A4009B88BB810123FB72FB7B0133FB73FB7BB6
:1018B400092BD5D9FB7A012B0AD1094ABB89A2F895
:1018C400CA30074BB3F8CA30184600F0E7F803E013
:1018D400034B002283F8C8201037BD4680BD00BFEB
:1018E400180200200180008080B500AFFEF77AFE68
:1018F4000346184680BD00BF80B584B000AF00F039
:1019040073FD00F017FC00F0E7F900F01FFA102057
:10191400012102F029FD0420012102F025FD042308
:10192400BB811023FB730323BB7307F10C03224811
:10193400194601F0E3FE0223BB811023FB7303234A
:10194400BB7307F10C031D48194601F0D7FE1B4871
:10195400022101F0F7FF1023BB810423FB7307F17D
:101964000C031648194601F0C9FE0220042102F0B6
:10197400F3F8102001F080F910237B6000233B7200
:1019840008237B720123BB723B1D184601F08EF8BD
:1019940000F0E2F900F0DAFE00F0BAFD00F01CF805
:1019A40005F070FE00F0D0FB00F0DCF800F0B0FBB6
:1019B4001037BD4680BD00BF000801400010014043
:1019C40080B400AFBD465DF8047B704780B400AFBF
:1019D400BD465DF8047B704780B588B000AF1848F9
:1019E4000021082206F0AAF90120012102F0DAFC04
:1019F4004FF6FF733B8340F6FF03BB8200237B83D8
:101A04000023FB8207F114034FF08040194603F0D2
:101A1400C3FB3023BB8000237B810123FB80002395
:101A2400BB813B1D4FF08040194603F031FC4FF061
:101A34008040012103F078FF2037BD4680BD00BF00
:101A4400E402002080B582B000AF7860034A7B686E
:101A5400136000F00FFB0837BD4680BDE402002090
:101A640080B500AF4FF08040002104F027FE4FF016
:101A74008040022104F05CFF4FF0804002210122EB
:101A840003F098FF4FF08040002104F0FBFD024B6F
:101A940000229A8080BD00BFE402002090B585B08A
:101AA40000AF0346FB804FF08040012103F03CFF70
:101AB4001A4B9B88FB81194B9B889AB2FB88134471
:101AC400BB81164ABB899380FC884FF0804004F0A8
:101AD400F7FE03461A46FB89D31A9C420ADA4FF0F2
:101AE40080424FF080431B8A9BB243F002039BB2B7
:101AF400138210E0BB894FF08040194604F0DEFDEC
:101B04004FF08040022104F013FF4FF08040022187
:101B1400012203F04FFF1437BD4690BDE4020020BC
:101B240080B500AF4FF08040002104F0C7FD4FF0B6
:101B340080400221002203F03DFF80BD80B500AF4C
:101B44004FF0804004F0BCFE0346184680BD00BF41
:101B540080B500AF024B1B6898470123184680BD2F
:101B6400E402002080B400AFBD465DF8047B7047FA
:101B740080B400AFBD465DF8047B704780B400AF0D
:101B8400BD465DF8047B704780B400AFBD465DF888
:101B9400047B704780B400AFBD465DF8047B70479A
:101BA40080B400AFBD465DF8047B704780B400AFDD
:101BB400BD465DF8047B704780B400AFBD465DF858
:101BC400047B704780B400AFBD465DF8047B70476A
:101BD40080B400AFBD465DF8047B704780B400AFAD
:101BE400BD465DF8047B704780B400AFBD465DF828
:101BF400047B704780B400AFBD465DF8047B70473A
:101C040080B400AFBD465DF8047B704780B400AF7C
:101C1400BD465DF8047B704780B400AFBD465DF8F7
:101C2400047B704780B400AFBD465DF8047B704709
:101C340080B400AFBD465DF8047B704780B400AF4C
:101C4400BD465DF8047B704780B485B000AF786012
:101C54001F4B1B6804331B78DAB21D4B1B68063319
:101C64001B78DB01DBB21343DBB2FB73194B1B683C
:101C7400DA787B681A707B680133154A1268D27966
:101C84001A707B680233134A126812781A707B68E0
:101C94000333104A126852781A707B6804330C4A72
:101CA400126892791A707B6805330A4A126892782E
:101CB4001A707B680633FA7B1A707B680733044A10
:101CC400126852791A701437BD465DF8047B704768
:101CD400040000200000002080B582B000AF3D2049
:101CE400012102F041FB4FF6FF73BB800023FB711F
:101CF4003B1D1248194601F001FD4FF6FF73BB80EE
:101D04000023FB713B1D0E48194601F0F7FC4FF60A
:101D1400FF73BB800023FB713B1D0A48194601F089
:101D2400EDFC4FF6FF73BB800023FB713B1D06489F
:101D3400194601F0E3FC0837BD4680BD00080140A8
:101D4400000C0140001001400014014080B400AFB9
:101D5400BD465DF8047B704780B582B000AF0820B3
:101D6400012102F001FB2023BB801023FB7103231C
:101D7400BB713B1D1248194601F0C0FC1020012123
:101D840002F0F2FA4FF48063BB801023FB7103234B
:101D9400BB713B1D0B48194601F0B0FC202001210A
:101DA40002F0E2FA0423BB801023FB710323BB710E
:101DB4003B1D0548194601F0A1FC0837BD4680BD0E
:101DC400000C0140001001400014014080B400AF39
:101DD400044A044BDB6823F00403D360BD465DF87A
:101DE400047B70470014014080B400AF044A044BE4
:101DF400DB6843F00403D360BD465DF8047B7047A1
:101E04000014014080B400AF044A044BDB6883F043
:101E14000403D360BD465DF8047B704700140140A1
:101E240080B483B000AF0023FB71094BDB6803F07F
:101E34000403002B02D00023FB7101E00123FB719A
:101E4400FB7918460C37BD465DF8047B704700BF2C
:101E54000014014080B400AFBD465DF8047B7047B8
:101E640080B400AF044A044BDB6823F02003D36042
:101E7400BD465DF8047B7047000C014080B400AFA0
:101E8400044A044BDB6843F02003D360BD465DF88D
:101E9400047B7047000C014080B400AF044A044B3B
:101EA400DB6883F02003D360BD465DF8047B704794
:101EB400000C014080B483B000AF0023FB71094BD8
:101EC400DB6803F02003002B02D00023FB7101E048
:101ED4000123FB71FB7918460C37BD465DF8047B82
:101EE400704700BF000C014080B400AF044A044BAB
:101EF400DB6823F48063D360BD465DF8047B7047E0
:101F04000010014080B400AF044A044BDB6843F482
:101F14008063D360BD465DF8047B704700100140C8
:101F240080B400AF044A044BDB6883F48063D3605D
:101F3400BD465DF8047B70470010014080B483B057
:101F440000AF0023FB71094BDB6803F48063002BB3
:101F540002D00023FB7101E00123FB71FB791846D9
:101F64000C37BD465DF8047B704700BF001001408C
:101F740080B400AFBD465DF8047B704780B400AF09
:101F8400BD465DF8047B704780B400AFBD465DF884
:101F9400047B704780B400AF1846BD465DF8047BEF
:101FA400704700BF80B500AFFFF710FFFFF758FF81
:101FB400FFF79AFF80BD00BF80B500AFFFF714FFA5
:101FC400FFF75CFFFFF79EFF80BD00BF80B500AF49
:101FD400FFF718FFFFF760FFFFF7A2FF80BD00BF08
:101FE40080B500AFFFF70EFF00F010F8FFF754FFC5
:101FF40000F00CF8FFF794FF00F008F880BD00BF74
:1020040080B400AFBD465DF8047B704780B483B0F4
:1020140000AF00237B6002E07B6801337B607B6858
:10202400034A9342F8D90C37BD465DF8047B7047E8
:10203400FEFF0F0080B500AF4FF00060002100F0FC
:10204400C9FC80BD80B582B000AF25233B7103235A
:102054007B710323BB710123FB713B1D184600F008
:1020640057FC0837BD4680BD80B400AFBD465DF85F
:10207400047B704780B582B000AF1C233B71022300
:102084007B710123BB710123FB713B1D184600F0DA
:102094003FFC0837BD4680BD80B582B000AF032346
:1020A4003B7100237B710123BB710123FB713B1D39
:1020B400184600F02DFC29233B7101237B7100237A
:1020C400BB710123FB713B1D184600F021FC08374E
:1020D400BD4680BD80B582B000AF03233B710023B1
:1020E4007B710123BB710123FB713B1D184600F07A
:1020F4000FFC29233B7101237B710023BB71012356
:10210400FB713B1D184600F003FC0837BD4680BD3B
:1021140080B582B000AF0A233B7102237B71002398
:10212400BB710123FB713B1D184600F0F1FB08371E
:10213400BD4680BD80B500AFFFF77CFF4FF4A060C3
:1021440000F0D4FB80BD00BF80B500AF0248002181
:102154000C2205F0F3FD80BDEC02002080B483B0B6
:1021640000AF7860034A7B6813600C37BD465DF8A6
:10217400047B7047EC02002080B483B000AF786029
:10218400034A7B6853600C37BD465DF8047B704797
:10219400EC02002080B483B000AF7860FEE700BF9B
:1021A40080B483B000AF7860FEE700BF80B586B02E
:1021B40000AF0346FB804FF0C050012102F0F2F85B
:1021C400012001F037FD012001F0AAFF00BF4120EA
:1021D40002F072F90346002BF9D04FF4807001F03D
:1021E400CFFF012001F0DEFF02F0A6FA012002F089
:1021F40049FA02F091FA002002F02EFA02F08CFA69
:10220400FB88184602F056FA02F086FA174AFB8851
:102214005381022002F0C6FA0220012102F0C0F923
:10222400124B01221A724FF4003000F025FD4FF4D6
:1022340000333B6100233B7508237B750123BB7589
:1022440007F11003184600F031FC29233B730123E6
:102254007B730023BB730123FB7307F10C03184644
:1022640000F056FB1837BD4680BD00BFEC020020CD
:1022740080B582B000AF02F05FFA02F0D7F978605F
:102284007B689BB218460837BD4680BD80B582B0D6
:1022940000AF0346FB800220002102F081F9FB8895
:1022A400184602F007FA02F037FA084AFB8853810D
:1022B400064B01221A72022002F074FA0220012154
:1022C40002F06EF90837BD4680BD00BFEC02002065
:1022D40080B582B000AF02F02FFA02F0B7FA0346DD
:1022E4007B607B689BB218460837BD4680BD00BF43
:1022F40080B582B000AF0346FB800220002102F0CB
:102304004FF9FB88184602F0D5F902F005FA064B9E
:1023140002221A72022002F045FA0220012102F080
:102324003FF90837BD4680BDEC02002080B500AF00
:102334000220002102F034F9094B5B899BB2184654
:1023440002F0B8F902F0E8F9054B01221A720220F2
:1023540002F028FA0220012102F022F980BD00BF18
:10236400EC02002080B582B000AF02F0E5F902F083
:102374005DF978607B689BB218460837BD4680BD1E
:1023840080B582B000AF174B1B7AFB71FB79012B30
:102394000ED0022B00D01EE0124B5B68002B06D03F
:1023A40000F062F80F4B5B689847012315E013E0D7
:1023B4000C4B1B68002B0DD002F0AEF9002002F08C
:1023C4004BF902F0A9F900F04FF8064B1B68984747
:1023D400012302E000E0FEE7002318460837BD466B
:1023E40080BD00BFEC02002080B582B000AF01F0D8
:1023F400E7FC4FF4803001F011FD01F03DFD034690
:10240400FB71FB79012B28D1102000F077FC02200E
:1024140000F040FC002001F0DFFD002001F014FE7C
:102424004FF4806001F0F4FD4FF440304FF4E011BC
:1024340001F078FD012001F093FD00BF392002F086
:102444003BF80346002BF9D0022001F099FD00BFB0
:1024540001F0B2FD0346082BFAD10120012101F05D
:1024640083FF0837BD4680BD80B582B000AF4FF40E
:10247400803001F0D3FC01F0FFFC0346FB71FB79D3
:10248400012B12D1012001F06BFD00BF392002F0B5
:1024940013F80346002BF9D0022001F071FD00BFB0
:1024A40001F08AFD0346082BFAD10837BD4680BDEA
:1024B40080B400AF034B02225A61BD465DF8047B31
:1024C400704700BF0010014080B400AF034B0222EC
:1024D4001A61BD465DF8047B704700BF00100140DF
:1024E40080B400AF034B10221A61BD465DF8047B33
:1024F400704700BF0008014080B400AF034B0422C2
:102504005A61BD465DF8047B704700BF0008014076
:1025140080B586B000AF36480021102205F00EFCCD
:102524004FF48050012101F01FFF0420012101F02C
:102534001BFF1020012101F017FFA0233B8018236B
:10254400FB700323BB703B462A48194601F0D6F8BA
:1025540040233B800423FB700323BB703B46254888
:10256400194601F0CBF814233B801023FB703B4643
:102574002048194601F0C2F802233B801023FB7067
:102584003B461D48194601F0B9F8FFF791FFFFF7E4
:10259400A7FFFFF7B1FF0023FB8202E0FB8A0133B0
:1025A400FB82FB8A4FF6FF729342F7D1FFF78CFF51
:1025B4000023BB804FF48273FB8000233B81002304
:1025C4007B810023BB814FF40073FB8118233B8282
:1025D40000237B820723BB823B1D0848194602F077
:1025E40085F90648012102F0B7FA1837BD4680BDC7
:1025F400F8020020000801400010014000300140B2
:1026040090B585B000AFF8607B600B46FB72134653
:10261400BB72494AFB681360474B00221A71464A51
:10262400FB7A5371444ABB7A9371434A7B68936043
:10263400414A97F8203013733F4A97F82430537374
:102644003D4A97F8283093733B4B0122DA733A4B97
:102654005B7BDBB2012B03D13848102101F080F9F8
:1026640055E0354B1B681B789BB23548194602F080
:1026740007FB00BF3248012102F0F6FB0346002BA2
:10268400F8D02F48012102F00BFC2B4B9B79DBB2D5
:10269400012B12D0022B1ED0002B25D1264B1B79E7
:1026A400DBB2002B08D1244B9C68254802F0F6FAD3
:1026B4000346DBB2237017E016E01F4B9C682048EA
:1026C40002F0ECFA0346DBB223701B4B9B68013328
:1026D400194A936008E0184B9C68194802F0DEFA26
:1026E4000346DBB2237000BF134B1B680133124A4D
:1026F4001360114B1B79DBB20133DAB20E4B1A7142
:102704000D4B5B79DBB2013BDAB20B4B5A710A4BCE
:102714005B79DBB2002BA4D1074B9B7BDBB2012B93
:1027240003D10648102101F00DF9034B0022DA739E
:102734001437BD4690BD00BFF802002000080140D8
:102744000030014080B400AFFEE700BF80B586B022
:1027540000AF22480021082205F0F0FA05200121EB
:1027640001F002FE4FF48040012101F0FDFD182329
:10277400FB754FF40073BB820323BB7507F114038D
:102784001748194600F0BAFF0423FB754FF4806321
:10279400BB8207F114031248194600F0AFFF4FF44F
:1027A400E1337B6000233B8100237B810023BB81D9
:1027B40000233B820C23FB813B1D0A48194604F08D
:1027C40039FB00F051F800F045F80648012104F007
:1027D40049FCFFF737FC1837BD4680BD08030020CD
:1027E400000801400038014080B483B000AF786035
:1027F4003960054A7B681360034A3B6853600C37B1
:10280400BD465DF8047B70470803002080B500AF27
:10281400064840F22661012204F044FC034840F2D9
:102824002551012204F03EFC80BD00BF0038014068
:1028340080B500AF064840F22661002204F032FC65
:10284400034840F22551002204F02CFC80BD00BF57
:102854000038014080B500AF0248202104F08AFE10
:1028640080BD00BF0038014080B500AF0248402160
:1028740004F080FE80BD00BF0038014080B582B006
:1028840000AF0346FB71FB799BB20348194604F081
:1028940009FD0837BD4680BD0038014080B582B0CF
:1028A40000AF054804F010FD0346FB80FB88DBB253
:1028B40018460837BD4680BD0038014080B500AFDA
:1028C400FFF7D2FF024B1B6898470023184680BDD0
:1028D4000803002080B500AFFFF7BCFF024B5B6824
:1028E40098470023184680BD0803002080B483B0B5
:1028F40000AF7860054A7B6843F0BF6343F400335C
:10290400D3600C37BD465DF8047B704700ED00E0F2
:1029140080B487B000AF786000237B6100233B6103
:102924000F23FB607B68DB78002B3AD0274BDB68F6
:10293400DB4303F4E0631B0A7B617B69C3F104039B
:102944003B617B69FA6822FA03F3FB607B685B787E
:102954001A463B6902FA03F37B617B689B781A464B
:10296400FB6813407A6913437B617B691B017B61BC
:10297400174A7B681B787969C9B213440A4683F8FD
:102984000023134A7B681B785B09DBB218467B681B
:102994001B7803F01F03012101FA03F342F82030EE
:1029A4000FE00B497B681B785B09DBB218467B6838
:1029B4001B7803F01F0301229A4000F1200341F821
:1029C40023201C37BD465DF8047B704700ED00E012
:1029D40000E100E080B483B000AF7860396007495B
:1029E4003B6823F0604323F07F037A6813438B60D2
:1029F4000C37BD465DF8047B704700BF00ED00E076
:102A040080B483B000AF03460A46FB711346BB7122
:102A1400BB79002B06D00949084B1A69FB7913438B
:102A24000B6106E00549054B1A69FB79DB4313404A
:102A34000B610C37BD465DF8047B704700ED00E088
:102A440080B483B000AF78607B68042B06D1094A58
:102A5400084B1B6843F00403136005E0054A054B6B
:102A64001B6823F0040313600C37BD465DF8047B38
:102A7400704700BF10E000E080B400AF094B0022B3
:102A84001A60084B00225A60064B00229A60054BDC
:102A94000022DA60034B044A5A61BD465DF8047BA8
:102AA400704700BF00040140FFFF0F0080B485B0F1
:102AB40000AF78600023FB60344BFB607B689B793C
:102AC400002B4FD03149314B1A687B681B68DB43BC
:102AD40013400B602D492D4B5A687B681B68DB4300
:102AE40013404B607B681B791A46FB681344FB60F8
:102AF400FB68FA6811687A6812680A431A60234905
:102B0400224B9A687B681B68DB4313408B601F4928
:102B14001E4BDA687B681B68DB431340CB607B6821
:102B24005B79102B0ED11949184B9A687B681B6886
:102B340013438B601549154BDA687B681B68134394
:102B4400CB601DE0114BFB607B685B791A46FB6828
:102B54001344FB60FB68FA6811687A6812680A43D8
:102B64001A600DE07B681B791A46FB681344FB600E
:102B7400FB68FA6811687A681268D2430A401A60DE
:102B84001437BD465DF8047B704700BF0004014064
:102B940080B483B000AF78607B6800221A607B68E1
:102BA40000221A717B680C225A717B6800229A7188
:102BB4000C37BD465DF8047B704700BF80B483B01A
:102BC40000AF78600549054B1A697B6813430B61B4
:102BD4000C37BD465DF8047B704700BF000401401C
:102BE40080B485B000AF78600023FB73084B5A694A
:102BF4007B681340002B02D00123FB7301E0002308
:102C0400FB73FB7B18461437BD465DF8047B7047A5
:102C14000004014080B483B000AF7860034A7B684D
:102C240053610C37BD465DF8047B704700040140D6
:102C340080B485B000AF78600023FB730023BB60D1
:102C44000C4B1A687B681340BB600A4B5A697B685B
:102C54001340002B05D0BB68002B02D00123FB736B
:102C640001E00023FB73FB7B18461437BD465DF877
:102C7400047B70470004014080B483B000AF7860E7
:102C8400034A7B6853610C37BD465DF8047B70478B
:102C94000004014080B485B000AF78600023FB607D
:102CA400094B1B68FB60FB6803F03803FB60FA68A0
:102CB4007B681343FB60044AFB6813601437BD460A
:102CC4005DF8047B704700BF0020024080B483B0ED
:102CD40000AF7860084A084B1B6823F008031360B0
:102CE4000549054B1A687B6813430B600C37BD46D6
:102CF4005DF8047B704700BF0020024080B483B0BD
:102D040000AF7860084A084B1B6823F01003136077
:102D14000549054B1A687B6813430B600C37BD46A5
:102D24005DF8047B704700BF0020024080B400AF10
:102D3400044B054A5A60034B044A5A60BD465DF889
:102D4400047B70470020024023016745AB89EFCD27
:102D540080B400AF044B054A5A60034B044A5A60DE
:102D6400BD465DF8047B704700200240230167459F
:102D7400AB89EFCD80B400AF044A044B1B6943F028
:102D840080031361BD465DF8047B70470020024058
:102D940080B400AF044A044B1B6943F08003136101
:102DA400BD465DF8047B70470020024080B584B0C6
:102DB40000AF78600423FB734FF4302000F0DCFB99
:102DC4000346FB73FB7B042B1BD1104A0F4B1B697F
:102DD40043F0020313610D4A7B6853610B4A0B4BAA
:102DE4001B6943F0400313614FF4302000F0C4FB2F
:102DF4000346FB730549054B1A6941F6FD731340FD
:102E04000B61FB7B18461037BD4680BD0020024095
:102E140080B582B000AF0423FB714FF4302000F082
:102E2400ABFB0346FB71FB79042B18D10E4A0E4B06
:102E34001B6943F0040313610B4A0B4B1B6943F0FA
:102E4400400313614FF4302000F096FB0346FB71FE
:102E54000549054B1A6941F6FB7313400B61FB7975
:102E640018460837BD4680BD0020024080B582B0B8
:102E740000AF0423FB714FF4302000F09FFB0346A6
:102E8400FB71FB79042B18D10E4A0E4B1B6943F0DE
:102E9400040313610B4A0B4B1B6943F0400313619A
:102EA4004FF4302000F08AFB0346FB710549054BC3
:102EB4001A6941F6FB7313400B61FB791846083716
:102EC400BD4680BD0020024080B582B000AFA5237E
:102ED400FB8004237B7100F06DFA0346002B01D0C4
:102EE4000023FB804FF4302000F046FB03467B7147
:102EF4007B79042B45D1254B254A9A60234B254ADF
:102F04009A60224A214B1B6943F0200313611F4A34
:102F14001E4B1B6943F0400313614FF4302000F053
:102F24002BFB03467B717B79042B20D11749174B6C
:102F34001A6941F6DF7313400B61144A134B1B6982
:102F440043F010031361144AFB8813804FF40050BC
:102F540000F012FB03467B717B79052B11D00B49E2
:102F64000A4B1A6941F6EF7313400B6109E07B7950
:102F7400052B06D00549054B1A6941F6EF7313403A
:102F84000B617B7918460837BD4680BD002002409E
:102F940023016745AB89EFCD00F8FF1F80B584B0EE
:102FA40000AF786039600423FB730023BB604FF4E7
:102FB400005000F0E1FA0346FB73FB7B042B30D195
:102FC4001A4A1A4B1B6943F0010313617B683A6880
:102FD40092B21A804FF4005000F0CEFA0346FB730D
:102FE400FB7B042B16D17B680233BB60BB681A469B
:102FF4003B681B0C9BB213804FF4005000F0BCFAEA
:103004000346FB730949094B1A6941F6FE731340E1
:103014000B6106E00549054B1A6941F6FE7313403E
:103024000B61FB7B18461037BD4680BD0020024073
:1030340080B584B000AF78600B467B800423FB73BB
:103044004FF4005000F098FA0346FB73FB7B042B0B
:1030540015D10D4A0C4B1B6943F0010313617B68C6
:103064007A881A804FF4005000F086FA0346FB7306
:103074000549054B1A6941F6FE7313400B61FB7B4E
:1030840018461037BD4680BD0020024080B584B08C
:1030940000AF78600B46FB700423FB734FF40050C1
:1030A40000F06AFA0346FB73FB7B042B1FD1124B1F
:1030B400124A9A60104B124A9A600F4A0E4B1B69CF
:1030C40043F0100313617B68FA7892B21A804FF4CC
:1030D400005000F051FA0346FB73FB7B052B06D02E
:1030E4000549054B1A6941F6EF7313400B61FB7BED
:1030F40018461037BD4680BD0020024023016745B5
:10310400AB89EFCD80B586B000AF78604FF6FF7322
:10311400BB824FF6FF737B824FF6FF733B824FF601
:10312400FF73FB810423FB757B68DB437B607B6857
:103134009BB2DBB2BB827B6803F47F431B0A7B82B6
:103144007B6803F47F031B0C3B827B681B0EFB81B3
:103154004FF4005000F010FA0346FB75FB7D042B7E
:103164004ED12A4B2A4A9A60284B2A4A9A60274A07
:10317400264B1B6943F010031361BB8AFF2B08D055
:10318400254ABB8A13814FF4005000F0F5F9034639
:10319400FB75FB7D042B0BD17B8AFF2B08D01E4AC9
:1031A4007B8A53814FF4005000F0E6F90346FB7527
:1031B400FB7D042B0BD13B8AFF2B08D0164A3B8A9C
:1031C40093814FF4005000F0D7F90346FB75FB7D63
:1031D400042B0BD1FB89FF2B08D00F4AFB89D38129
:1031E4004FF4005000F0C8F90346FB75FB7D052B36
:1031F40006D00649054B1A6941F6EF7313400B617B
:10320400FB7D18461837BD4680BD00BF0020024034
:1032140023016745AB89EFCD00F8FF1F80B584B06B
:1032240000AF0346FB710423FB734FF4302000F01E
:10323400A3F90346FB73FB7B042B4CD1284B294A8F
:103244009A60274B284A9A60254A254B1B6943F00C
:1032540020031361224A224B1B6943F0400313618C
:103264004FF4302000F088F90346FB73FB7B042BFA
:1032740027D11B491A4B1A6941F6DF7313400B61BE
:10328400174A174B1B6943F010031361FB79002B9A
:1032940003D0164B00221A8002E0144BA5221A8098
:1032A4004FF4302000F068F90346FB73FB7B052BD9
:1032B40011D00B490A4B1A6941F6EF7313400B61A5
:1032C40009E0FB7B052B06D00549054B1A6941F63D
:1032D400DF7313400B61FB7B18461037BD4680BD7E
:1032E4000020024023016745AB89EFCD00F8FF1FA2
:1032F40080B584B000AF0346FB800B46BB80134609
:103304007B800423FB731B4B1B4A9A60194B1B4A9B
:103314009A604FF4005000F02FF90346FB73FB7BD7
:10332400042B21D1134A134B1B6943F0100313617F
:1033340013497A88BB8813439AB2FB8813439BB220
:1033440043F0F8039BB24B804FF4005000F014F9A3
:103354000346FB73FB7B052B06D00649054B1A6914
:1033640041F6EF7313400B61FB7B18461037BD46E3
:1033740080BD00BF0020024023016745AB89EFCD2B
:1033840000F8FF1F80B400AF034BDB699B081846AD
:10339400BD465DF8047B70470020024080B400AF56
:1033A400034B1B6A1846BD465DF8047B704700BF9B
:1033B4000020024080B483B000AF0023FB71094BAE
:1033C400DB6903F00203002B02D00123FB7101E04F
:1033D4000023FB71FB7918460C37BD465DF8047B6E
:1033E400704700BF0020024080B483B000AF0023C8
:1033F400FB71094B1B6803F02003002B02D001234F
:10340400FB7101E00023FB71FB7918460C37BD46C4
:103414005DF8047B704700BF0020024080B483B095
:1034240000AF78600B46FB70FB78002B06D009498F
:10343400084B1A697B6813430B6106E00549054B89
:103444001A697B68DB4313400B610C37BD465DF89A
:10345400047B70470020024080B485B000AF7860E0
:103464000023FB737B68012B0BD10F4BDB6903F04B
:103474000103002B02D00123FB730DE00023FB7337
:103484000AE0094BDA687B681340002B02D0012361
:10349400FB7301E00023FB73FB7B18461437BD4626
:1034A4005DF8047B704700BF0020024080B483B005
:1034B40000AF7860034A7B68D3600C37BD465DF883
:1034C400047B70470020024080B483B000AF042323
:1034D400FB71124BDB6803F00103002B02D00123C4
:1034E400FB7113E00D4BDB6803F00403002B02D0E7
:1034F4000223FB710AE0094BDB6803F01003002B85
:1035040002D00323FB7101E00423FB71FB7918460D
:103514000C37BD465DF8047B704700BF00200240B5
:1035240080B483B000AF0423FB71124BDB6803F05B
:103534000103002B02D00123FB7113E00D4BDB6868
:1035440003F00403002B02D00223FB710AE0094BB1
:10355400DB6803F01003002B02D00323FB7101E0AE
:103564000423FB71FB7918460C37BD465DF8047BD8
:10357400704700BF0020024080B584B000AF78607F
:103584000423FB73FFF7CCFF0346FB7306E0FFF74E
:10359400C7FF0346FB737B68013B7B60FB7B012B0E
:1035A40002D17B68002BF2D17B68002B01D105236B
:1035B400FB73FB7B18461037BD4680BD80B584B0D5
:1035C40000AF78600423FB73FFF7AAFF0346FB7385
:1035D40006E0FFF7A5FF0346FB737B68013B7B60B6
:1035E400FB7B012B02D17B68002BF2D17B68002B83
:1035F40001D10523FB73FB7B18461037BD4680BD04
:1036040080B582B000AF78607B682F4A934208D1BE
:103614000420012100F0E4FE0420002100F0E0FE7B
:103624004EE07B68294A934208D10820012100F02A
:10363400D7FE0820002100F0D3FE41E07B68244A35
:10364400934208D11020012100F0CAFE102000216D
:1036540000F0C6FE34E07B681E4A934208D1202065
:10366400012100F0BDFE2020002100F0B9FE27E07A
:103674007B68194A934208D14020012100F0B0FE32
:103684004020002100F0ACFE1AE07B68134A93420C
:1036940008D18020012100F0A3FE8020002100F049
:1036A4009FFE0DE07B680E4A934209D14FF480706F
:1036B400012100F095FE4FF48070002100F090FE8F
:1036C4000837BD4680BD00BF00080140000C014022
:1036D400001001400014014000180140001C01408A
:1036E4000020014080B500AF0120012100F078FEE8
:1036F4000120002100F074FE80BD00BF80B489B0B9
:1037040000AF786039600023FB6100233B61002334
:10371400BB610023FB6000237B610023BB603B682B
:10372400DB7803F00F03FB613B68DB7803F01003E5
:10373400002B05D03B689B781A46FB691343FB6159
:103744003B681B88DBB2002B44D07B681B687B6121
:103754000023BB6138E0BB69012202FA03F3FB607A
:103764003B681B881A46FB6813403B613A69FB6857
:103774009A4226D1BB699B00FB60FB680F2202FAC8
:1037840003F3BB60BB68DB437A6913407B61FB686E
:10379400FA6902FA03F37A6913437B613B68DB78C5
:1037A400282B05D1BB6901229A407B685A6108E045
:1037B4003B68DB78482B04D1BB6901229A407B68C3
:1037C4001A61BB690133BB61BB69072BC3D97B6831
:1037D4007A691A603B681B88FF2B4AD97B685B684F
:1037E4007B610023BB613EE0BB6908331A460123B9
:1037F4009340FB603B681B881A46FB6813403B619F
:103804003A69FB689A422BD1BB699B00FB60FB6859
:103814000F2202FA03F3BB60BB68DB437A691340EF
:103824007B61FB68FA6902FA03F37A6913437B61EB
:103834003B68DB78282B07D1BB6908331A46012380
:1038440003FA02F27B685A613B68DB78482B07D1A4
:10385400BB6908331A46012303FA02F27B681A6132
:10386400BB690133BB61BB69072BBDD97B687A692E
:103874005A602437BD465DF8047B704780B483B03A
:1038840000AF78607B684FF6FF721A807B68022273
:103894009A707B680422DA700C37BD465DF8047BAD
:1038A400704700BF80B485B000AF78600B467B8062
:1038B4000023FB737B689A687B881340002B02D03B
:1038C4000123FB7301E00023FB73FB7B18461437D1
:1038D400BD465DF8047B704780B483B000AF786068
:1038E4007B689B689BB218460C37BD465DF8047B29
:1038F400704700BF80B485B000AF78600B467B8012
:103904000023FB737B68DA687B881340002B02D0AA
:103914000123FB7301E00023FB73FB7B1846143780
:10392400BD465DF8047B704780B483B000AF786017
:103934007B68DB689BB218460C37BD465DF8047B98
:10394400704700BF80B483B000AF78600B467B80C3
:103954007A887B681A610C37BD465DF8047B704732
:1039640080B483B000AF78600B467B807A887B6834
:103974005A610C37BD465DF8047B704780B483B050
:1039840000AF78600B467B8013467B707B78002BFE
:1039940003D07A887B681A6102E07A887B685A616E
:1039A4000C37BD465DF8047B704700BF80B483B01C
:1039B40000AF78600B467B807A887B68DA600C37CE
:1039C400BD465DF8047B704780B485B000AF786075
:1039D4000B467B804FF48033FB607B88FA6813438B
:1039E400FB607B68FA689A617A887B689A617B6875
:1039F400FA689A617B689B69FB607B689B69FB60E2
:103A04001437BD465DF8047B704700BF80B485B0B1
:103A140000AF03460A46FB711346BB710023FB60EB
:103A24000C4B1B68FB60FA684FF680731340FB6015
:103A3400FB791B01FA681343FB60BB79FA681343F3
:103A4400FB60044AFB6813601437BD465DF8047BD1
:103A5400704700BF0000014080B483B000AF03464C
:103A6400FB71044AFB7913600C37BD465DF8047B97
:103A7400704700BF1C00204280B487B000AF78605C
:103A84000B46FB7000233B610023FB6000237B613A
:103A94000023BB607B68002B03DA2E4BDB697B6160
:103AA40002E02C4B5B687B617B6803F470231B0C86
:103AB400BB607B689BB23B617B6803F44013B3F546
:103AC400401F0AD17B6923F070637B61214A214B3B
:103AD4005B6823F07063536021E07B6803F4801318
:103AE400002B0ED0BB68032202FA03F3FB60FB68D1
:103AF400DB437A6913407B617B6943F070637B61CC
:103B04000DE07B685B0D1B011A463B699340DB4368
:103B14007A6913407B617B6943F070637B61FB7856
:103B2400002B08D07B685B0D1B011A463B69934050
:103B34007A6913437B617B68002B03DA054A7B694E
:103B4400D36102E0034A7B6953601C37BD465DF8CC
:103B5400047B70470000014090B484B000AF03467A
:103B64000A46FB711346BB710023FB60BB7903F06B
:103B740003039B000F2202FA03F3FB601649BB798F
:103B84009B08DBB21846144ABB799B08DBB20233AC
:103B940052F82320FB68DB431A40831C41F823209E
:103BA4000D48BB799B08DBB21C460B4ABB799B08CA
:103BB400DBB2023352F82320F979BB7903F0030313
:103BC4009B0001FA03F31A43A31C40F82320103787
:103BD400BD4690BC704700BF0000014080B483B074
:103BE40000AF7860034A7B6813600C37BD465DF80C
:103BF400047B7047DC00204280B400AF30BFBD4678
:103C04005DF8047B704700BF80B400AF20BFBD46A1
:103C14005DF8047B704700BF80B500AF4FF0805063
:103C2400012100F0FBFB4FF08050002100F0F6FB77
:103C340080BD00BF80B483B000AF0346FB71044A6B
:103C4400FB7913600C37BD465DF8047B704700BFF9
:103C540020000E4280B483B000AF0346FB71044AD7
:103C6400FB7913600C37BD465DF8047B704700BFD9
:103C740010000E4280B485B000AF78600023FB6072
:103C8400094B1B68FB60FB6823F0E003FB60FA68E8
:103C94007B681343FB60044AFB6813601437BD461A
:103CA4005DF8047B704700BF0070004080B483B0AF
:103CB40000AF0346FB71044AFB7913600C37BD4621
:103CC4005DF8047B704700BFA0000E4280B584B04D
:103CD40000AF78600B46FB700023FB60124B1B683F
:103CE400FB60FB6823F00303FB60FA687B68134303
:103CF400FB600D4AFB6813600C4A0C4B1B6943F0D4
:103D040004031361FB78012B02D1FFF775FF01E077
:103D1400FFF77AFF054A054B1B6923F0040313617F
:103D24001037BD4680BD00BF0070004000ED00E0CC
:103D340080B500AF0A4A0A4B1B6843F004031360C2
:103D4400074A074B1B6843F002031360054A054BFF
:103D54001B6943F004031361FFF74EFF80BD00BFEE
:103D64000070004000ED00E080B485B000AF7860E2
:103D74000023FB73084B5A687B681340002B02D066
:103D84000123FB7301E00023FB73FB7B184614370C
:103D9400BD465DF8047B70470070004080B483B07A
:103DA40000AF78600549054B1A687B689B00134394
:103DB4000B600C37BD465DF8047B70470070004013
:103DC40080B400AF134A134B1B6843F00103136024
:103DD4001049104B5A68104B13404B600D4A0D4B61
:103DE4001B6823F0847323F480331360094A094B5E
:103DF4001B6823F480231360064A064B5B6823F494
:103E0400FE035360034B4FF41F029A60BD465DF8F6
:103E1400047B7047001002400000FFF880B483B0B8
:103E240000AF7860134A134B1B6823F4803313608C
:103E3400104A104B1B6823F4802313607B68B3F58E
:103E4400803F03D0B3F5802F07D00DE0094A094B1A
:103E54001B6843F48033136006E0064A054B1B6875
:103E640043F4A023136000BF0C37BD465DF8047B08
:103E7400704700BF0010024080B582B000AF00233D
:103E84003B600023FB710023BB71312000F014FB65
:103E94000346BB713B6801333B603B68B3F5A06FDD
:103EA40002D0BB79002BF0D0312000F005FB034693
:103EB400002B02D00123FB7101E00023FB71FB798D
:103EC40018460837BD4680BD80B485B000AF0346B0
:103ED400FB710023FB600A4B1B68FB60FB6823F04B
:103EE400F803FB60FB79DB00FA681343FB60044AC8
:103EF400FB6813601437BD465DF8047B704700BF50
:103F04000010024080B483B000AF0346FB71044A42
:103F1400FB7913600C37BD465DF8047B704700BF26
:103F24000000424280B485B000AF7860396000235D
:103F3400FB600A4B5B68FB60FB6823F47C13FB604B
:103F44007A683B681343FA681343FB60034AFB68CF
:103F540053601437BD465DF8047B7047001002407F
:103F640080B483B000AF0346FB71044AFB7913604D
:103F74000C37BD465DF8047B704700BF60004242C9
:103F840080B485B000AF78600023FB60094B5B68A8
:103F9400FB60FB6823F00303FB60FA687B68134350
:103FA400FB60044AFB6853601437BD465DF8047B2C
:103FB400704700BF0010024080B400AF054B5B683F
:103FC400DBB203F00C03DBB21846BD465DF8047B9C
:103FD400704700BF0010024080B485B000AF786025
:103FE4000023FB60094B5B68FB60FB6823F0F00374
:103FF400FB60FA687B681343FB60044AFB68536008
:104004001437BD465DF8047B704700BF00100240C2
:1040140080B485B000AF78600023FB60094B5B6817
:10402400FB60FB6823F4E063FB60FA687B6813437E
:10403400FB60044AFB6853601437BD465DF8047B9B
:10404400704700BF0010024080B485B000AF7860B4
:104054000023FB60094B5B68FB60FB6823F460533F
:10406400FB607B68DB00FA681343FB60034AFB6870
:1040740053601437BD465DF8047B7047001002405E
:1040840080B483B000AF03460A46FB711346BB718C
:10409400BB79002B08D00C490B4B1B78DAB2FB79A7
:1040A4001343DBB20B7009E00749074B1B78DAB204
:1040B400FB79DB43DBB21340DBB20B700C37BD463C
:1040C4005DF8047B704700BF0910024080B483B0E0
:1040D40000AF7860034A7B6813600C37BD465DF817
:1040E400047B7047D800424280B485B000AF78604A
:1040F4000023FB60094B5B68FB60FB6823F44043CF
:10410400FB60FA687B681343FB60044AFB685360F6
:104114001437BD465DF8047B704700BF00100240B1
:1041240080B483B000AF0346FB710C4B00221A70BD
:104134000A4B00221A70FB79012B02D0042B04D005
:1041440007E0064B01221A7003E0044B05221A70A3
:1041540000BF0C37BD465DF8047B70472010024059
:1041640080B483B000AF0346FB71044AFB7913604B
:104174000C37BD465DF8047B704700BF80044242A3
:1041840080B483B000AF78600549054B1A6A7B6838
:1041940013430B620C37BD465DF8047B704700BFC8
:1041A4000010024080B483B000AF0346FB71044AA0
:1041B400FB7913600C37BD465DF8047B704700BF84
:1041C4003C04424280B487B000AF786000237B6136
:1041D40000233B610023FB600023BB604D4B5B6805
:1041E40003F00C037B617B69042B07D0082B09D0F7
:1041F400002B34D17B68484A1A6034E07B68474A14
:104204001A6030E0434B5B6803F470133B61414B2D
:104214005B6803F48033FB603B699B0C02333B61B6
:10422400FB68002B06D13B693D4A02FB03F27B6825
:104234001A6013E0374B5B6803F40033002B06D09D
:104244003B69354A02FB03F27B681A6006E03B696E
:10425400324A02FB03F27B681A6004E003E07B68E5
:104264002D4A1A6000BF2B4B5B6803F0F0037B619F
:104274007B691B097B612B4A7B6913441B78DBB286
:10428400BB607B681A68BB68DA407B685A60214B64
:104294005B6803F4E0637B617B691B0A7B61214AF1
:1042A4007B6913441B78DBB2BB607B685A68BB68CC
:1042B400DA407B689A60174B5B6803F460537B6158
:1042C4007B69DB0A7B61174A7B6913441B78DBB289
:1042D400BB607B685A68BB68DA407B68DA600D4B68
:1042E4005B6803F440437B617B699B0B7B610E4AF3
:1042F4007B6913441B78DBB2BB607B68DA68BB68FC
:10430400B2FBF3F27B681A611C37BD465DF8047B8F
:10431400704700BF0010024000127A000024F4002D
:1043240000093D00080000201800002080B483B07C
:1043340000AF78600B46FB70FB78002B06D0094970
:10434400084B5A697B6813434B6106E00549054BEA
:104354005A697B68DB4313404B610C37BD465DF8FB
:10436400047B70470010024080B483B000AF7860D3
:104374000B46FB70FB78002B06D00949084B9A6961
:104384007B6813438B6106E00549054B9A697B689A
:10439400DB4313408B610C37BD465DF8047B7047EB
:1043A4000010024080B483B000AF78600B46FB700D
:1043B400FB78002B06D00949084BDA697B68134364
:1043C400CB6106E00549054BDA697B68DB431340A2
:1043D400CB610C37BD465DF8047B7047001002408A
:1043E40080B483B000AF78600B46FB70FB78002B81
:1043F40006D00949084BDA687B681343CB6006E0B2
:104404000549054BDA687B68DB431340CB600C3706
:10441400BD465DF8047B70470010024080B483B051
:1044240000AF78600B46FB70FB78002B06D009497F
:10443400084B1A697B6813430B6106E00549054B79
:104444001A697B68DB4313400B610C37BD465DF88A
:10445400047B70470010024080B483B000AF034671
:10446400FB71044AFB7913600C37BD465DF8047B8D
:10447400704700BF4004424280B483B000AF03469B
:10448400FB71044AFB7913600C37BD465DF8047B6D
:10449400704700BF4C00424280B483B000AF034673
:1044A400FB71044AFB7913700C37BD465DF8047B3D
:1044B400704700BF0710024080B487B000AF0346C6
:1044C400FB710023FB6000237B610023FB74FB79F9
:1044D4005B09DBB2FB60FB68012B03D1124B1B6849
:1044E4007B6109E0FB68022B03D10F4B1B6A7B61E4
:1044F40002E00D4B5B6A7B61FB7903F01F03FB60F9
:10450400FB687A6922FA03F303F00103002B02D05B
:104514000123FB7401E00023FB74FB7C18461C3769
:10452400BD465DF8047B70470010024080B400AFC4
:10453400044A044B5B6A43F080735362BD465DF8E2
:10454400047B70470010024080B485B000AF03467E
:10455400FB710023FB73094B9A68FB791340002B12
:1045640002D00123FB7301E00023FB73FB7B18469D
:104574001437BD465DF8047B704700BF001002404D
:1045840080B483B000AF0346FB71044AFB79137017
:104594000C37BD465DF8047B704700BF0A1002402B
:1045A40080B483B000AF03460A46FB8013467B7198
:1045B4007B79002B08D00C490B4B1B889AB2FB88E3
:1045C40013439BB20B8009E00749074B1B889AB23F
:1045D400FB88DB439BB213409BB20B800C37BD4678
:1045E4005DF8047B704700BF0028004080B400AF32
:1045F400054A054B9B889BB243F010039BB2938002
:10460400BD465DF8047B70470028004080B400AFCD
:10461400054A054B9B889BB223F010039BB2938001
:10462400BD465DF8047B70470028004080B483B029
:1046340000AF0023FB80074B9B8BFB80054B1B8B40
:104644009BB21A04FB88134318460C37BD465DF829
:10465400047B70470028004080B582B000AF7860CA
:10466400FFF7C4FF064A7B681B0C9BB21383044B01
:104674007A6892B29A83FFF7C9FF0837BD4680BDB6
:104684000028004080B582B000AF7860FFF7AEFF2D
:10469400074A7B6803F470231B0C9BB21381044B01
:1046A4007A6892B29A81FFF7B1FF0837BD4680BDA0
:1046B4000028004080B582B000AF7860FFF796FF15
:1046C400064A7B681B0C9BB21384044B7A6892B233
:1046D4009A84FFF79BFF0837BD4680BD0028004041
:1046E40080B483B000AF00237B600A4B1B8A9BB26B
:1046F40003F00F031B047B60064B9B8A9BB21A4694
:104704007B6813437B607B6818460C37BD465DF8B5
:10471400047B70470028004080B400AF00BF054B05
:104724009B889BB203F02003002BF8D0BD465DF8B4
:10473400047B70470028004080B400AF094A094B4D
:104744009B889BB223F008039BB2938000BF054B68
:104754009B889BB203F00803002BF8D0BD465DF89C
:10476400047B70470028004080B485B000AF034646
:10477400FB800023FB730A4B9B889AB2FB8813408F
:104784009BB2002B02D00123FB7301E00023FB73D7
:10479400FB7B18461437BD465DF8047B704700BFA9
:1047A4000028004080B483B000AF0346FB80074973
:1047B400064B9B889AB2FB88DB439BB213409BB2A7
:1047C4008B800C37BD465DF8047B704700280040A1
:1047D40080B485B000AF0346FB800023FB730F4B0E
:1047E4009B889BB2DAB2FB88DBB21340FB730B4BA2
:1047F4001B889AB2FB8813409BB2002B05D0FB7B2D
:10480400002B02D00123FB7301E00023FB73FB7B2D
:1048140018461437BD465DF8047B704700280040F5
:1048240080B483B000AF0346FB800749064B9B88E6
:104834009AB2FB88DB439BB213409BB28B800C374C
:10484400BD465DF8047B70470028004080B483B007
:1048540000AF0023FB80074B9B8CFB80054B1B8C1C
:104864009BB21A04FB88134318460C37BD465DF807
:10487400047B70470028004080B582B000AF7860A8
:104884007B68174A93420AD14FF480500121FFF705
:10489400A7FD4FF480500021FFF7A2FD1CE07B68C8
:1048A400104A93420AD14FF480400121FFF7B6FD2C
:1048B4004FF480400021FFF7B1FD0DE07B680A4A08
:1048C400934209D14FF400400121FFF7A7FD4FF4B3
:1048D40000400021FFF7A2FD0837BD4680BD00BFA0
:1048E4000030014000380040003C004080B485B0F6
:1048F40000AF786039600023FB817B681B88FB81F3
:10490400FB8903F44153FB813B681A883B685B884D
:1049140013439AB23B689B8813439AB23B68DB8883
:1049240013439AB23B681B8913439AB23B685B8971
:1049340013439AB23B689B8913439AB23B68DB8961
:1049440013439AB2FB891343FB817B68FA891A806B
:104954007B689B8B9BB223F400639AB27B689A8337
:104964003B681A8A7B681A821437BD465DF8047B5B
:10497400704700BF80B58CB000AF78603960002309
:104984007B840223FB850023BB8501237B850023D5
:104994007B620023FB617B689B8B9BB223F47B636C
:1049A40023F00F039AB27B689A837B6802221A84ED
:1049B4007B689B8B7B843B689B68022B04D1002320
:1049C400BB850223FB8555E03B689B88002B02D105
:1049D40001237B8501E002237B857B683C4A93426B
:1049E40003D14FF400337B6202E04FF480237B62F7
:1049F40007F108031846FFF7E5FBBB68FB613B685A
:104A0400DB88B3F5007F0FD1FB691A0A13469B00BC
:104A140013445B001A463B689B68B2FBF3F39BB2FA
:104A240005339BB27B6212E07B8D5B011A46FB6906
:104A3400B3FBF2F213469B0013445B001A463B6837
:104A44009B68B2FBF3F39BB205339BB27B627B6A38
:104A5400204AA2FB0323DB087B627B6A9BB203F040
:104A64000103BB85BB8D7A6AD31A5B08FB85BB8DBA
:104A74001B02BB85FB8D012B02D9FB8DFF2B03D9B8
:104A84000223FB850023BB853B68DA88BB8D134377
:104A94009AB2FB8D13439AB27B681A843B681A88D6
:104AA4003B6859883B6898883B689B8903439BB261
:104AB4000B439BB213439AB27B8C13439BB243F4D4
:104AC40000637B847B687A8C9A833037BD4680BDD3
:104AD40000380040CDCCCCCC80B483B000AF78603B
:104AE4007B6800221A807B6800225A807B6800223F
:104AF4009A807B680022DA807B6800221A817B68B6
:104B040000225A817B6800229A817B680022DA8124
:104B14007B6807221A820C37BD465DF8047B704718
:104B240080B483B000AF78607B6800221A807B6811
:104B340000225A807B6800229A807B680022DA80F7
:104B44007B6802229A607B6800229A810C37BD46FA
:104B54005DF8047B704700BF80B483B000AF786019
:104B64000B46FB70FB78002B08D07B681B889BB23C
:104B740043F040039AB27B681A8007E07B681B8885
:104B84009BB223F040039AB27B681A800C37BD466F
:104B94005DF8047B704700BF80B483B000AF7860D9
:104BA4000B46FB70FB78002B08D07B689B8B9BB279
:104BB40043F480639AB27B689A8307E07B689B8B9B
:104BC4009BB223F480639AB27B689A830C37BD4608
:104BD4005DF8047B704700BF80B485B000AF786097
:104BE4000B46FB701346BB700023FB810023BB8183
:104BF400FB781B09DBB2FB81FB89012202FA03F378
:104C0400BB81BB78002B08D07B689B889AB2BB8998
:104C140013439AB27B689A8009E07B689B889AB2B6
:104C2400BB89DB439BB213409AB27B689A801437EA
:104C3400BD465DF8047B704780B483B000AF7860F4
:104C44000B467B8013467B707B78002B08D07B68F7
:104C54009B889AB27B8813439AB27B689A8009E056
:104C64007B689B889AB27B88DB439BB213409AB2E1
:104C74007B689A800C37BD465DF8047B704700BFA3
:104C840080B483B000AF78600B467B807B687A8801
:104C94009A810C37BD465DF8047B704780B483B0BD
:104CA40000AF78607B689B899BB218460C37BD4681
:104CB4005DF8047B704700BF80B483B000AF7860B8
:104CC4000B467B807B884FF6FF62934208D07B685B
:104CD4001B889BB243F480739AB27B681A8007E006
:104CE4007B681B889BB223F480739AB27B681A801A
:104CF4000C37BD465DF8047B704700BF80B483B0B9
:104D040000AF78600B46FB70FB78002B08D07B6803
:104D14009B889BB243F004039AB27B689A8007E0B5
:104D24007B689B889BB223F004039AB27B689A80C9
:104D34000C37BD465DF8047B704700BF80B483B078
:104D440000AF78600B467B807B681B889BB223F4A2
:104D540000639AB27B681A807B681B889AB27B884E
:104D640013439AB27B681A800C37BD465DF8047B06
:104D7400704700BF80B483B000AF78607B681B8845
:104D84009BB243F480539AB27B681A800C37BD46B9
:104D94005DF8047B704700BF80B483B000AF7860D7
:104DA4000B46FB70FB78002B08D07B681B889BB2FA
:104DB40043F400539AB27B681A8007E07B681B882F
:104DC4009BB223F400539AB27B681A800C37BD4619
:104DD4005DF8047B704700BF80B485B000AF786095
:104DE4000B46FB700023FB81FB78012B03D07B680F
:104DF4001B8BFB8102E07B689B8AFB81FB89184645
:104E04001437BD465DF8047B704700BF80B483B09F
:104E140000AF78607B681B8A9BB218460C37BD468E
:104E24005DF8047B704700BF80B483B000AF786046
:104E34000B467B807B88B3F5804F08D17B681B8849
:104E44009BB243F480439AB27B681A8007E07B6884
:104E54001B889BB223F480439AB27B681A800C3778
:104E6400BD465DF8047B704780B485B000AF7860C0
:104E74000B467B800023FB737B681B899AB27B887B
:104E840013409BB2002B02D00123FB7301E00023EB
:104E9400FB73FB7B18461437BD465DF8047B7047F3
:104EA40080B483B000AF78600B467B807B88DB43A3
:104EB4009AB27B681A810C37BD465DF8047B704753
:104EC40080B485B000AF78600B46FB700023FB73A1
:104ED4000023BB8100237B8100233B81FB7803F00B
:104EE4000F03012202FA03F3BB81FB781B09DBB237
:104EF4007B817B89012202FA03F37B817B689B8897
:104F04009AB27B8913403B817B681B899AB2BB8927
:104F140013409BB2002B05D03B89002B02D0012308
:104F2400FB7301E00023FB73FB7B18461437BD467B
:104F34005DF8047B704700BF80B485B000AF786033
:104F44000B46FB700023FB81FB7803F00F03012267
:104F540002FA03F3FB81FB89DB439AB27B681A8173
:104F64001437BD465DF8047B704700BF80B582B03E
:104F740000AF78607B68784A93420AD14FF40060AE
:104F84000121FFF72DFA4FF400600021FFF728FA02
:104F9400DEE07B68B3F1804F08D101200121FFF7E7
:104FA4003DFA01200021FFF739FAD1E07B686B4A12
:104FB400934208D102200121FFF730FA0220002198
:104FC400FFF72CFAC4E07B68654A934208D10420B9
:104FD4000121FFF723FA04200021FFF71FFAB7E0AD
:104FE4007B68604A934208D108200121FFF716FA32
:104FF40008200021FFF712FAAAE07B685A4A93427C
:1050040008D110200121FFF709FA10200021FFF731
:1050140005FA9DE07B68554A934208D1202001217E
:10502400FFF7FCF920200021FFF7F8F990E07B68F6
:105034004F4A93420AD14FF400500121FFF7D0F9AF
:105044004FF400500021FFF7CBF981E07B68494A17
:1050540093420AD14FF400200121FFF7C1F94FF424
:1050640000200021FFF7BCF972E07B68424A9342BA
:105074000AD14FF480100121FFF7B2F94FF48010E8
:105084000021FFF7ADF963E07B683C4A93420AD103
:105094004FF400100121FFF7A3F94FF40010002191
:1050A400FFF79EF954E07B68354A934208D14020CB
:1050B4000121FFF7B3F940200021FFF7AFF947E0E2
:1050C4007B68304A934208D180200121FFF7A6F97A
:1050D40080200021FFF7A2F93AE07B682A4A934234
:1050E4000AD14FF480700121FFF798F94FF48070D2
:1050F4000021FFF793F92BE07B68244A93420AD1FD
:105104004FF480300121FFF76BF94FF48030002118
:10511400FFF766F91CE07B681D4A93420AD14FF4FD
:1051240000300121FFF75CF94FF400300021FFF754
:1051340057F90DE07B68174A934209D14FF4802058
:105144000121FFF74DF94FF480200021FFF748F9C2
:105154000837BD4680BD00BF002C0140000400405C
:1051640000080040000C0040001000400014004003
:1051740000340140004C0140005001400054014003
:1051840000180040001C0040002000400040014086
:10519400004401400048014080B485B000AF78600D
:1051A40039600023FB817B681B88FB817B682E4A66
:1051B400934213D07B682D4A93420FD07B68B3F19E
:1051C400804F0BD07B682A4A934207D07B68294AD8
:1051D400934203D07B68284A934208D1FB8923F089
:1051E4007003FB813B685A88FB891343FB817B680E
:1051F400224A93420CD07B68214A934208D0FB890F
:1052040023F44073FB813B68DA88FB891343FB81F9
:105214007B68FA891A803B689A887B689A853B6820
:105224001A887B681A857B680F4A93420FD07B6883
:105234000E4A93420BD07B68124A934207D07B6894
:10524400114A934203D07B68104A934204D13B68CD
:105254001B7A9AB27B681A867B6801229A82143779
:10526400BD465DF8047B7047002C014000340140CA
:105274000004004000080040000C00400010004002
:105284000014004000400140004401400048014037
:1052940080B485B000AF7860396000237B8100233F
:1052A400FB810023BB817B681B8C9BB223F0010331
:1052B4009AB27B681A847B681B8CFB817B689B8811
:1052C400BB817B681B8B7B817B8923F070037B8193
:1052D4007B8923F003037B813B681A887B89134312
:1052E4007B81FB8923F00203FB813B681A89FB89DC
:1052F4001343FB813B685A88FB891343FB817B681A
:10530400244A93420FD07B68234A93420BD07B6894
:10531400224A934207D07B68214A934203D07B6898
:10532400204A934223D1FB8923F00803FB813B6885
:105334005A89FB891343FB81FB8923F00403FB8116
:105344003B689A88FB891343FB81BB8923F48073F0
:10535400BB81BB8923F40073BB813B689A89BB89F9
:105364001343BB813B68DA89BB891343BB817B68E8
:10537400BA899A807B687A891A833B68DA887B6861
:105384009A867B68FA891A841437BD465DF8047BD3
:10539400704700BF002C0140003401400040014030
:1053A400004401400048014080B485B000AF7860FB
:1053B400396000237B810023FB810023BB817B6850
:1053C4001B8C9BB223F010039AB27B681A847B680F
:1053D4001B8CFB817B689B88BB817B681B8B7B81DF
:1053E4007B8923F4E0437B817B8923F440737B81B5
:1053F4003B681B881B029AB27B8913437B81FB8920
:1054040023F02003FB813B681B891B019AB2FB89B3
:105414001343FB813B685B881B019AB2FB891343EE
:10542400FB817B68224A934203D07B68214A9342E2
:105434002BD1FB8923F08003FB813B685B891B0133
:105444009AB2FB891343FB81FB8923F04003FB8160
:105454003B689B881B019AB2FB891343FB81BB8980
:1054640023F48063BB81BB8923F40063BB813B6865
:105474009B899B009AB2BB891343BB813B68DB8940
:105484009B009AB2BB891343BB817B68BA899A801B
:105494007B687A891A833B68DA887B681A877B6819
:1054A400FA891A841437BD465DF8047B704700BF3F
:1054B400002C01400034014080B485B000AF786016
:1054C400396000237B810023FB810023BB817B683F
:1054D4001B8C9BB223F480739AB27B681A847B681A
:1054E4001B8CFB817B689B88BB817B689B8B7B814E
:1054F4007B8923F070037B817B8923F003037B8109
:105504003B681A887B8913437B81FB8923F40073EE
:10551400FB813B681B891B029AB2FB891343FB8105
:105524003B685B881B029AB2FB891343FB817B684F
:10553400224A934203D07B68214A93422BD1FB89B0
:1055440023F40063FB813B685B891B029AB2FB89ED
:105554001343FB81FB8923F48063FB813B689B88B5
:105564001B029AB2FB891343FB81BB8923F480534A
:10557400BB81BB8923F40053BB813B689B891B011E
:105584009AB2BB891343BB813B68DB891B019AB286
:10559400BB891343BB817B68BA899A807B687A890B
:1055A4009A833B68DA887B689A877B68FA891A84CD
:1055B4001437BD465DF8047B704700BF002C0140E2
:1055C4000034014080B485B000AF786039600023B6
:1055D400BB8100237B810023FB817B681B8C9BB2F6
:1055E40023F480539AB27B681A847B681B8C7B817A
:1055F4007B689B88FB817B689B8BBB81BB8923F485
:10560400E043BB81BB8923F44073BB813B681B88A7
:105614001B029AB2BB891343BB817B8923F40053D9
:105624007B813B681B891B039AB27B8913437B8173
:105634003B685B881B039AB27B8913437B817B683D
:10564400124A934203D07B68114A93420AD1FB89E0
:1056540023F48043FB813B689B899B019AB2FB89BD
:105664001343FB817B68FA899A807B68BA899A83A1
:105674003B68DA887B68A3F840207B687A891A84BF
:105684001437BD465DF8047B704700BF002C014011
:105694000034014080B582B000AF786039603B6867
:1056A4001B88002B0FD13B6859883B689A883B685C
:1056B4001B89786801F086F93B68DB8878681946AD
:1056C40001F036F836E03B681B88042B0FD13B68A9
:1056D40059883B689A883B681B89786801F0E2F92D
:1056E4003B68DB887868194601F03EF822E03B68A5
:1056F4001B88082B0FD13B6859883B689A883B6804
:105704001B89786801F048FA3B68DB887868194699
:1057140001F048F80EE03B6859883B689A883B687A
:105724001B89786801F0AEFA3B68DB887868194613
:1057340001F054F80837BD4680BD00BF80B584B081
:1057440000AF786039600023FB810123BB813B6893
:105754005B88002B02D10223FB8101E00023FB8143
:105764003B689B88012B02D10223BB8101E001230A
:10577400BB813B681B88002B1CD13B6859883B6864
:105784009A883B681B89786801F01CF93B68DB88C0
:105794007868194600F0CCFF3B681B89F989BA89FF
:1057A400786801F07FF93B68DB887868194600F077
:1057B400DBFF1BE03B6859883B689A883B681B8980
:1057C400786801F06FF93B68DB887868194600F067
:1057D400CBFF3B681B89F989BA89786801F0F2F834
:1057E4003B68DB887868194600F0A2FF1037BD4695
:1057F40080BD00BF80B483B000AF786039603B687F
:105804001A883B685B8813439AB23B689B881343AE
:105814009AB23B68DB8813439AB23B681B891343F3
:105824009AB23B685B8913439AB23B689B891343E2
:105834009AB27B68A3F844200C37BD465DF8047B1C
:10584400704700BF80B483B000AF78607B684FF6C8
:10585400FF729A807B6800221A807B680022DA80BB
:105864007B6800225A807B6800221A720C37BD467E
:105874005DF8047B704700BF80B483B000AF7860EC
:105884007B6800221A807B6800225A807B68002291
:105894009A807B680022DA807B6800221A817B6808
:1058A40000225A817B6800229A817B680022DA8177
:1058B4000C37BD465DF8047B704700BF80B483B0ED
:1058C40000AF78607B6800221A807B6800225A80CF
:1058D4007B6801229A807B680022DA807B68002240
:1058E4001A810C37BD465DF8047B704780B483B0E1
:1058F40000AF78607B6800221A807B6800225A809F
:105904007B6800229A807B680022DA807B68002210
:105914001A817B6800225A817B6800229A810C37A5
:10592400BD465DF8047B704780B483B000AF7860F7
:105934000B46FB70FB78002B08D07B681B889BB25E
:1059440043F001039AB27B681A8007E07B681B88E6
:105954009BB223F001039AB27B681A800C37BD46D0
:105964005DF8047B704700BF80B483B000AF7860FB
:105974000B46FB70FB78002B0CD07B68B3F84430EB
:105984009BB26FEA43436FEA53439AB27B68A3F82E
:10599400442009E07B68B3F844309BB2C3F30E03A0
:1059A4009AB27B68A3F844200C37BD465DF8047BAB
:1059B400704700BF80B483B000AF78600B467B8033
:1059C40013467B707B78002B08D07B689B899AB246
:1059D4007B8813439AB27B689A8109E07B689B8930
:1059E4009AB27B88DB439BB213409AB27B689A815C
:1059F4000C37BD465DF8047B704700BF80B483B0AC
:105A040000AF78600B467B807B687A889A820C377B
:105A1400BD465DF8047B704780B483B000AF786006
:105A24000B467B8013463B807A883B8813439AB2AB
:105A34007B68A3F848200C37BD465DF8047B7047AB
:105A440080B483B000AF78600B467B8013467B70D4
:105A54007B78002B08D07B689B899AB27B881343A0
:105A64009AB27B689A8109E07B689B899AB27B88A9
:105A7400DB439BB213409AB27B689A810C37BD46D4
:105A84005DF8047B704700BF80B483B000AF7860DA
:105A94007B681B899BB223F007039AB27B681A8147
:105AA4000C37BD465DF8047B704700BF80B582B0FB
:105AB40000AF78600B467B807B887868194600F0DD
:105AC400E1F87B681B899BB243F007039AB27B68B9
