:020000040800F2
:1000000000000120E17B0008F9010008050200085A
:100010001102000819020008210200080000000077
:10002000000000000000000000000000290200089D
:100030003502000800000000410200084D020008DF
:100040005902000865020008710200087D020008DC
:1000500099020008A5020008B1020008BD020008CC
:10006000C9020008D5020008E102000805030008E3
:10007000110300081D0300082903000835030008C8
:10008000410300084D03000859030008217C0008C3
:10009000217C0008217C0008217C000895030008D1
:1000A000A1030008AD030008B9030008C503000858
:1000B000D1030008FD0300081D04000829040008FE
:1000C00035040008410400084D04000859040008E4
:1000D0007D04000889040008C9040008D50400084C
:1000E000E1040008ED0400081505000821050008DA
:1000F0002D050008390500084505000851050008D0
:100100005D050008690500087505000881050008FF
:100110008D05000899050008A5050008B10500082F
:10012000BD050008C9050008D5050008E10500085F
:1001300000000000000000000000000000000000BF
:1001400000000000000000000000000000000000AF
:10015000000000000000000000000000000000009F
:10016000000000000000000000000000000000008F
:10017000000000000000000000000000000000007F
:10018000000000000000000000000000000000006F
:10019000000000000000000000000000000000005F
:1001A000000000000000000000000000000000004F
:1001B000000000000000000000000000000000003F
:1001C000000000000000000000000000000000002F
:1001D000000000000000000000000000000000001F
:0401E0005FF8E0F1F3
:1001E4006E890008000000201C0000201C00002074
:1001F4001C03002080B400AFBD465DF8047B70474B
:1002040080B500AF01F000FB80BD00BF80B400AF3B
:10021400FEE700BF80B400AFFEE700BF80B400AFCC
:10022400FEE700BF80B400AFBD465DF8047B7047B5
:1002340080B400AFBD465DF8047B704780B400AF66
:10024400BD465DF8047B704780B400AFBD465DF8E1
:10025400047B704780B400AFBD465DF8047B7047F3
:1002640080B400AFBD465DF8047B704780B400AF36
:10027400BD465DF8047B704780B500AF022004F0F2
:1002840011FA0346002B04D0022004F067FA04F0AC
:10029400E1F980BD80B400AFBD465DF8047B7047D2
:1002A40080B400AFBD465DF8047B704780B400AFF6
:1002B400BD465DF8047B704780B400AFBD465DF871
:1002C400047B704780B400AFBD465DF8047B704783
:1002D40080B400AFBD465DF8047B704780B500AFC5
:1002E400102002F043FC0346002B08D001F0BEFBB3
:1002F400102002F05FFC07F0BFFB01F0B1FB80BDF2
:1003040080B400AFBD465DF8047B704780B400AF95
:10031400BD465DF8047B704780B400AFBD465DF810
:10032400047B704780B400AFBD465DF8047B704722
:1003340080B400AFBD465DF8047B704780B400AF65
:10034400BD465DF8047B704780B400AFBD465DF8E0
:10035400047B704780B400AFBD465DF8047B7047F2
:1003640080B400AFBD465DF8047B704780B400AF35
:10037400BD465DF8047B704780B400AFBD465DF8B0
:10038400047B704780B400AFBD465DF8047B7047C2
:1003940080B400AFBD465DF8047B704780B400AF05
:1003A400BD465DF8047B704780B400AFBD465DF880
:1003B400047B704780B400AFBD465DF8047B704792
:1003C40080B400AFBD465DF8047B704780B500AFD4
:1003D40001F04CFB4FF08040022106F02BFA03465B
:1003E400002B06D04FF08040022106F03FFA01F0C6
:1003F400D9FA01F035FB80BD80B500AF0548022174
:1004040006F018FA0346002B03D00248022106F036
:100414002DFA80BD0004004080B400AFBD465DF8F5
:10042400047B704780B400AFBD465DF8047B704721
:1004340080B400AFBD465DF8047B704780B400AF64
:10044400BD465DF8047B704780B400AFBD465DF8DF
:10045400047B704780B500AF01F008FB054801211B
:1004640004F0A0FC0346002B01D002F0CFF801F009
:10047400F7FA80BD0030014080B400AFBD465DF89E
:10048400047B704780B500AF01F0F0FA0C482021DE
:1004940006F0F2FF0346002B05D00948202107F09F
:1004A40007F802F07DF90648802106F0E5FF0346CF
:1004B400002B01D002F068F901F0D2FA80BD00BF30
:1004C4000038014080B400AFBD465DF8047B70473E
:1004D40080B400AFBD465DF8047B704780B400AFC4
:1004E400BD465DF8047B704780B500AF01F0BEFAED
:1004F4004FF4003002F03AFB0346002B05D04FF4D2
:10050400003002F057FB01F093FE01F0A9FA80BD20
:1005140080B400AFBD465DF8047B704780B400AF83
:10052400BD465DF8047B704780B400AFBD465DF8FE
:10053400047B704780B400AFBD465DF8047B704710
:1005440080B400AFBD465DF8047B704780B400AF53
:10055400BD465DF8047B704780B400AFBD465DF8CE
:10056400047B704780B400AFBD465DF8047B7047E0
:1005740080B400AFBD465DF8047B704780B400AF23
:10058400BD465DF8047B704780B400AFBD465DF89E
:10059400047B704780B400AFBD465DF8047B7047B0
:1005A40080B400AFBD465DF8047B704780B400AFF3
:1005B400BD465DF8047B704780B400AFBD465DF86E
:1005C400047B704780B400AFBD465DF8047B704780
:1005D40080B400AFBD465DF8047B704780B400AFC3
:1005E400BD465DF8047B704780B500AF1748002115
:1005F4004FF4BC7207F046FB144B01225A7001F011
:100604008BF800F059FC00F007FD01F00DFC4FF6EB
:10061400FF7001F013FD01F0DBFD0D4801F03EFA1F
:100624000C4807F011F80C4807F01CF80B480C496B
:1006340002F040F800F018F80A480C2100F076FCAB
:1006440000F04CFC0023184680BD00BF1C000020B5
:10065400FE000020B10C0008C50C0008F9090008D0
:100664009D0B0008A109000880B500AF02F046F810
:1006740002F032F8024B002283F8492080BD00BF0B
:100684001C00002080B500AF104B93F82330002BE2
:1006940000D11AE00D4BB3F8543001339AB20B4B2E
:1006A400A3F85420094B4FF6FF72DA84074B00225B
:1006B40083F82220054B002283F82820034B0022D4
:1006C40083F829207E2002F03FF880BD1C00002022
:1006D40080B500AF1D4B93F84830002B08D11B4B5D
:1006E400B3F8583001339AB2184BA3F858202AE0D3
:1006F400164B93F82A30013B052B1BD801A252F864
:1007040023F000BF21070008390700082707000865
:100714002D070008390700083307000800F018F80F
:1007240011E000F059F80EE000F07EF80BE000F064
:10073400F5F808E0054BB3F85A3001339AB2034B8D
:10074400A3F85A2000BFFFF78FFF80BD1C000020D4
:1007540080B500AF094B93F84830012B08D0074B04
:10076400B3F8583001339AB2044BA3F8582003E08D
:1007740003480C2100F0DAFB80BD00BF1C00002000
:100784008907000880B582B000AF114B7B607B689D
:1007940002221A700F4B5A787B685A700D4B5B8893
:1007A400184600F011F903461A467B685A807B68A4
:1007B4001A1D084BE23319685B6811605360054BDE
:1007C4000C2283F82320FFF75DFF0837BD4680BD68
:1007D400200000201C00002080B500AF114B93F8CE
:1007E4004830012B08D00F4BB3F8583001339AB27C
:1007F4000C4BA3F8582014E00A4B5B78022B05D16C
:10080400084B1B78184600F0D9FD05E0054B5B78D2
:10081400042B01D101F0AEFA06F07EFF014B012258
:100824005A7080BD1C00002080B582B000AF364BEA
:1008340093F848300A2B08D0334BB3F858300133BF
:100844009AB2314BA3F858205BE02F4B02225A7026
:100854002D4B00225A802D4B7B602B4B0022A3F89A
:10086400DC207B681A7A284B83F8DE207B689B881F
:100874009BB2184600F0A8F803461A46224BA3F888
:10088400E020214B204A5C33E2321168526819603F
:100894005A607B68DA781C4B83F864201A4BB3F8EF
:1008A400DC30184600F090F803467B80BB1C1848E7
:1008B4001946022207F01CF97B685B7A1A46124B30
:1008C40093F8DE300D3B134811461A4607F0DAF967
:1008D40006F01CFF7B685B78184606F0FFFE7B6819
:1008E400DB889BB2184600F06FF8034618460021D7
:1008F4000022094B00F0E4FB03461A46024B1A702F
:1009040000BF0837BD4680BD1C0000204600002003
:100914008100002083000020E50D000880B582B02E
:1009240000AF1C4B93F848300D2B08D0194BB3F88B
:10093400583001339AB2174BA3F8582026E0164BCF
:100944007B607B689A7A134B83F877217B681A7BE8
:10095400104B83F86E210F4B7A6803F26F13023247
:100964001168526819605A600A4B00225A8001F0DB
:10097400F3F906F0CBFE7B685B78184606F0AEFE12
:1009840006F044FF034B04225A7000BF0837BD46EB
:1009940080BD00BF1C0000204600002080B582B04E
:1009A40000AF074B7B607B6808221A70054B01225D
:1009B40083F82320FFF766FE0837BD4680BD00BFDD
:1009C400200000201C00002080B483B000AF034648
:1009D400FB80FB881B029AB2FB881B0A9BB29BB26A
:1009E40013439BB29BB218460C37BD465DF8047B9B
:1009F400704700BF80B582B000AF01F069F9464B83
:100A040093F82330002B76D0434B93F822301A46C8
:100A1400414B13441B79FB713F4B93F82430002B5B
:100A24000DD1FB797E2B02D0FB797D2B07D17D2064
:100A340001F08AFE384B012283F824202BE0364B48
:100A4400DA8CFB791046194600F0CAFA03461A46B6
:100A5400314BDA84304B93F82430012B07D1FB79E6
:100A640083F02003FB712C4B002283F824202A4BB3
:100A740093F822300133DAB2274B83F82220264B35
:100A840093F82330013BDAB2234B83F82320FB791C
:100A9400184601F059FE204B93F82330002B36D131
:100AA4001D4B93F82830002B31D11B4BDB8CDB43DF
:100AB400BB80194B93F822301946BB88DAB2164B27
:100AC4000B441A71144B93F822300133BA88120A7A
:100AD40092B2D1B2104A13440A461A710E4B93F8DB
:100AE40023300233DAB20C4B83F823200A4B012261
:100AF40083F828200BE0084B93F82930002B06D10B
:100B0400054B012283F829207E2001F01DFE01F00F
:100B1400EDF80837BD4680BD1C00002080B582B0CA
:100B240000AF0346FB71FB797D2B04D1194B0122E5
:100B340083F84A202AE0174B93F84A30012B07D157
:100B4400FB7983F02003FB71124B002283F84A20C7
:100B5400104B93F848301A460E4B1344FA7983F835
:100B64002A200C4B93F848300133DAB2094B83F84E
:100B74004820084BB3F84C20FB791046194600F086
:100B84002FFA03461A46034BA3F84C200837BD46F8
:100B940080BD00BF1C00002080B582B000AF01F012
:100BA40097F801F0E1FD0346FB713D4B93F84E309D
:100BB400002B19D13A4B93F849307E2B14D1FB7991
:100BC4007E2B11D0364B012283F84E20344B002269
:100BD40083F84820324B4FF6FF72A3F84C20FB7980
:100BE4001846FFF79BFF51E02D4B93F84E30012B35
:100BF40016D1FB797E2B13D0FB791846FFF78EFFB5
:100C0400274B93F8483001331E2B08DD244B002278
:100C140083F84820224B002283F84E2036E035E04A
:100C24001F4B93F84E30012B30D1FB797E2B2DD105
:100C34001B4BB3F84C304FF2B80293421AD1184B05
:100C4400B3F8503001339AB2154BA3F85020144B2B
:100C540093F84830023BDAB2114B83F8482011482C
:100C64000C2100F063F9104A0F4B1B6943F0020397
:100C7400136107E00A4BB3F8523001339AB2084BC0
:100C8400A3F85220064B002283F84E20044AFB7935
:100C940082F8493001F02AF80837BD4680BD00BF0C
:100CA4001C000020D50600080004014080B483B075
:100CB40000AF0346FB800C37BD465DF8047B7047EC
:100CC40080B58AB002AF0346FB800123FB7706F0B0
:100CD40023FD3A4B5B78042B6DD1394B0093394B90
:100CE4000193394839497F22394B06F0B1FD334A23
:100CF40007F11003EA321068516803C32F4B93F8CD
:100D0400F230FB7307F10C0318463249022206F055
:100D1400EFFE2A4B93F8F530FB7207F110031846E7
:100D24002D49082206F07CFF0346002B01D0002346
:100D3400FB77224B93F87721FB7B9A4201D0002367
:100D4400FB771E4B93F86E21FB7A9A4201D0002365
:100D5400FB77FB7F012B24D1204BBB61BB690722AE
:100D64001A70164B93F86921BB695A70134B93F8A8
:100D74006B21BB699A70114B93F86D31DB01DAB2C8
:100D8400FB7F9B01DBB21343DBB2DAB2BB69DA70DF
:100D9400BA89BB699A80094B062283F82320FFF79E
:100DA40071FC064B5B8801339AB2044B5A8006F0FF
:100DB400ADFC06F02BFD2037BD4680BD1C00002095
:100DC40088010020890100200601002085010020FF
:100DD400870100200F0100208B010020200000204B
:100DE40080B584B000AF0346FB7100F019FF264BB9
:100DF40093F8DE309BB22548194606F0ADFC06F0A8
:100E0400C3FC06F0DDFC00F019FF1F4BB3F8DC2037
:100E14001D4BB3F8E0309A421BD11B4B1B7818468C
:100E240000F0CCFA06F078FC174B03225A70184BEA
:100E3400FB60FB6805221A70134B012283F8232000
:100E4400FFF720FC104B5B8801339AB20E4B5A809B
:100E540017E00D4BB3F8DC3001339AB20A4BA3F818
:100E6400DC20094BB3F8DC301846FFF7ADFD034630
:100E74007B8107F10A0307481946022206F038FE6F
:100E840000BF1037BD4680BD1C0000207800002044
:100E9400200000208100002080B400AF62B6BD466F
:100EA4005DF8047B704700BF80B400AF72B6BD46E6
:100EB4005DF8047B704700BF80B500AF0548002192
:100EC400802206F0DFFE04480021022206F0DAFE4A
:100ED40080BD00BF940100201402002080B582B0C0
:100EE40000AF18E00F4B9B6F7B607B689B680D4ADB
:100EF40093677B681B6898477B6800221A607B684D
:100F040000221A717B6800229A60074B1B78013B10
:100F1400DAB2054B1A70034B9B6F002BE2D100F041
:100F240061FCDEE7940100201402002080B584B047
:100F340000AF78600B46FB70FFF7B6FF244BFB60F5
:100F440002E0FB680C33FB60FB681B68002B03D0DA
:100F5400FB68204A9342F4D9FB681E4A934203D9A2
:100F640000F0A2FE00F050FCFB687A681A60FB688F
:100F7400FA781A71184BBB6003E0BB681B6808332E
:100F8400BB60BB681B68002B06D0BB681B681A7962
:100F9400FB681B799A42F0D3BB681A68FB689A60B5
:100FA400BB68FA681A600D4B1B780133DAB20B4B3D
:100FB4001A700A4B1A78094B5B789A4203D9074B8B
:100FC4001A78064B5A70FFF767FF1037BD4680BD8D
:100FD40094010020000200200C02002014020020D2
:100FE40080B483B000AF03460A46FB8013467B718E
:100FF400FB881B0A9AB2F9887B794B40DBB205491E
:1010040031F8133053409BB218460C37BD465DF897
:10101400047B7047F87F000880B582B000AF264B90
:10102400002283F8C8200023FB713CE0FA792249AE
:1010340013469B0013449B000B4400221A60FA7968
:101044001D4913469B0013449B000B4400229A80C5
:10105400FA79194913469B0013449B000B44083347
:1010640001221A70FA79144913469B0013449B0019
:101074000B44083300225A70FA790F4913469B0037
:1010840013449B000B44083300225A60FA790A493E
:1010940013469B0013449B000B44103300221A7028
:1010A400FB790133FB71FB79092BBFD9034800F0AD
:1010B400F3FB0837BD4680BD180200201914000850
:1010C40080B586B000AFF8607B600B46FB721346B8
:1010D400BB720023FB7502E0FB7D0133FB75FB7DD6
:1010E400092B0AD8FA7D724913469B0013449B00CE
:1010F4000B4408335B78012BEED0FB7D092B00F207
:10110400D180BB7A002B1AD1FA7DFB68590168485B
:1011140013469B0013449B0003441960FA7DFB684B
:101124005B016449A1FB0313DB0B98B260491346CE
:101134009B0013449B000B440246DA801CE0BB7AFC
:10114400012B18D1FA7D5A4913469B0013449B0086
:101154000B44FA681A60FA7DFB685649A1FB031335
:10116400DB0B98B2524913469B0013449B000B447B
:101174000246DA8000E0FEE7FA7D4D4913469B0003
:1011840013449B000B44DB88002B24D1BB7A002B37
:101194000DD1FA7DFB689BB25B0198B244491346BA
:1011A4009B0013449B000B4402469A801DE0BB7ACB
:1011B400012B0BD1FA7DFB6898B23D4913469B0085
:1011C40013449B000B4402469A800EE000F06CFD31
:1011D40000F01AFB09E0FA7D354913469B001344DD
:1011E4009B000B444FF6FF729A80FA7D30491346F8
:1011F4009B0013449B000B440833FA7A1A70FA7D5F
:101204002B4913469B0013449B000B4408330122D3
:101214005A70FA7D264913469B0013449B000B44E5
:1012240008337A685A60FA7D214913469B001344B7
:101234009B000B44103300221A701D4B93F8C830E6
:10124400002B0CD0FA7D1A4913469B0013449B00D3
:101254000B449A88164BB3F8CA309A421CD2FA7DD2
:10126400134913469B0013449B000B449A88104B6C
:10127400A3F8CA200E4B93F8C830002B01D100F01C
:1012840019FBFA7D0A4913469B0013449B000B4447
:101294009B88184600F02CFB054B012283F8C820DC
:1012A400FB7D00E0FF2318461837BD4680BD00BF14
:1012B400180200200180008080B582B000AF034690
:1012C4003A60FB710B46BB71BB79002B1AD1FA79DA
:1012D4003B685901374813469B0013449B00034461
:1012E4001960FA793B685B013349A1FB0313DB0BFB
:1012F40098B2304913469B0013449B000B440246AA
:10130400DA801FE0BB79012B18D1FA7929491346F9
:101314009B0013449B000B443A681A60FA793B68BB
:101324002549A1FB0313DB0B98B2224913469B000A
:1013340013449B000B440246DA8003E000F0B4FC43
:1013440000F062FAFA791B4913469B0013449B0090
:101354000B44DB88002B1FD1BB79002B0DD1FA790C
:101364003B689BB25B0198B2124913469B0013443D
:101374009B000B4402469A8018E0BB79012B15D1DF
:10138400FA793B6898B20B4913469B0013449B00BF
:101394000B4402469A8009E0FA79064913469B00F9
:1013A40013449B000B444FF6FF729A800837BD46E6
:1013B40080BD00BF180200200180008080B483B08B
:1013C40000AF0346FB71FA79064913469B001344A8
:1013D4009B000B44083300225A700C37BD465DF85D
:1013E400047B70471802002080B483B000AF03462A
:1013F400FB71FA79064913469B0013449B000B4486
:10140400083301225A700C37BD465DF8047B7047DF
:101414001802002080B582B000AF0023FB7187E082
:10142400FA79A64913469B0013449B000B440833E6
:101434005B78012B79D1A14BB3F8CA10FA799F4894
:1014440013469B0013449B0003449B88994256D344
:10145400FA799A4913469B0013449B000B44DB889A
:10146400002B0AD1FA79954913469B0013449B003B
:101474000B44103301221A7057E0FA798F4913464E
:101484009B0013449B000B44DB88013B98B28B49BF
:1014940013469B0013449B000B440246DA80FA79FE
:1014A400864913469B0013449B000B44DB88002BA6
:1014B4001AD1F879FA79814913469B0013449B00A9
:1014C4000B4419687E4BA3FB0123DA0B13461B0460
:1014D4009B1ACA1A91B2794A03469B0003449B00A3
:1014E40013440A469A8020E0FA79744913469B0013
:1014F40013449B000B444FF6FF729A8015E0FA796F
:10150400F9796E480B469B000B449B000344998871
:101514006A4BB3F8CA30CB1A98B2684913469B0099
:1015240013449B000B4402469A80FB790133FB7100
:10153400FB79092B7FF674AF0023FB7176E0FA790F
:101544005E4913469B0013449B000B4410331B78E5
:10155400012B68D1FA79594913469B0013449B0027
:101564000B4408335B68FA7910469847FA79534973
:1015740013469B0013449B000B44103300221A7043
:10158400FA794E4913469B0013449B000B440833DD
:101594001B78002B3DD1FA79F97948480B469B001A
:1015A4000B449B0003441B684549A1FB0313DB0B5D
:1015B40098B2424913469B0013449B000B440246D5
:1015C400DA80FA793D4913469B0013449B000B448F
:1015D400DB88002B12D1FA79F97938480B469B0045
:1015E4000B449B0003441B6898B2344913469B0088
:1015F40013449B000B4402469A8014E0FA792F4965
:1016040013469B0013449B000B444FF6FF729A80D1
:1016140009E0FA79294913469B0013449B000B44C3
:10162400083300225A70FB790133FB71FB79092BD3
:1016340085D90023FB700023FB7126E0FA791F494A
:1016440013469B0013449B000B4408335B78012B27
:1016540018D1FB78002B0AD0FA79184913469B005D
:1016640013449B000B449B88BA889A420AD9FA799E
:10167400124913469B0013449B000B449B88BB8078
:101684000123FB70FB790133FB71FB79092BD5D95D
:10169400FB78012B0AD1094ABB88A2F8CA30074B50
:1016A400B3F8CA30184600F023F903E0034B0022D4
:1016B40083F8C8200837BD4680BD00BF180200204B
:1016C4000180008080B400AF30BFBD465DF8047B6C
:1016D400704700BF80B400AFBFF34F8FBD465DF8C5
:1016E400047B704780B500AF0549054BDB6803F404
:1016F400E062044B1343CB60FFF7ECFFFEE700BF4F
:1017040000ED00E00400FA0580B500AFFEF76CFFC1
:101714000346184680BD00BF80B584B000AF00F01A
:10172400BFFD00F03FFC00F075F800F0FFF900F099
:1017340037FA1020012102F0B5FD0420012102F046
:10174400B1FD0423BB811023FB730323BB7307F197
:101754000C032248194601F06FFF0223BB811023BA
:10176400FB730323BB7307F10C031D48194601F0F7
:1017740063FF1B48022102F083F81023BB8104237A
:10178400FB7307F10C031648194601F055FF0220BC
:10179400042102F07FF9102001F00CFA10237B6081
:1017A40000233B7208237B720123BB723B1D184646
:1017B40001F01AF900F0FAF900F02CFF00F004FE31
:1017C40000F034F805F0FCFE00F006FC00F0F4F83C
:1017D40000F0D6FB1037BD4680BD00BF00080140B5
:1017E4000010014080B500AF0220012101F0C4F8CF
:1017F4004FF0C050012102F073FD1420002102F0CB
:1018040033FDFFF75FFF80BD80B500AFFFF76AFFD0
:1018140080BD00BF80B400AF034B4FF404725A6123
:10182400BD465DF8047B704700ED00E080B588B0EC
:1018340000AF18480021082206F024FA01200121F3
:1018440002F04EFD4FF6FF733B8340F6FF03BB826D
:1018540000237B830023FB8207F114034FF08040B5
:10186400194603F037FC3023BB8000237B8101231E
:10187400FB800023BB813B1D4FF08040194603F0E1
:10188400A5FC4FF08040012103F0ECFF2037BD465A
:1018940080BD00BFE402002080B582B000AF786054
:1018A400034A7B68136000F01DFB0837BD4680BD0A
:1018B400E402002080B500AF4FF08040002104F026
:1018C4009BFE4FF08040022104F0D0FF4FF0804097
:1018D4000221012204F00CF84FF08040002104F0B2
:1018E4006FFE024B00229A8080BD00BFE4020020FC
:1018F40090B585B000AF0346FB804FF080400121D6
:1019040003F0B0FF1A4B9B88FB81194B9B889AB25A
:10191400FB881344BB81164ABB899380FC884FF033
:10192400804004F06BFF03461A46FB89D31A9C429D
:101934000ADA4FF080424FF080431B8A9BB243F097
:1019440002039BB2138210E0BB894FF0804019461A
:1019540004F052FE4FF08040022104F087FF4FF064
:1019640080400221012203F0C3FF1437BD4690BD1D
:10197400E402002080B500AF4FF08040002104F065
:101984003BFE4FF080400221002203F0B1FF80BDF6
:1019940080B500AF4FF0804004F030FF0346184696
:1019A40080BD00BF80B500AF024B1B689847012380
:1019B400184680BDE402002080B400AFBD465DF847
:1019C400047B704780B400AFBD465DF8047B70476C
:1019D40080B400AFBD465DF8047B704780B400AFAF
:1019E400BD465DF8047B704780B400AFBD465DF82A
:1019F400047B704780B400AFBD465DF8047B70473C
:101A040080B400AFBD465DF8047B704780B400AF7E
:101A1400BD465DF8047B704780B400AFBD465DF8F9
:101A2400047B704780B400AFBD465DF8047B70470B
:101A340080B400AFBD465DF8047B704780B400AF4E
:101A4400BD465DF8047B704780B400AFBD465DF8C9
:101A5400047B704780B400AFBD465DF8047B7047DB
:101A640080B400AFBD465DF8047B704780B400AF1E
:101A7400BD465DF8047B704780B400AFBD465DF899
:101A8400047B704780B400AFBD465DF8047B7047AB
:101A940080B400AFBD465DF8047B704780B485B068
:101AA40000AF78601F4B1B6804331B78DAB21D4B00
:101AB4001B6806331B78DB01DBB21343DBB2FB7319
:101AC400194B1B68DA787B681A707B680133154AF6
:101AD4001268D2791A707B680233134A126812783A
:101AE4001A707B680333104A126852781A707B6844
:101AF40004330C4A126892791A707B6805330A4AD7
:101B0400126892781A707B680633FA7B1A707B68C5
:101B14000733044A126852791A701437BD465DF8C7
:101B2400047B7047040000200000002080B582B0D0
:101B340000AF3D20012102F0B5FB4FF6FF73BB80DF
:101B44000023FB713B1D1248194601F075FD4FF649
:101B5400FF73BB800023FB713B1D0E48194601F047
:101B64006BFD4FF6FF73BB800023FB713B1D0A48DE
:101B7400194601F061FD4FF6FF73BB800023FB7132
:101B84003B1D0648194601F057FD0837BD4680BD88
:101B940000080140000C0140001001400014014005
:101BA40080B400AFBD465DF8047B704780B582B059
:101BB40000AF0820012102F075FB2023BB80102315
:101BC400FB710323BB713B1D1248194601F034FD20
:101BD4001020012102F066FB4FF48063BB801023C8
:101BE400FB710323BB713B1D0B48194601F024FD17
:101BF4002020012102F056FB0423BB801023FB713B
:101C04000323BB713B1D0548194601F015FD083738
:101C1400BD4680BD000C014000100140001401408D
:101C240080B400AF044A044BDB6823F00403D360A0
:101C3400BD465DF8047B70470014014080B400AFDA
:101C4400044A044BDB6843F00403D360BD465DF8EB
:101C5400047B70470014014080B400AF044A044B75
:101C6400DB6883F00403D360BD465DF8047B7047F2
:101C74000014014080B483B000AF0023FB71094B12
:101C8400DB6803F00403002B02D00023FB7101E0A6
:101C94000123FB71FB7918460C37BD465DF8047BC4
:101CA400704700BF0014014080B582B000AF00232C
:101CB4007B6006E0FFF7D0FF00F0E0F87B680133BB
:101CC4007B607B680F2BF5DD0837BD4680BD00BF08
:101CD40080B400AF044A044BDB6823F02003D360D4
:101CE400BD465DF8047B7047000C014080B400AF32
:101CF400044A044BDB6843F02003D360BD465DF81F
:101D0400047B7047000C014080B400AF044A044BCC
:101D1400DB6883F02003D360BD465DF8047B704725
:101D2400000C014080B483B000AF0023FB71094B69
:101D3400DB6803F02003002B02D00023FB7101E0D9
:101D44000123FB71FB7918460C37BD465DF8047B13
:101D5400704700BF000C014080B400AF044A044B3C
:101D6400DB6823F48063D360BD465DF8047B704771
:101D74000010014080B400AF044A044BDB6843F414
:101D84008063D360BD465DF8047B7047001001405A
:101D940080B400AF044A044BDB6883F48063D360EF
:101DA400BD465DF8047B70470010014080B483B0E9
:101DB40000AF0023FB71094BDB6803F48063002B45
:101DC40002D00023FB7101E00123FB71FB7918466B
:101DD4000C37BD465DF8047B704700BF001001401E
:101DE40080B400AFBD465DF8047B704780B400AF9B
:101DF400BD465DF8047B704780B400AFBD465DF816
:101E0400047B704780B400AF1846BD465DF8047B80
:101E1400704700BF80B500AFFFF702FFFFF758FF20
:101E2400FFF79AFF80BD00BF80B500AFFFF706FF44
:101E3400FFF75CFFFFF79EFF80BD00BF80B500AFDA
:101E4400FFF70AFFFFF760FFFFF7A2FF80BD00BFA7
:101E540080B500AFFFF700FF00F010F8FFF754FF64
:101E640000F00CF8FFF794FF00F008F880BD00BF05
:101E740080B400AFBD465DF8047B704780B483B086
:101E840000AF00237B6002E07B6801337B607B68EA
:101E9400034A9342F8D90C37BD465DF8047B70477A
:101EA400FEFF0F0080B500AF4FF00060002100F08E
:101EB400F7FC80BD80B582B000AF25233B710323BE
:101EC4007B710323BB710123FB713B1D184600F09A
:101ED40085FC0837BD4680BD80B400AFBD465DF8C3
:101EE400047B704780B582B000AF1C233B71022392
:101EF4007B710123BB710123FB713B1D184600F06C
:101F04006DFC0837BD4680BD80B582B000AF0323A9
:101F14003B7100237B710123BB710123FB713B1DCA
:101F2400184600F05BFC29233B7101237B710023DD
:101F3400BB710123FB713B1D184600F04FFC0837B1
:101F4400BD4680BD80B582B000AF03233B71002342
:101F54007B710123BB710123FB713B1D184600F00B
:101F64003DFC29233B7101237B710023BB710123B9
:101F7400FB713B1D184600F031FC0837BD4680BD9F
:101F840080B582B000AF0A233B7102237B7100232A
:101F9400BB710123FB713B1D184600F01FFC083781
:101FA400BD4680BD80B500AFFFF77CFF4FF4A06055
:101FB40000F002FC80BD00BF80B400AF62B6BD4635
:101FC4005DF8047B704700BF80B400AF72B6BD46B5
:101FD4005DF8047B704700BF80B500AF0248002164
:101FE4000C2205F04FFE80BDEC02002080B483B0CB
:101FF40000AF7860034A7B6813600C37BD465DF818
:10200400047B7047EC02002080B483B000AF78609A
:10201400034A7B6853600C37BD465DF8047B704708
:10202400EC02002080B483B000AF7860FEE700BF0C
:1020340080B483B000AF7860FEE700BF80B584B0A1
:1020440000AF0346FB804FF0C050012102F048F975
:10205400012001F08DFD012002F000F800BF4120B5
:1020640002F0C8F90346002BF9D04FF4807002F057
:1020740025F8012002F034F802F0FCFA012002F005
:102084009FFA02F0E7FA002002F084FA02F0E2FA82
:10209400FB88184602F0ACFA02F0DCFAFB885B0815
:1020A4009AB2114B5A81022002F01AFB022001213C
:1020B40002F014FA0C4B01221A724FF4003000F0B3
:1020C40079FD4FF40033BB6000233B7308237B731B
:1020D4000123BB7307F10803184600F085FCFFF7E2
:1020E40031FF1037BD4680BDEC02002080B582B0C0
:1020F40000AF02F0BFFA02F037FA78607B685B0049
:102104007B607B689BB218460837BD4680BD00BF24
:1021140080B582B000AF0346FB80FB885B08FB8080
:102124000220002102F0DAF9FFF74EFFFB8818467F
:1021340002F05EFA02F08EFAFFF73EFF074AFB88D0
:102144005381064B01221A72022002F0C9FA0220BE
:10215400012102F0C3F90837BD4680BDEC0200201E
:1021640080B582B000AF02F085FA02F00DFB0346A1
:102174007B607B685B007B607B689BB2184608379A
:10218400BD4680BD80B582B000AF0346FB80FB88AE
:102194005B08FB800220002102F0A0F9FFF714FF86
:1021A400FB88184602F024FA02F054FAFFF704FF01
:1021B400064B02221A72022002F092FA0220012136
:1021C40002F08CF90837BD4680BD00BFEC02002048
:1021D40080B500AF0220002102F080F9FFF7F4FE81
:1021E400094B5B89184602F003FA02F033FAFFF751
:1021F400E3FE054B01221A72022002F071FA02205A
:10220400012102F06BF980BDEC02002080B582B0A0
:1022140000AF02F02FFA02F0A7F978607B685B0048
:102224007B607B689BB218460837BD4680BD00BF03
:1022340080B582B000AF194B1B7AFB71FB79012B7F
:102244000ED0022B00D022E0144B5B68002B06D08A
:1022540000F066F8114B5B689847012319E017E01A
:102264000E4B1B68002B11D002F0F4F9FFF7ACFE03
:10227400002002F08FF902F0EDF9FFF79DFE00F067
:102284004FF8064B1B689847012302E000E0FEE785
:10229400002318460837BD4680BD00BFEC0200206D
:1022A40080B582B000AF01F029FD4FF4803001F019
:1022B40053FD01F07FFD0346FB71FB79012B28D10F
:1022C400102000F0B9FC022000F082FC002001F094
:1022D40021FE002001F056FE4FF4806001F036FE2E
:1022E4004FF440304FF4E01101F0BAFD012001F049
:1022F400D5FD00BF392002F07DF80346002BF9D04C
:10230400022001F0DBFD00BF01F0F4FD0346082BC1
:10231400FAD10120012101F0C5FF0837BD4680BD77
:1023240080B582B000AF4FF4803001F015FD01F0AC
:1023340041FD0346FB71FB79012B12D1012001F011
:10234400ADFD00BF392002F055F80346002BF9D04B
:10235400022001F0B3FD00BF01F0CCFD0346082BC1
:10236400FAD10837BD4680BD80B400AF034B0222CA
:102374005A61BD465DF8047B704700BF0010014000
:1023840080B400AF034B02221A61BD465DF8047BA2
:10239400704700BF0010014080B400AF034B10220F
:1023A4001A61BD465DF8047B704700BF0008014018
:1023B40080B400AF034B04225A61BD465DF8047B30
:1023C400704700BF0008014080B586B000AF3948AF
:1023D4000021102205F056FC4FF48040012101F049
:1023E4007FFF0420012101F05DFF0820012101F09D
:1023F40059FF1020012101F055FF4FF420433B8089
:102404001823FB700323BB703B462B48194601F08D
:1024140013F94FF480433B800423FB700323BB7008
:102424003B462548194601F007F914233B80102345
:10243400FB703B462148194601F0FEF802233B801D
:102444001023FB703B461E48194601F0F5F8FFF7D0
:102454008BFFFFF7A1FFFFF7ABFF0023FB8202E036
:10246400FB8A0133FB82FB8A4FF6FF729342F7D15A
:10247400FFF786FF0023BB804FF48273FB800023A9
:102484003B8100237B810023BB814FF40073FB81DC
:1024940018233B8200237B820723BB823B1D094810
:1024A400194602F0C1F90748012102F0F3FA18377E
:1024B400BD4680BDF8020020000C01400008014028
:1024C400001001400038004090B585B000AFF860BE
:1024D4007B600B46FB721346BB72494AFB68136070
:1024E400474B00221A71464AFB7A5371444ABB7A1D
:1024F4009371434A7B689360414A97F82030137381
:102504003F4A97F8243053733D4A97F82830937321
:102514003B4B0122DA733A4B5B7BDBB2012B03D1D9
:102524003848102101F0BAF955E0354B1B681B7887
:102534009BB23548194602F041FB00BF32480121E5
:1025440002F030FC0346002BF8D02F48012102F0A2
:1025540045FC2B4B9B79DBB2012B12D0022B1ED0F6
:10256400002B25D1264B1B79DBB2002B08D1244B41
:102574009C68254802F030FB0346DBB2237017E069
:1025840016E01F4B9C68204802F026FB0346DBB292
:1025940023701B4B9B680133194A936008E0184B66
:1025A4009C68194802F018FB0346DBB2237000BF95
:1025B400134B1B680133124A1360114B1B79DBB2B6
:1025C4000133DAB20E4B1A710D4B5B79DBB2013B6E
:1025D400DAB20B4B5A710A4B5B79DBB2002BA4D1F4
:1025E400074B9B7BDBB2012B03D10648102101F082
:1025F40047F9034B0022DA731437BD4690BD00BF80
:10260400F8020020000801400038004080B400AF08
:10261400FEE700BF80B586B000AF22480021082243
:1026240005F030FB0520012101F03CFE4FF4804011
:10263400012101F037FE1823FB754FF40073BB82B0
:102644000323BB7507F114031748194600F0F4FF80
:102654000423FB754FF48063BB8207F11403124813
:10266400194600F0E9FF114B7B6000233B810023F6
:102674007B810023BB8100233B820C23FB813B1D18
:102684000B48194604F074FB00F054F800F048F8C5
:102694000748012104F084FCFFF70CFC1837BD4601
:1026A40080BD00BF080300200008014020A10700EE
:1026B4000038014080B483B000AF78603960054AC7
:1026C4007B681360034A3B6853600C37BD465DF872
:1026D400047B70470803002080B500AF064840F231
:1026E4002661012204F07CFC034840F225510122BA
:1026F40004F076FC80BD00BF0038014080B500AF17
:10270400064840F22661002204F06AFC034840F2C5
:102714002551002204F064FC80BD00BF0038014054
:1027240080B500AF0248202104F0C2FE80BD00BF86
:102734000038014080B500AF0248402104F0B8FEE3
:1027440080BD00BF0038014080B582B000AF0346B1
:10275400FB71FB799BB20348194604F041FD08372D
:10276400BD4680BD0038014080B582B000AF054849
:1027740004F048FD0346FB80FB88DBB218460837AB
:10278400BD4680BD0038014080B500AFFFF7D2FFE1
:10279400024B1B6898470023184680BD080300209D
:1027A40080B500AFFFF7BCFF024B5B68984700237E
:1027B400184680BD0803002080B483B000AF786061
:1027C400054A7B6843F0BF6343F40033D3600C379E
:1027D400BD465DF8047B704700ED00E080B487B02F
:1027E40000AF786000237B6100233B610F23FB6013
:1027F4007B68DB78002B3AD0274BDB68DB4303F4A0
:10280400E0631B0A7B617B69C3F104033B617B6961
:10281400FA6822FA03F3FB607B685B781A463B692B
:1028240002FA03F37B617B689B781A46FB681340CA
:102834007A6913437B617B691B017B61174A7B685F
:102844001B787969C9B213440A4683F80023134AF2
:102854007B681B785B09DBB218467B681B7803F046
:102864001F03012101FA03F342F820300FE00B4962
:102874007B681B785B09DBB218467B681B7803F026
:102884001F0301229A4000F1200341F823201C3742
:10289400BD465DF8047B704700ED00E000E100E018
:1028A40080B483B000AF7860396007493B6823F097
:1028B400604323F07F037A6813438B600C37BD4673
:1028C4005DF8047B704700BF00ED00E080B483B086
:1028D40000AF03460A46FB711346BB71BB79002B5C
:1028E40006D00949084B1A69FB7913430B6106E0CA
:1028F4000549054B1A69FB79DB4313400B610C371F
:10290400BD465DF8047B704700ED00E080B483B001
:1029140000AF78607B68042B06D1094A084B1B681A
:1029240043F00403136005E0054A054B1B6823F0DC
:10293400040313600C37BD465DF8047B704700BF89
:1029440010E000E080B400AF034B1B681B0C18467A
:10295400BD465DF8047B7047002004E080B400AFFE
:10296400044B1B68C3F30B031846BD465DF8047B98
:10297400704700BF002004E080B483B000AF7860EB
:102984000B46FB70FB78002B06D00949084B5A68AC
:102994007B6813434B6006E00549054B5A687B6826
:1029A400DB4313404B600C37BD465DF8047B704736
:1029B400002004E080B400AF094B00221A60084BE9
:1029C40000225A60064B00229A60054B0022DA600E
:1029D400034B044A5A61BD465DF8047B704700BF4F
:1029E40000040140FFFF0F0080B485B000AF7860A1
:1029F4000023FB60344BFB607B689B79002B4FD03A
:102A04003149314B1A687B681B68DB4313400B6008
:102A14002D492D4B5A687B681B68DB4313404B6080
:102A24007B681B791A46FB681344FB60FB68FA68F1
:102A340011687A6812680A431A602349224B9A681B
:102A44007B681B68DB4313408B601F491E4BDA68AD
:102A54007B681B68DB431340CB607B685B79102B7E
:102A64000ED11949184B9A687B681B6813438B6015
:102A74001549154BDA687B681B681343CB601DE06E
:102A8400114BFB607B685B791A46FB681344FB605F
:102A9400FB68FA6811687A6812680A431A600DE0E4
:102AA4007B681B791A46FB681344FB60FB68FA6871
:102AB40011687A681268D2430A401A601437BD4616
:102AC4005DF8047B704700BF0004014080B483B00C
:102AD40000AF78607B6800221A607B6800221A715C
:102AE4007B680C225A717B6800229A710C37BD46B0
:102AF4005DF8047B704700BF80B483B000AF78609A
:102B04000549054B1A697B6813430B610C37BD46B5
:102B14005DF8047B704700BF0004014080B485B0B9
:102B240000AF78600023FB73084B5A697B6813403D
:102B3400002B02D00123FB7301E00023FB73FB7B1A
:102B440018461437BD465DF8047B70470004014005
:102B540080B483B000AF7860034A7B6853610C375C
:102B6400BD465DF8047B70470004014080B485B025
:102B740000AF78600023FB730023BB600C4B1A6822
:102B84007B681340BB600A4B5A697B681340002B77
:102B940005D0BB68002B02D00123FB7301E00023A6
:102BA400FB73FB7B18461437BD465DF8047B704706
:102BB4000004014080B483B000AF7860034A7B68AE
:102BC40053610C37BD465DF8047B70470004014037
:102BD40080B485B000AF78600023FB60094B1B68AC
:102BE400FB60FB6803F03803FB60FA687B681343FF
:102BF400FB60044AFB6813601437BD465DF8047B30
:102C0400704700BF0020024080B483B000AF7860FA
:102C1400084A084B1B6823F0080313600549054B59
:102C24001A687B6813430B600C37BD465DF8047B60
:102C3400704700BF0020024080B483B000AF7860CA
:102C4400084A084B1B6823F0100313600549054B21
:102C54001A687B6813430B600C37BD465DF8047B30
:102C6400704700BF0020024080B400AF044B054A07
:102C74005A60034B044A5A60BD465DF8047B7047B2
:102C84000020024023016745AB89EFCD80B400AF3B
:102C9400044B054A5A60034B044A5A60BD465DF82A
:102CA400047B70470020024023016745AB89EFCDC8
:102CB40080B400AF044A044B1B6943F080031361E2
:102CC400BD465DF8047B70470020024080B400AF2D
:102CD400044A044B1B6943F080031361BD465DF84D
:102CE400047B70470020024080B584B000AF786058
:102CF4000423FB734FF4302000F0DCFB0346FB732A
:102D0400FB7B042B1BD1104A0F4B1B6943F00203BE
:102D140013610D4A7B6853610B4A0B4B1B6943F0EB
:102D2400400313614FF4302000F0C4FB0346FB73EF
:102D34000549054B1A6941F6FD7313400B61FB7B92
:102D440018461037BD4680BD0020024080B582B0D1
:102D540000AF0423FB714FF4302000F0ABFB0346BB
:102D6400FB71FB79042B18D10E4A0E4B1B6943F0FF
:102D7400040313610B4A0B4B1B6943F040031361BB
:102D84004FF4302000F096FB0346FB710549054BD8
:102D94001A6941F6FB7313400B61FB791846083737
:102DA400BD4680BD0020024080B582B000AF042340
:102DB400FB714FF4302000F09FFB0346FB71FB795D
:102DC400042B18D10E4A0E4B1B6943F00403136104
:102DD4000B4A0B4B1B6943F0400313614FF4302043
:102DE40000F08AFB0346FB710549054B1A6941F65D
:102DF400FB7313400B61FB7918460837BD4680BD51
:102E04000020024080B582B000AFA523FB800423DC
:102E14007B7100F06DFA0346002B01D00023FB8088
:102E24004FF4302000F046FB03467B717B79042B82
:102E340045D1254B254A9A60234B254A9A60224A5C
:102E4400214B1B6943F0200313611F4A1E4B1B696E
:102E540043F0400313614FF4302000F02BFB034692
:102E64007B717B79042B20D11749174B1A6941F6E2
:102E7400DF7313400B61144A134B1B6943F01003B7
:102E84001361144AFB8813804FF4005000F012FBC6
:102E940003467B717B79052B11D00B490A4B1A69C8
:102EA40041F6EF7313400B6109E07B79052B06D0E3
:102EB4000549054B1A6941F6EF7313400B617B79A1
:102EC40018460837BD4680BD0020024023016745EF
:102ED400AB89EFCD00F8FF1F80B584B000AF7860F8
:102EE40039600423FB730023BB604FF4005000F0EF
:102EF400E1FA0346FB73FB7B042B30D11A4A1A4BCD
:102F04001B6943F0010313617B683A6892B21A802B
:102F14004FF4005000F0CEFA0346FB73FB7B042B06
:102F240016D17B680233BB60BB681A463B681B0C36
:102F34009BB213804FF4005000F0BCFA0346FB73BD
:102F44000949094B1A6941F6FE7313400B6106E007
:102F54000549054B1A6941F6FE7313400B61FB7B6F
:102F640018461037BD4680BD0020024080B584B0AD
:102F740000AF78600B467B800423FB734FF4005052
:102F840000F098FA0346FB73FB7B042B15D10D4A22
:102F94000C4B1B6943F0010313617B687A881A8028
:102FA4004FF4005000F086FA0346FB730549054BC5
:102FB4001A6941F6FE7313400B61FB7B1846103708
:102FC400BD4680BD0020024080B584B000AF78606B
:102FD4000B46FB700423FB734FF4005000F06AFAB5
:102FE4000346FB73FB7B042B1FD1124B124A9A60DE
:102FF400104B124A9A600F4A0E4B1B6943F01003A0
:1030040013617B68FA7892B21A804FF4005000F092
:1030140051FA0346FB73FB7B052B06D00549054B90
:103024001A6941F6EF7313400B61FB7B18461037A6
:10303400BD4680BD0020024023016745AB89EFCD2A
:1030440080B586B000AF78604FF6FF73BB824FF651
:10305400FF737B824FF6FF733B824FF6FF73FB8156
:103064000423FB757B68DB437B607B689BB2DBB22C
:10307400BB827B6803F47F431B0A7B827B6803F477
:103084007F031B0C3B827B681B0EFB814FF40050BB
:1030940000F010FA0346FB75FB7D042B4ED12A4B3E
:1030A4002A4A9A60284B2A4A9A60274A264B1B6967
:1030B40043F010031361BB8AFF2B08D0254ABB8A57
:1030C40013814FF4005000F0F5F90346FB75FB7DC6
:1030D400042B0BD17B8AFF2B08D01E4A7B8A538199
:1030E4004FF4005000F0E6F90346FB75FB7D042B1A
:1030F4000BD13B8AFF2B08D0164A3B8A93814FF4AD
:10310400005000F0D7F90346FB75FB7D042B0BD16F
:10311400FB89FF2B08D00F4AFB89D3814FF4005061
:1031240000F0C8F90346FB75FB7D052B06D0064964
:10313400054B1A6941F6EF7313400B61FB7D18468A
:103144001837BD4680BD00BF0020024023016745FB
:10315400AB89EFCD00F8FF1F80B584B000AF034604
:10316400FB710423FB734FF4302000F0A3F90346F2
:10317400FB73FB7B042B4CD1284B294A9A60274BC9
:10318400284A9A60254A254B1B6943F020031361A2
:10319400224A224B1B6943F0400313614FF4302051
:1031A40000F088F90346FB73FB7B042B27D11B49F2
:1031B4001A4B1A6941F6DF7313400B61174A174B18
:1031C4001B6943F010031361FB79002B03D0164BEA
:1031D40000221A8002E0144BA5221A804FF43020FA
:1031E40000F068F90346FB73FB7B052B11D00B49F8
:1031F4000A4B1A6941F6EF7313400B6109E0FB7B3C
:10320400052B06D00549054B1A6941F6DF731340B7
:103214000B61FB7B18461037BD4680BD0020024081
:1032240023016745AB89EFCD00F8FF1F80B584B05B
:1032340000AF0346FB800B46BB8013467B80042310
:10324400FB731B4B1B4A9A60194B1B4A9A604FF441
:10325400005000F02FF90346FB73FB7B042B21D1B4
:10326400134A134B1B6943F01003136113497A8803
:10327400BB8813439AB2FB8813439BB243F0F80311
:103284009BB24B804FF4005000F014F90346FB73DB
:10329400FB7B052B06D00649054B1A6941F6EF73F3
:1032A40013400B61FB7B18461037BD4680BD00BF41
:1032B4000020024023016745AB89EFCD00F8FF1FD2
:1032C40080B400AF034BDB699B081846BD465DF82C
:1032D400047B70470020024080B400AF034B1B6A9C
:1032E4001846BD465DF8047B704700BF00200240CD
:1032F40080B483B000AF0023FB71094BDB6903F09A
:103304000203002B02D00123FB7101E00023FB71B7
:10331400FB7918460C37BD465DF8047B704700BF47
:103324000020024080B483B000AF0023FB71094B3E
:103334001B6803F02003002B02D00123FB7101E082
:103344000023FB71FB7918460C37BD465DF8047BFE
:10335400704700BF0020024080B483B000AF7860A3
:103364000B46FB70FB78002B06D00949084B1A6901
:103374007B6813430B6106E00549054B1A697B68BA
:10338400DB4313400B610C37BD465DF8047B70478B
:103394000020024080B485B000AF78600023FB7346
:1033A4007B68012B0BD10F4BDB6903F00103002B6E
:1033B40002D00123FB730DE00023FB730AE0094BE9
:1033C400DA687B681340002B02D00123FB7301E011
:1033D4000023FB73FB7B18461437BD465DF8047B62
:1033E400704700BF0020024080B483B000AF786013
:1033F400034A7B68D3600C37BD465DF8047B704795
:103404000020024080B483B000AF0423FB71124B50
:10341400DB6803F00103002B02D00123FB7113E0EE
:103424000D4BDB6803F00403002B02D00223FB7175
:103434000AE0094BDB6803F01003002B02D00323DE
:10344400FB7101E00423FB71FB7918460C37BD4680
:103454005DF8047B704700BF0020024080B483B055
:1034640000AF0423FB71124BDB6803F00103002B54
:1034740002D00123FB7113E00D4BDB6803F004035E
:10348400002B02D00223FB710AE0094BDB6803F036
:103494001003002B02D00323FB7101E00423FB7112
:1034A400FB7918460C37BD465DF8047B704700BFB6
:1034B4000020024080B584B000AF78600423FB7321
:1034C400FFF7CCFF0346FB7306E0FFF7C7FF034695
:1034D400FB737B68013B7B60FB7B012B02D17B6828
:1034E400002BF2D17B68002B01D10523FB73FB7BFE
:1034F40018461037BD4680BD80B584B000AF7860F3
:103504000423FB73FFF7AAFF0346FB7306E0FFF7F0
:10351400A5FF0346FB737B68013B7B60FB7B012BB0
:1035240002D17B68002BF2D17B68002B01D10523EB
:10353400FB73FB7B18461037BD4680BD80B582B057
:1035440000AF78607B682F4A934208D104200121A0
:1035540000F0E4FE0420002100F0E0FE4EE07B6871
:10356400294A934208D10820012100F0D7FE0820FF
:10357400002100F0D3FE41E07B68244A934208D145
:103584001020012100F0CAFE1020002100F0C6FE28
:1035940034E07B681E4A934208D12020012100F0C8
:1035A400BDFE2020002100F0B9FE27E07B68194A07
:1035B400934208D14020012100F0B0FE40200021B8
:1035C40000F0ACFE1AE07B68134A934208D18020D5
:1035D400012100F0A3FE8020002100F09FFE0DE0F9
:1035E4007B680E4A934209D14FF48070012100F0A8
:1035F40095FE4FF48070002100F090FE0837BD4620
:1036040080BD00BF00080140000C014000100140D3
:103614000014014000180140001C0140002001403A
:1036240080B500AF0120012100F078FE01200021C7
:1036340000F074FE80BD00BF80B489B000AF786034
:1036440039600023FB6100233B610023BB6100233D
:10365400FB6000237B610023BB603B68DB7803F0E5
:103664000F03FB613B68DB7803F01003002B05D0EC
:103674003B689B781A46FB691343FB613B681B88D4
:10368400DBB2002B44D07B681B687B610023BB61E9
:1036940038E0BB69012202FA03F3FB603B681B8834
:1036A4001A46FB6813403B613A69FB689A4226D18B
:1036B400BB699B00FB60FB680F2202FA03F3BB604B
:1036C400BB68DB437A6913407B61FB68FA6902FAE1
:1036D40003F37A6913437B613B68DB78282B05D1BC
:1036E400BB6901229A407B685A6108E03B68DB7839
:1036F400482B04D1BB6901229A407B681A61BB69DB
:103704000133BB61BB69072BC3D97B687A691A6033
:103714003B681B88FF2B4AD97B685B687B6100236D
:10372400BB613EE0BB6908331A4601239340FB604A
:103734003B681B881A46FB6813403B613A69FB6887
:103744009A422BD1BB699B00FB60FB680F2202FAF3
:1037540003F3BB60BB68DB437A6913407B61FB689E
:10376400FA6902FA03F37A6913437B613B68DB78F5
:10377400282B07D1BB6908331A46012303FA02F246
:103784007B685A613B68DB78482B07D1BB690833F7
:103794001A46012303FA02F27B681A61BB690133FA
:1037A400BB61BB69072BBDD97B687A695A60243732
:1037B400BD465DF8047B704780B483B000AF786089
:1037C4007B684FF6FF721A807B6802229A707B68CE
:1037D4000422DA700C37BD465DF8047B704700BFE5
:1037E40080B485B000AF78600B467B800023FB7308
:1037F4007B689A687B881340002B02D00123FB73FB
:1038040001E00023FB73FB7B18461437BD465DF8CB
:10381400047B704780B483B000AF78607B689B689A
:103824009BB218460C37BD465DF8047B704700BF59
:1038340080B485B000AF78600B467B800023FB73B7
:103844007B68DA687B881340002B02D00123FB736A
:1038540001E00023FB73FB7B18461437BD465DF87B
:10386400047B704780B483B000AF78607B68DB680A
:103874009BB218460C37BD465DF8047B704700BF09
:1038840080B483B000AF78600B467B807A887B6815
:103894001A610C37BD465DF8047B704780B483B071
:1038A40000AF78600B467B807A887B685A610C375E
:1038B400BD465DF8047B704780B483B000AF786088
:1038C4000B467B8013467B707B78002B03D07A8871
:1038D4007B681A6102E07A887B685A610C37BD46BE
:1038E4005DF8047B704700BF80B483B000AF78609C
:1038F4000B467B807A887B68DA600C37BD465DF8BE
:10390400047B704780B485B000AF78600B467B8041
:103914004FF48033FB607B88FA681343FB607B6859
:10392400FA689A617A887B689A617B68FA689A6116
:103934007B689B69FB607B689B69FB601437BD46B1
:103944005DF8047B704700BF80B485B000AF0346C8
:103954000A46FB711346BB710023FB600C4B1B68CA
:10396400FB60FA684FF680731340FB60FB791B0120
:10397400FA681343FB60BB79FA681343FB60044A9B
:10398400FB6813601437BD465DF8047B704700BFC5
:103994000000014080B483B000AF0346FB71044AC9
:1039A400FB7913600C37BD465DF8047B704700BF9C
:1039B4001C00204280B487B000AF78600B46FB70D7
:1039C40000233B610023FB6000237B610023BB6079
:1039D4007B68002B03DA2E4BDB697B6102E02C4B06
:1039E4005B687B617B6803F470231B0CBB607B68A2
:1039F4009BB23B617B6803F44013B3F5401F0AD1CB
:103A04007B6923F070637B61214A214B5B6823F05F
:103A14007063536021E07B6803F48013002B0ED0A5
:103A2400BB68032202FA03F3FB60FB68DB437A6999
:103A340013407B617B6943F070637B610DE07B68BD
:103A44005B0D1B011A463B699340DB437A691340C3
:103A54007B617B6943F070637B61FB78002B08D04A
:103A64007B685B0D1B011A463B6993407A691343DB
:103A74007B617B68002B03DA054A7B69D36102E032
:103A8400034A7B6953601C37BD465DF8047B70476D
:103A94000000014090B484B000AF03460A46FB71B5
:103AA4001346BB710023FB60BB7903F003039B0047
:103AB4000F2202FA03F3FB601649BB799B08DBB2C1
:103AC4001846144ABB799B08DBB2023352F8232010
:103AD400FB68DB431A40831C41F823200D48BB7963
:103AE4009B08DBB21C460B4ABB799B08DBB2023352
:103AF40052F82320F979BB7903F003039B0001FA00
:103B040003F31A43A31C40F823201037BD4690BC8E
:103B1400704700BF0000014080B483B000AF7860FC
:103B2400034A7B6813600C37BD465DF8047B70471D
:103B3400DC00204280B400AF30BFBD465DF8047B9A
:103B4400704700BF80B400AF20BFBD465DF8047B62
:103B5400704700BF80B500AF4FF08050012100F0E6
:103B6400FBFB4FF08050002100F0F6FB80BD00BF4E
:103B740080B483B000AF0346FB71044AFB79136041
:103B84000C37BD465DF8047B704700BF20000E4231
:103B940080B483B000AF0346FB71044AFB79136021
:103BA4000C37BD465DF8047B704700BF10000E4221
:103BB40080B485B000AF78600023FB60094B1B68BC
:103BC400FB60FB6823F0E003FB60FA687B68134347
:103BD400FB60044AFB6813601437BD465DF8047B40
:103BE400704700BF0070004080B483B000AF03464C
:103BF400FB71044AFB7913600C37BD465DF8047B06
:103C0400704700BFA0000E4280B584B000AF78605A
:103C14000B46FB700023FB60124B1B68FB60FB68C8
:103C240023F00303FB60FA687B681343FB600D4ACF
:103C3400FB6813600C4A0C4B1B6943F004031361CB
:103C4400FB78012B02D1FFF775FF01E0FFF77AFF44
:103C5400054A054B1B6923F0040313611037BD4665
:103C640080BD00BF0070004000ED00E080B500AFF3
:103C74000A4A0A4B1B6843F004031360074A074BC4
:103C84001B6843F002031360054A054B1B6943F0AC
:103C940004031361FFF74EFF80BD00BF00700040B6
:103CA40000ED00E080B485B000AF78600023FB73C2
:103CB400084B5A687B681340002B02D00123FB7326
:103CC40001E00023FB73FB7B18461437BD465DF807
:103CD400047B70470070004080B483B000AF78600C
:103CE4000549054B1A687B689B0013430B600C372E
:103CF400BD465DF8047B70470070004080B400AF9F
:103D0400134A134B1B6843F0010313601049104B13
:103D14005A68104B13404B600D4A0D4B1B6823F03F
:103D2400847323F480331360094A094B1B6823F41A
:103D340080231360064A064B5B6823F4FE0353603A
:103D4400034B4FF41F029A60BD465DF8047B704735
:103D5400001002400000FFF880B483B000AF786028
:103D6400134A134B1B6823F480331360104A104B1F
:103D74001B6823F4802313607B68B3F5803F03D072
:103D8400B3F5802F07D00DE0094A094B1B6843F4B3
:103D94008033136006E0064A054B1B6843F4A023F6
:103DA400136000BF0C37BD465DF8047B704700BF4D
:103DB4000010024080B582B000AF00233B600023B6
:103DC400FB710023BB71312000F014FB0346BB716F
:103DD4003B6801333B603B68B3F5A06F02D0BB790D
:103DE400002BF0D0312000F005FB0346002B02D05D
:103DF4000123FB7101E00023FB71FB7918460837AE
:103E0400BD4680BD80B485B000AF0346FB7100237E
:103E1400FB600A4B1B68FB60FB6823F0F803FB6044
:103E2400FB79DB00FA681343FB60044AFB68136008
:103E34001437BD465DF8047B704700BF0010024094
:103E440080B483B000AF0346FB71044AFB7913606E
:103E54000C37BD465DF8047B704700BF000042424A
:103E640080B485B000AF786039600023FB600A4BF2
:103E74005B68FB60FB6823F47C13FB607A683B6837
:103E84001343FA681343FB60034AFB685360143717
:103E9400BD465DF8047B70470010024080B483B0D7
:103EA40000AF0346FB71044AFB7913600C37BD462F
:103EB4005DF8047B704700BF6000424280B485B067
:103EC40000AF78600023FB60094B5B68FB60FB6814
:103ED40023F00303FB60FA687B681343FB60044A26
:103EE400FB6853601437BD465DF8047B704700BF20
:103EF4000010024080B400AF054B5B68DBB203F0F6
:103F04000C03DBB21846BD465DF8047B704700BF66
:103F14000010024080B485B000AF78600023FB60DD
:103F2400094B5B68FB60FB6823F0F003FB60FA68F5
:103F34007B681343FB60044AFB6853601437BD4637
:103F44005DF8047B704700BF0010024080B485B068
:103F540000AF78600023FB60094B5B68FB60FB6883
:103F640023F4E063FB60FA687B681343FB60044A54
:103F7400FB6853601437BD465DF8047B704700BF8F
:103F84000010024080B485B000AF78600023FB606D
:103F9400094B5B68FB60FB6823F46053FB607B6840
:103FA400DB00FA681343FB60034AFB685360143771
:103FB400BD465DF8047B70470010024080B483B0B6
:103FC40000AF03460A46FB711346BB71BB79002B55
:103FD40008D00C490B4B1B78DAB2FB791343DBB2E4
:103FE4000B7009E00749074B1B78DAB2FB79DB4316
:103FF400DBB21340DBB20B700C37BD465DF8047BBB
:10400400704700BF0910024080B483B000AF7860ED
:10401400034A7B6813600C37BD465DF8047B704728
:10402400D800424280B485B000AF78600023FB60C2
:10403400094B5B68FB60FB6823F44043FB60FA6850
:104044007B681343FB60044AFB6853601437BD4626
:104054005DF8047B704700BF0010024080B483B059
:1040640000AF0346FB710C4B00221A700A4B00226E
:104074001A70FB79012B02D0042B04D007E0064B05
:1040840001221A7003E0044B05221A7000BF0C379A
:10409400BD465DF8047B70472010024080B483B0B5
:1040A40000AF0346FB71044AFB7913600C37BD462D
:1040B4005DF8047B704700BF8004424280B483B043
:1040C40000AF78600549054B1A6A7B6813430B629D
:1040D4000C37BD465DF8047B704700BF00100240FA
:1040E40080B483B000AF0346FB71044AFB791360CC
:1040F4000C37BD465DF8047B704700BF3C04424268
:1041040080B487B000AF786000237B6100233B61FB
:104114000023FB600023BB604D4B5B6803F00C0382
:104124007B617B69042B07D0082B09D0002B34D189
:104134007B68484A1A6034E07B68474A1A6030E07A
:10414400434B5B6803F470133B61414B5B6803F4BE
:104154008033FB603B699B0C02333B61FB68002BA3
:1041640006D13B693D4A02FB03F27B681A6013E007
:10417400374B5B6803F40033002B06D03B69354AA8
:1041840002FB03F27B681A6006E03B69324A02FBD9
:1041940003F27B681A6004E003E07B682D4A1A602E
:1041A40000BF2B4B5B6803F0F0037B617B691B0949
:1041B4007B612B4A7B6913441B78DBB2BB607B6851
:1041C4001A68BB68DA407B685A60214B5B6803F469
:1041D400E0637B617B691B0A7B61214A7B69134431
:1041E4001B78DBB2BB607B685A68BB68DA407B68CB
:1041F4009A60174B5B6803F460537B617B69DB0A4D
:104204007B61174A7B6913441B78DBB2BB607B6814
:104214005A68BB68DA407B68DA600D4B5B6803F46C
:1042240040437B617B699B0B7B610E4A7B69134432
:104234001B78DBB2BB607B68DA68BB68B2FBF3F265
:104244007B681A611C37BD465DF8047B704700BF6C
:104254000010024000127A000024F40000093D001E
:10426400080000201800002080B483B000AF7860FC
:104274000B46FB70FB78002B06D00949084B5A69A2
:104284007B6813434B6106E00549054B5A697B681B
:10429400DB4313404B610C37BD465DF8047B70472C
:1042A4000010024080B483B000AF78600B46FB700E
:1042B400FB78002B06D00949084B9A697B681343A5
:1042C4008B6106E00549054B9A697B68DB43134023
:1042D4008B610C37BD465DF8047B704700100240CB
:1042E40080B483B000AF78600B46FB70FB78002B82
:1042F40006D00949084BDA697B681343CB6106E0B1
:104304000549054BDA697B68DB431340CB610C3705
:10431400BD465DF8047B70470010024080B483B052
:1043240000AF78600B46FB70FB78002B06D0094980
:10433400084BDA687B681343CB6006E00549054BFC
:10434400DA687B68DB431340CB600C37BD465DF80D
:10435400047B70470010024080B483B000AF7860E3
:104364000B46FB70FB78002B06D00949084B1A69F1
:104374007B6813430B6106E00549054B1A697B68AA
:10438400DB4313400B610C37BD465DF8047B70477B
:104394000010024080B483B000AF0346FB71044AAE
:1043A400FB7913600C37BD465DF8047B704700BF92
:1043B4004004424280B483B000AF0346FB71044A18
:1043C400FB7913600C37BD465DF8047B704700BF72
:1043D4004C00424280B483B000AF0346FB71044AF0
:1043E400FB7913700C37BD465DF8047B704700BF42
:1043F4000710024080B487B000AF0346FB7100236E
:10440400FB6000237B610023FB74FB795B09DBB257
:10441400FB60FB68012B03D1124B1B687B6109E035
:10442400FB68022B03D10F4B1B6A7B6102E00D4B2F
:104434005B6A7B61FB7903F01F03FB60FB687A69AD
:1044440022FA03F303F00103002B02D00123FB74CF
:1044540001E00023FB74FB7C18461C37BD465DF865
:10446400047B70470010024080B400AF044A044B40
:104474005B6A43F080735362BD465DF8047B70470A
:104484000010024080B485B000AF0346FB710023E6
:10449400FB73094B9A68FB791340002B02D001236C
:1044A400FB7301E00023FB73FB7B18461437BD4606
:1044B4005DF8047B704700BF0010024080B483B0F5
:1044C40000AF0346FB71044AFB7913700C37BD46F9
:1044D4005DF8047B704700BF0A10024080B483B0CB
:1044E40000AF03460A46FB8013467B717B79002BA1
:1044F40008D00C490B4B1B889AB2FB8813439BB220
:104504000B8009E00749074B1B889AB2FB88DB4301
:104514009BB213409BB20B800C37BD465DF8047B05
:10452400704700BF0028004080B400AF054A054B27
:104534009B889BB243F010039BB29380BD465DF809
:10454400047B70470028004080B400AF054A054B47
:104554009B889BB223F010039BB29380BD465DF809
:10456400047B70470028004080B483B000AF002370
:10457400FB80074B9B8BFB80054B1B8B9BB21A0468
:10458400FB88134318460C37BD465DF8047B70471F
:104594000028004080B582B000AF7860FFF7C4FF08
:1045A400064A7B681B0C9BB21383044B7A6892B255
:1045B4009A83FFF7C9FF0837BD4680BD0028004035
:1045C40080B582B000AF7860FFF7AEFF074A7B6822
:1045D40003F470231B0C9BB21381044B7A6892B2D0
:1045E4009A81FFF7B1FF0837BD4680BD002800401F
:1045F40080B582B000AF7860FFF796FF064A7B680B
:104604001B0C9BB21384044B7A6892B29A84FFF712
:104614009BFF0837BD4680BD0028004080B483B0AE
:1046240000AF00237B600A4B1B8A9BB203F00F038D
:104634001B047B60064B9B8A9BB21A467B68134320
:104644007B607B6818460C37BD465DF8047B704779
:104654000028004080B400AF00BF054B9B889BB28C
:1046640003F02003002BF8D0BD465DF8047B7047AF
:104674000028004080B400AF094A094B9B889BB2D4
:1046840023F008039BB2938000BF054B9B889BB229
:1046940003F00803002BF8D0BD465DF8047B704797
:1046A4000028004080B485B000AF0346FB8000239F
:1046B400FB730A4B9B889AB2FB8813409BB2002B76
:1046C40002D00123FB7301E00023FB73FB7B18463C
:1046D4001437BD465DF8047B704700BF00280040D6
:1046E40080B483B000AF0346FB800749064B9B8828
:1046F4009AB2FB88DB439BB213409BB28B800C378E
:10470400BD465DF8047B70470028004080B485B046
:1047140000AF0346FB800023FB730F4B9B889BB2C7
:10472400DAB2FB88DBB21340FB730B4B1B889AB2E3
:10473400FB8813409BB2002B05D0FB7B002B02D0DF
:104744000123FB7301E00023FB73FB7B1846143742
:10475400BD465DF8047B70470028004080B483B0F8
:1047640000AF0346FB800749064B9B889AB2FB883F
:10477400DB439BB213409BB28B800C37BD465DF884
:10478400047B70470028004080B483B000AF00234E
:10479400FB80074B9B8CFB80054B1B8C9BB21A0444
:1047A400FB88134318460C37BD465DF8047B7047FD
:1047B4000028004080B582B000AF78607B68174A5B
:1047C40093420AD14FF480500121FFF7A7FD4FF423
:1047D40080500021FFF7A2FD1CE07B68104A934241
:1047E4000AD14FF480400121FFF7B6FD4FF4804019
:1047F4000021FFF7B1FD0DE07B680A4A934209D11D
:104804004FF400400121FFF7A7FD4FF400400021C1
:10481400FFF7A2FD0837BD4680BD00BF0030014050
:1048240000380040003C004080B485B000AF7860A0
:1048340039600023FB817B681B88FB81FB8903F4BF
:104844004153FB813B681A883B685B8813439AB2E7
:104854003B689B8813439AB23B68DB8813439AB244
:104864003B681B8913439AB23B685B8913439AB232
:104874003B689B8913439AB23B68DB8913439AB222
:10488400FB891343FB817B68FA891A807B689B8BC5
:104894009BB223F400639AB27B689A833B681A8ABA
:1048A4007B681A821437BD465DF8047B704700BFED
:1048B40080B58CB000AF7860396000237B8402231C
:1048C400FB850023BB8501237B8500237B620023BA
:1048D400FB617B689B8B9BB223F47B6323F00F0308
:1048E4009AB27B689A837B6802221A847B689B8BCA
:1048F4007B843B689B68022B04D10023BB85022385
:10490400FB8555E03B689B88002B02D101237B8506
:1049140001E002237B857B683C4A934203D14FF438
:1049240000337B6202E04FF480237B6207F10803CB
:104934001846FFF7E5FBBB68FB613B68DB88B3F512
:10494400007F0FD1FB691A0A13469B0013445B00D6
:104954001A463B689B68B2FBF3F39BB205339BB2E8
:104964007B6212E07B8D5B011A46FB69B3FBF2F2BA
:1049740013469B0013445B001A463B689B68B2FBDA
:10498400F3F39BB205339BB27B627B6A204AA2FBA2
:104994000323DB087B627B6A9BB203F00103BB85C4
:1049A400BB8D7A6AD31A5B08FB85BB8D1B02BB8562
:1049B400FB8D012B02D9FB8DFF2B03D90223FB8531
:1049C4000023BB853B68DA88BB8D13439AB2FB8D09
:1049D40013439AB27B681A843B681A883B685988E7
:1049E4003B6898883B689B8903439BB20B439BB20B
:1049F40013439AB27B8C13439BB243F400637B84CE
:104A04007B687A8C9A833037BD4680BD003800407D
:104A1400CDCCCCCC80B483B000AF78607B6800226E
:104A24001A807B6800225A807B6800229A807B6807
:104A34000022DA807B6800221A817B6800225A8176
:104A44007B6800229A817B680022DA817B680722D6
:104A54001A820C37BD465DF8047B704780B483B07E
:104A640000AF78607B6800221A807B6800225A803D
:104A74007B6800229A807B680022DA807B680222AD
:104A84009A607B6800229A810C37BD465DF8047BEE
:104A9400704700BF80B483B000AF78600B46FB70F2
:104AA400FB78002B08D07B681B889BB243F0400343
:104AB4009AB27B681A8007E07B681B889BB223F05C
:104AC40040039AB27B681A800C37BD465DF8047BBC
:104AD400704700BF80B483B000AF78600B46FB70B2
:104AE400FB78002B08D07B689B8B9BB243F48063DC
:104AF4009AB27B689A8307E07B689B8B9BB223F412
:104B040080639AB27B689A830C37BD465DF8047B58
:104B1400704700BF80B485B000AF78600B46FB706F
:104B24001346BB700023FB810023BB81FB781B0968
:104B3400DBB2FB81FB89012202FA03F3BB81BB7860
:104B4400002B08D07B689B889AB2BB8913439AB226
:104B54007B689A8009E07B689B889AB2BB89DB43B7
:104B64009BB213409AB27B689A801437BD465DF8B5
:104B7400047B704780B483B000AF78600B467B80C1
:104B840013467B707B78002B08D07B689B889AB295
:104B94007B8813439AB27B689A8009E07B689B8880
:104BA4009AB27B88DB439BB213409AB27B689A80AB
:104BB4000C37BD465DF8047B704700BF80B483B0FA
:104BC40000AF78600B467B807B687A889A810C37CB
:104BD400BD465DF8047B704780B483B000AF786055
:104BE4007B689B899BB218460C37BD465DF8047BF5
:104BF400704700BF80B483B000AF78600B467B8001
:104C04007B884FF6FF62934208D07B681B889BB277
:104C140043F480739AB27B681A8007E07B681B8830
:104C24009BB223F480739AB27B681A800C37BD461A
:104C34005DF8047B704700BF80B483B000AF786038
:104C44000B46FB70FB78002B08D07B689B889BB2DB
:104C540043F004039AB27B689A8007E07B689B88E0
:104C64009BB223F004039AB27B689A800C37BD464A
:104C74005DF8047B704700BF80B483B000AF7860F8
:104C84000B467B807B681B889BB223F400639AB23B
:104C94007B681A807B681B889AB27B8813439AB21C
:104CA4007B681A800C37BD465DF8047B704700BFF3
:104CB40080B483B000AF78607B681B889BB243F4F8
:104CC40080539AB27B681A800C37BD465DF8047B2A
:104CD400704700BF80B483B000AF78600B46FB70B0
:104CE400FB78002B08D07B681B889BB243F40053ED
:104CF4009AB27B681A8007E07B681B889BB223F416
:104D040000539AB27B681A800C37BD465DF8047B69
:104D1400704700BF80B485B000AF78600B46FB706D
:104D24000023FB81FB78012B03D07B681B8BFB8169
:104D340002E07B689B8AFB81FB8918461437BD46D9
:104D44005DF8047B704700BF80B483B000AF786027
:104D54007B681B8A9BB218460C37BD465DF8047B02
:104D6400704700BF80B483B000AF78600B467B808F
:104D74007B88B3F5804F08D17B681B889BB243F4D2
:104D840080439AB27B681A8007E07B681B889BB2D9
:104D940023F480439AB27B681A800C37BD465DF8D1
:104DA400047B704780B485B000AF78600B467B808D
:104DB4000023FB737B681B899AB27B8813409BB2E8
:104DC400002B02D00123FB7301E00023FB73FB7B68
:104DD40018461437BD465DF8047B704780B483B031
:104DE40000AF78600B467B807B88DB439AB27B689C
:104DF4001A810C37BD465DF8047B704780B485B0DA
:104E040000AF78600B46FB700023FB730023BB816B
:104E140000237B8100233B81FB7803F00F030122F5
:104E240002FA03F3BB81FB781B09DBB27B817B892C
:104E3400012202FA03F37B817B689B889AB27B8907
:104E440013403B817B681B899AB2BB8913409BB298
:104E5400002B05D03B89002B02D00123FB7301E01A
:104E64000023FB73FB7B18461437BD465DF8047BB7
:104E7400704700BF80B485B000AF78600B46FB700C
:104E84000023FB81FB7803F00F03012202FA03F3F2
:104E9400FB81FB89DB439AB27B681A811437BD46D8
:104EA4005DF8047B704700BF80B582B000AF7860C6
:104EB4007B68784A93420AD14FF400600121FFF7DE
:104EC4002DFA4FF400600021FFF728FADEE07B683A
:104ED400B3F1804F08D101200121FFF73DFA0120F1
:104EE4000021FFF739FAD1E07B686B4A934208D17D
:104EF40002200121FFF730FA02200021FFF72CFAEB
:104F0400C4E07B68654A934208D104200121FFF77D
:104F140023FA04200021FFF71FFAB7E07B68604AF8
:104F2400934208D108200121FFF716FA0820002136
:104F3400FFF712FAAAE07B685A4A934208D110207C
:104F44000121FFF709FA10200021FFF705FA9DE07F
:104F54007B68554A934208D120200121FFF7FCF9D0
:104F640020200021FFF7F8F990E07B684F4A934234
:104F74000AD14FF400500121FFF7D0F94FF400504B
:104F84000021FFF7CBF981E07B68494A93420AD1BB
:104F94004FF400200121FFF7C1F94FF40020002154
:104FA400FFF7BCF972E07B68424A93420AD14FF49E
:104FB40080100121FFF7B2F94FF480100021FFF7B0
:104FC400ADF963E07B683C4A93420AD14FF4001088
:104FD4000121FFF7A3F94FF400100021FFF79EF918
:104FE40054E07B68354A934208D140200121FFF701
:104FF400B3F940200021FFF7AFF947E07B68304A5E
:10500400934208D180200121FFF7A6F980200021D6
:10501400FFF7A2F93AE07B682A4A93420AD14FF497
:1050240080700121FFF798F94FF480700021FFF799
:1050340093F92BE07B68244A93420AD14FF48030E1
:105044000121FFF76BF94FF480300021FFF766F977
:105054001CE07B681D4A93420AD14FF400300121C1
:10506400FFF75CF94FF400300021FFF757F90DE02A
:105074007B68174A934209D14FF480200121FFF73E
:105084004DF94FF480200021FFF748F90837BD4659
:1050940080BD00BF002C0140000400400008004017
:1050A400000C004000100040001400400034014097
:1050B400004C0140005001400054014000180040E1
:1050C400001C00400020004000400140004401401A
:1050D4000048014080B485B000AF78603960002397
:1050E400FB817B681B88FB817B682E4A934213D02B
:1050F4007B682D4A93420FD07B68B3F1804F0BD06D
:105104007B682A4A934207D07B68294A934203D09A
:105114007B68284A934208D1FB8923F07003FB8102
:105124003B685A88FB891343FB817B68224A93427C
:105134000CD07B68214A934208D0FB8923F4407346
:10514400FB813B68DA88FB891343FB817B68FA891E
:105154001A803B689A887B689A853B681A887B68C2
:105164001A857B680F4A93420FD07B680E4A93429C
:105174000BD07B68124A934207D07B68114A934252
:1051840003D07B68104A934204D13B681B7A9AB2DD
:105194007B681A867B6801229A821437BD465DF8C3
:1051A400047B7047002C014000340140000400409F
:1051B40000080040000C00400010004000140040B3
:1051C40000400140004401400048014080B485B0E3
:1051D40000AF7860396000237B810023FB810023CA
:1051E400BB817B681B8C9BB223F001039AB27B6862
:1051F4001A847B681B8CFB817B689B88BB817B68E2
:105204001B8B7B817B8923F070037B817B8923F05B
:1052140003037B813B681A887B8913437B81FB8969
:1052240023F00203FB813B681A89FB891343FB814A
:105234003B685A88FB891343FB817B68244A934269
:105244000FD07B68234A93420BD07B68224A934257
:1052540007D07B68214A934203D07B68204A93425B
:1052640023D1FB8923F00803FB813B685A89FB891E
:105274001343FB81FB8923F00403FB813B689A8879
:10528400FB891343FB81BB8923F48073BB81BB89F6
:1052940023F40073BB813B689A89BB891343BB81A8
:1052A4003B68DA89BB891343BB817B68BA899A80DE
:1052B4007B687A891A833B68DA887B689A867B687C
:1052C400FA891A841437BD465DF8047B704700BF21
:1052D400002C0140003401400040014000440140E2
:1052E4000048014080B485B000AF78603960002385
:1052F4007B810023FB810023BB817B681B8C9BB2D9
:1053040023F010039AB27B681A847B681B8CFB81A0
:105314007B689B88BB817B681B8B7B817B8923F4A7
:10532400E0437B817B8923F440737B813B681B884A
:105334001B029AB27B8913437B81FB8923F02003F0
:10534400FB813B681B891B019AB2FB891343FB81D8
:105354003B685B881B019AB2FB891343FB817B6822
:10536400224A934203D07B68214A93422BD1FB8982
:1053740023F08003FB813B685B891B019AB2FB89A4
:105384001343FB81FB8923F04003FB813B689B882B
:105394001B019AB2FB891343FB81BB8923F480630D
:1053A400BB81BB8923F40063BB813B689B899B0061
:1053B4009AB2BB891343BB813B68DB899B009AB2D9
:1053C400BB891343BB817B68BA899A807B687A89DD
:1053D4001A833B68DA887B681A877B68FA891A849F
:1053E4001437BD465DF8047B704700BF002C0140B4
:1053F4000034014080B485B000AF78603960002388
:105404007B810023FB810023BB817B681B8C9BB2C7
:1054140023F480739AB27B681A847B681B8CFB81AB
:105424007B689B88BB817B689B8B7B817B8923F01A
:1054340070037B817B8923F003037B813B681A889B
:105444007B8913437B81FB8923F40073FB813B68D5
:105454001B891B029AB2FB891343FB813B685B885F
:105464001B029AB2FB891343FB817B68224A934255
:1054740003D07B68214A93422BD1FB8923F4006338
:10548400FB813B685B891B029AB2FB891343FB8156
:10549400FB8923F48063FB813B689B881B029AB2DF
:1054A400FB891343FB81BB8923F48053BB81BB89F4
:1054B40023F40053BB813B689B891B019AB2BB89CF
:1054C4001343BB813B68DB891B019AB2BB8913433D
:1054D400BB817B68BA899A807B687A899A833B68A6
:1054E400DA887B689A877B68FA891A841437BD4600
:1054F4005DF8047B704700BF002C0140003401407C
:1055040080B485B000AF786039600023BB8100238C
:105514007B810023FB817B681B8C9BB223F480532B
:105524009AB27B681A847B681B8C7B817B689B881E
:10553400FB817B689B8BBB81BB8923F4E043BB81EC
:10554400BB8923F44073BB813B681B881B029AB25E
:10555400BB891343BB817B8923F400537B813B6864
:105564001B891B039AB27B8913437B813B685B884D
:105574001B039AB27B8913437B817B68124A934253
:1055840003D07B68114A93420AD1FB8923F48043F8
:10559400FB813B689B899B019AB2FB891343FB8186
:1055A4007B68FA899A807B68BA899A833B68DA882F
:1055B4007B68A3F840207B687A891A841437BD4637
:1055C4005DF8047B704700BF002C014000340140AB
:1055D40080B582B000AF786039603B681B88002BCF
:1055E4000FD13B6859883B689A883B681B89786867
:1055F40001F086F93B68DB887868194601F036F8D3
:1056040036E03B681B88042B0FD13B6859883B6804
:105614009A883B681B89786801F0E2F93B68DB886B
:105624007868194601F03EF822E03B681B88082B95
:105634000FD13B6859883B689A883B681B89786816
:1056440001F048FA3B68DB887868194601F048F8AD
:105654000EE03B6859883B689A883B681B897868E8
:1056640001F0AEFA3B68DB887868194601F054F81B
:105674000837BD4680BD00BF80B584B000AF7860F8
:1056840039600023FB810123BB813B685B88002BCD
:1056940002D10223FB8101E00023FB813B689B884C
:1056A400012B02D10223BB8101E00123BB813B68B2
:1056B4001B88002B1CD13B6859883B689A883B683F
:1056C4001B89786801F01CF93B68DB887868194607
:1056D40000F0CCFF3B681B89F989BA89786801F02E
:1056E4007FF93B68DB887868194600F0DBFF1BE034
:1056F4003B6859883B689A883B681B89786801F045
:105704006FF93B68DB887868194600F0CBFF3B688B
:105714001B89F989BA89786801F0F2F83B68DB885B
:105724007868194600F0A2FF1037BD4680BD00BF5F
:1057340080B483B000AF786039603B681A883B68F6
:105744005B8813439AB23B689B8813439AB23B68C5
:10575400DB8813439AB23B681B8913439AB23B68B4
:105764005B8913439AB23B689B8913439AB27B6863
:10577400A3F844200C37BD465DF8047B704700BF96
:1057840080B483B000AF78607B684FF6FF729A8074
:105794007B6800221A807B680022DA807B68002202
:1057A4005A807B6800221A720C37BD465DF8047B70
:1057B400704700BF80B483B000AF78607B6800227C
:1057C4001A807B6800225A807B6800229A807B685A
:1057D4000022DA807B6800221A817B6800225A81C9
:1057E4007B6800229A817B680022DA810C37BD46EF
:1057F4005DF8047B704700BF80B483B000AF78606D
:105804007B6800221A807B6800225A807B68012210
:105814009A807B680022DA807B6800221A810C3728
:10582400BD465DF8047B704780B483B000AF7860F8
:105834007B6800221A807B6800225A807B680022E1
:105844009A807B680022DA807B6800221A817B6858
:1058540000225A817B6800229A810C37BD465DF88C
:10586400047B704780B483B000AF78600B46FB7054
:10587400FB78002B08D07B681B889BB243F00103A4
:105884009AB27B681A8007E07B681B889BB223F07E
:1058940001039AB27B681A800C37BD465DF8047B1D
:1058A400704700BF80B483B000AF78600B46FB70D4
:1058B400FB78002B0CD07B68B3F844309BB26FEAC2
:1058C40043436FEA53439AB27B68A3F8442009E048
:1058D4007B68B3F844309BB2C3F30E039AB27B687F
:1058E400A3F844200C37BD465DF8047B704700BF25
:1058F40080B483B000AF78600B467B8013467B7026
:105904007B78002B08D07B689B899AB27B881343F1
:105914009AB27B689A8109E07B689B899AB27B88FA
:10592400DB439BB213409AB27B689A810C37BD4625
:105934005DF8047B704700BF80B483B000AF78602B
:105944000B467B807B687A889A820C37BD465DF86B
:10595400047B704780B483B000AF78600B467B80D3
:1059640013463B807A883B8813439AB27B68A3F83A
:1059740048200C37BD465DF8047B704780B483B083
:1059840000AF78600B467B8013467B707B78002BDE
:1059940008D07B689B899AB27B8813439AB27B6850
:1059A4009A8109E07B689B899AB27B88DB439BB22E
:1059B40013409AB27B689A810C37BD465DF8047B2C
:1059C400704700BF80B483B000AF78607B681B89E8
:1059D4009BB223F007039AB27B681A810C37BD4649
:1059E4005DF8047B704700BF80B582B000AF78607B
:1059F4000B467B807B887868194600F0E1F87B6869
:105A04001B899BB243F007039AB27B681A8108375B
:105A1400BD4680BD80B584B000AFF860084611462D
:105A24001A4603467B810B463B811346FB807B89E8
:105A3400602B07D13A89FB88F8681146012200F0EF
:105A4400CFFF06E03A89FB88F8681146012200F08E
:105A540057FF7B89F868194600F0B2F8FB681B8988
:105A64009BB243F007039AB2FB681A811037BD4614
:105A740080BD00BF80B586B000AFF860084611460F
:105A84001A4603467B810B463B811346FB80002369
:105A9400FB8279893A89FB88F86800F037F8FB685B
:105AA4001B89FB82FB8A23F00703FB82FB8A43F0FA
:105AB4000703FB82FB8A23F07003FB82FB8A43F01B
:105AC4007003FB82FB68FA8A1A811837BD4680BDD1
